{
  "_format": "hh-sol-artifact-1",
  "contractName": "UserMintNFT",
  "sourceName": "contracts/UserMintNFT.sol",
  "abi": [
    {
      "inputs": [
        {
          "internalType": "address",
          "name": "_storeAddress",
          "type": "address"
        },
        {
          "internalType": "string",
          "name": "name",
          "type": "string"
        },
        {
          "internalType": "string",
          "name": "symbol",
          "type": "string"
        },
        {
          "internalType": "string",
          "name": "_version",
          "type": "string"
        },
        {
          "internalType": "string",
          "name": "baseURI_",
          "type": "string"
        },
        {
          "internalType": "uint256",
          "name": "_mintPrice",
          "type": "uint256"
        },
        {
          "internalType": "uint256",
          "name": "_maxMintCount",
          "type": "uint256"
        }
      ],
      "stateMutability": "nonpayable",
      "type": "constructor"
    },
    {
      "anonymous": false,
      "inputs": [
        {
          "indexed": true,
          "internalType": "address",
          "name": "owner",
          "type": "address"
        },
        {
          "indexed": true,
          "internalType": "address",
          "name": "approved",
          "type": "address"
        },
        {
          "indexed": true,
          "internalType": "uint256",
          "name": "tokenId",
          "type": "uint256"
        }
      ],
      "name": "Approval",
      "type": "event"
    },
    {
      "anonymous": false,
      "inputs": [
        {
          "indexed": true,
          "internalType": "address",
          "name": "owner",
          "type": "address"
        },
        {
          "indexed": true,
          "internalType": "address",
          "name": "operator",
          "type": "address"
        },
        {
          "indexed": false,
          "internalType": "bool",
          "name": "approved",
          "type": "bool"
        }
      ],
      "name": "ApprovalForAll",
      "type": "event"
    },
    {
      "anonymous": false,
      "inputs": [
        {
          "indexed": true,
          "internalType": "address",
          "name": "from",
          "type": "address"
        },
        {
          "indexed": true,
          "internalType": "address",
          "name": "to",
          "type": "address"
        },
        {
          "indexed": true,
          "internalType": "uint256",
          "name": "tokenId",
          "type": "uint256"
        }
      ],
      "name": "Transfer",
      "type": "event"
    },
    {
      "inputs": [],
      "name": "DOMAIN_SEPARATOR",
      "outputs": [
        {
          "internalType": "bytes32",
          "name": "",
          "type": "bytes32"
        }
      ],
      "stateMutability": "view",
      "type": "function"
    },
    {
      "inputs": [],
      "name": "PERMIT_TYPEHASH",
      "outputs": [
        {
          "internalType": "bytes32",
          "name": "",
          "type": "bytes32"
        }
      ],
      "stateMutability": "view",
      "type": "function"
    },
    {
      "inputs": [
        {
          "internalType": "address",
          "name": "to",
          "type": "address"
        },
        {
          "internalType": "uint256",
          "name": "tokenId",
          "type": "uint256"
        }
      ],
      "name": "approve",
      "outputs": [],
      "stateMutability": "nonpayable",
      "type": "function"
    },
    {
      "inputs": [
        {
          "internalType": "address",
          "name": "owner",
          "type": "address"
        }
      ],
      "name": "balanceOf",
      "outputs": [
        {
          "internalType": "uint256",
          "name": "",
          "type": "uint256"
        }
      ],
      "stateMutability": "view",
      "type": "function"
    },
    {
      "inputs": [],
      "name": "baseURI",
      "outputs": [
        {
          "internalType": "string",
          "name": "",
          "type": "string"
        }
      ],
      "stateMutability": "view",
      "type": "function"
    },
    {
      "inputs": [
        {
          "internalType": "uint256",
          "name": "id",
          "type": "uint256"
        }
      ],
      "name": "burn",
      "outputs": [],
      "stateMutability": "nonpayable",
      "type": "function"
    },
    {
      "inputs": [],
      "name": "count",
      "outputs": [
        {
          "internalType": "uint256",
          "name": "",
          "type": "uint256"
        }
      ],
      "stateMutability": "view",
      "type": "function"
    },
    {
      "inputs": [],
      "name": "deployer",
      "outputs": [
        {
          "internalType": "address",
          "name": "",
          "type": "address"
        }
      ],
      "stateMutability": "view",
      "type": "function"
    },
    {
      "inputs": [
        {
          "internalType": "uint256",
          "name": "tokenId",
          "type": "uint256"
        }
      ],
      "name": "getApproved",
      "outputs": [
        {
          "internalType": "address",
          "name": "",
          "type": "address"
        }
      ],
      "stateMutability": "view",
      "type": "function"
    },
    {
      "inputs": [
        {
          "internalType": "address",
          "name": "owner",
          "type": "address"
        },
        {
          "internalType": "address",
          "name": "operator",
          "type": "address"
        }
      ],
      "name": "isApprovedForAll",
      "outputs": [
        {
          "internalType": "bool",
          "name": "",
          "type": "bool"
        }
      ],
      "stateMutability": "view",
      "type": "function"
    },
    {
      "inputs": [],
      "name": "maxMintCount",
      "outputs": [
        {
          "internalType": "uint256",
          "name": "",
          "type": "uint256"
        }
      ],
      "stateMutability": "view",
      "type": "function"
    },
    {
      "inputs": [
        {
          "internalType": "address",
          "name": "to",
          "type": "address"
        }
      ],
      "name": "mint",
      "outputs": [
        {
          "internalType": "uint256",
          "name": "id",
          "type": "uint256"
        }
      ],
      "stateMutability": "nonpayable",
      "type": "function"
    },
    {
      "inputs": [],
      "name": "mintPrice",
      "outputs": [
        {
          "internalType": "uint256",
          "name": "",
          "type": "uint256"
        }
      ],
      "stateMutability": "view",
      "type": "function"
    },
    {
      "inputs": [],
      "name": "name",
      "outputs": [
        {
          "internalType": "string",
          "name": "",
          "type": "string"
        }
      ],
      "stateMutability": "view",
      "type": "function"
    },
    {
      "inputs": [
        {
          "internalType": "uint256",
          "name": "",
          "type": "uint256"
        }
      ],
      "name": "nonces",
      "outputs": [
        {
          "internalType": "uint256",
          "name": "",
          "type": "uint256"
        }
      ],
      "stateMutability": "view",
      "type": "function"
    },
    {
      "inputs": [
        {
          "internalType": "uint256",
          "name": "tokenId",
          "type": "uint256"
        }
      ],
      "name": "ownerOf",
      "outputs": [
        {
          "internalType": "address",
          "name": "",
          "type": "address"
        }
      ],
      "stateMutability": "view",
      "type": "function"
    },
    {
      "inputs": [
        {
          "internalType": "address",
          "name": "spender",
          "type": "address"
        },
        {
          "internalType": "uint256",
          "name": "id",
          "type": "uint256"
        },
        {
          "internalType": "uint256",
          "name": "deadline",
          "type": "uint256"
        },
        {
          "internalType": "uint8",
          "name": "v",
          "type": "uint8"
        },
        {
          "internalType": "bytes32",
          "name": "r",
          "type": "bytes32"
        },
        {
          "internalType": "bytes32",
          "name": "s",
          "type": "bytes32"
        }
      ],
      "name": "permit",
      "outputs": [],
      "stateMutability": "nonpayable",
      "type": "function"
    },
    {
      "inputs": [
        {
          "internalType": "address",
          "name": "from",
          "type": "address"
        },
        {
          "internalType": "address",
          "name": "to",
          "type": "address"
        },
        {
          "internalType": "uint256",
          "name": "tokenId",
          "type": "uint256"
        }
      ],
      "name": "safeTransferFrom",
      "outputs": [],
      "stateMutability": "nonpayable",
      "type": "function"
    },
    {
      "inputs": [
        {
          "internalType": "address",
          "name": "from",
          "type": "address"
        },
        {
          "internalType": "address",
          "name": "to",
          "type": "address"
        },
        {
          "internalType": "uint256",
          "name": "tokenId",
          "type": "uint256"
        },
        {
          "internalType": "bytes",
          "name": "_data",
          "type": "bytes"
        }
      ],
      "name": "safeTransferFrom",
      "outputs": [],
      "stateMutability": "nonpayable",
      "type": "function"
    },
    {
      "inputs": [
        {
          "internalType": "string",
          "name": "name",
          "type": "string"
        },
        {
          "internalType": "string",
          "name": "symbol",
          "type": "string"
        },
        {
          "internalType": "string",
          "name": "_version",
          "type": "string"
        },
        {
          "internalType": "string",
          "name": "baseURI_",
          "type": "string"
        },
        {
          "internalType": "uint256",
          "name": "_mintPrice",
          "type": "uint256"
        },
        {
          "internalType": "uint256",
          "name": "_maxMintCount",
          "type": "uint256"
        }
      ],
      "name": "set",
      "outputs": [],
      "stateMutability": "nonpayable",
      "type": "function"
    },
    {
      "inputs": [
        {
          "internalType": "address",
          "name": "operator",
          "type": "address"
        },
        {
          "internalType": "bool",
          "name": "approved",
          "type": "bool"
        }
      ],
      "name": "setApprovalForAll",
      "outputs": [],
      "stateMutability": "nonpayable",
      "type": "function"
    },
    {
      "inputs": [],
      "name": "storeAddress",
      "outputs": [
        {
          "internalType": "address",
          "name": "",
          "type": "address"
        }
      ],
      "stateMutability": "view",
      "type": "function"
    },
    {
      "inputs": [
        {
          "internalType": "bytes4",
          "name": "interfaceId",
          "type": "bytes4"
        }
      ],
      "name": "supportsInterface",
      "outputs": [
        {
          "internalType": "bool",
          "name": "",
          "type": "bool"
        }
      ],
      "stateMutability": "view",
      "type": "function"
    },
    {
      "inputs": [],
      "name": "symbol",
      "outputs": [
        {
          "internalType": "string",
          "name": "",
          "type": "string"
        }
      ],
      "stateMutability": "view",
      "type": "function"
    },
    {
      "inputs": [
        {
          "internalType": "uint256",
          "name": "index",
          "type": "uint256"
        }
      ],
      "name": "tokenByIndex",
      "outputs": [
        {
          "internalType": "uint256",
          "name": "",
          "type": "uint256"
        }
      ],
      "stateMutability": "view",
      "type": "function"
    },
    {
      "inputs": [
        {
          "internalType": "address",
          "name": "owner",
          "type": "address"
        },
        {
          "internalType": "uint256",
          "name": "index",
          "type": "uint256"
        }
      ],
      "name": "tokenOfOwnerByIndex",
      "outputs": [
        {
          "internalType": "uint256",
          "name": "",
          "type": "uint256"
        }
      ],
      "stateMutability": "view",
      "type": "function"
    },
    {
      "inputs": [
        {
          "internalType": "uint256",
          "name": "tokenId",
          "type": "uint256"
        }
      ],
      "name": "tokenURI",
      "outputs": [
        {
          "internalType": "string",
          "name": "",
          "type": "string"
        }
      ],
      "stateMutability": "view",
      "type": "function"
    },
    {
      "inputs": [],
      "name": "totalSupply",
      "outputs": [
        {
          "internalType": "uint256",
          "name": "",
          "type": "uint256"
        }
      ],
      "stateMutability": "view",
      "type": "function"
    },
    {
      "inputs": [
        {
          "internalType": "address",
          "name": "from",
          "type": "address"
        },
        {
          "internalType": "address",
          "name": "to",
          "type": "address"
        },
        {
          "internalType": "uint256",
          "name": "tokenId",
          "type": "uint256"
        }
      ],
      "name": "transferFrom",
      "outputs": [],
      "stateMutability": "nonpayable",
      "type": "function"
    },
    {
      "inputs": [],
      "name": "version",
      "outputs": [
        {
          "internalType": "string",
          "name": "",
          "type": "string"
        }
      ],
      "stateMutability": "view",
      "type": "function"
    }
  ],
  "bytecode": "0x60a06040526000600f553480156200001657600080fd5b5060405162002514380380620025148339810160408190526200003991620002bd565b8551869086906200005290600090602085019062000143565b5080516200006890600190602084019062000143565b5050600a80546001600160a01b03191633179055506001600160601b0319606088901b166080528351620000a490600b90602087019062000143565b508251620000ba90600e90602086019062000143565b50600c91909155600d55508251602093840120815191840191909120604080517f8b73c3c69bb8fe3d512ecc4cf759cc79239f7b179b0ffacaa9a75d522b39400f818701528082019390935260608301919091524660808301523060a0808401919091528151808403909101815260c09092019052805192019190912060105550620003f09050565b82805462000151906200039d565b90600052602060002090601f016020900481019282620001755760008555620001c0565b82601f106200019057805160ff1916838001178555620001c0565b82800160010185558215620001c0579182015b82811115620001c0578251825591602001919060010190620001a3565b50620001ce929150620001d2565b5090565b5b80821115620001ce5760008155600101620001d3565b80516001600160a01b03811681146200020157600080fd5b919050565b600082601f8301126200021857600080fd5b81516001600160401b0380821115620002355762000235620003da565b604051601f8301601f19908116603f01168101908282118183101715620002605762000260620003da565b816040528381526020925086838588010111156200027d57600080fd5b600091505b83821015620002a1578582018301518183018401529082019062000282565b83821115620002b35760008385830101525b9695505050505050565b600080600080600080600060e0888a031215620002d957600080fd5b620002e488620001e9565b60208901519097506001600160401b03808211156200030257600080fd5b620003108b838c0162000206565b975060408a01519150808211156200032757600080fd5b620003358b838c0162000206565b965060608a01519150808211156200034c57600080fd5b6200035a8b838c0162000206565b955060808a01519150808211156200037157600080fd5b50620003808a828b0162000206565b93505060a0880151915060c0880151905092959891949750929550565b600181811c90821680620003b257607f821691505b60208210811415620003d457634e487b7160e01b600052602260045260246000fd5b50919050565b634e487b7160e01b600052604160045260246000fd5b60805160601c6120fe62000416600039600081816104400152610a5701526120fe6000f3fe608060405234801561001057600080fd5b50600436106101da5760003560e01c806354fd4d50116101045780637ac2ff7b116100a2578063c87b56dd11610071578063c87b56dd146103d9578063d5f39488146103ec578063e985e9c5146103ff578063f2c4da931461043b57600080fd5b80637ac2ff7b1461039857806395d89b41146103ab578063a22cb465146103b3578063b88d4fde146103c657600080fd5b80636817c76c116100de5780636817c76c146103615780636a6278421461036a5780636c0360eb1461037d57806370a082311461038557600080fd5b806354fd4d5014610333578063623bd30a1461033b5780636352211e1461034e57600080fd5b806323b872dd1161017c5780633644e5151161014b5780633644e515146102f157806342842e0e146102fa57806342966c681461030d5780634f6ccce71461032057600080fd5b806323b872dd1461029b5780632f745c59146102ae57806330adf81f146102c157806332c60eef146102e857600080fd5b8063081812fc116101b8578063081812fc14610233578063095ea7b31461025e578063141a468c1461027357806318160ddd1461029357600080fd5b806301ffc9a7146101df57806306661abd1461020757806306fdde031461021e575b600080fd5b6101f26101ed366004611cf2565b610462565b60405190151581526020015b60405180910390f35b610210600f5481565b6040519081526020016101fe565b610226610473565b6040516101fe9190611eb5565b610246610241366004611deb565b610505565b6040516001600160a01b0390911681526020016101fe565b61027161026c366004611c68565b61059f565b005b610210610281366004611deb565b60116020526000908152604090205481565b600854610210565b6102716102a9366004611b74565b6106b5565b6102106102bc366004611c68565b6106e6565b6102107f49ecf333e5b8c95c40fdafc95c1ad136e8914a8fb55e9dc8bb01eaa83a2df9ad81565b610210600d5481565b61021060105481565b610271610308366004611b74565b61077c565b61027161031b366004611deb565b610797565b61021061032e366004611deb565b6107c9565b61022661085c565b610271610349366004611d2c565b6108ea565b61024661035c366004611deb565b6109d3565b610210600c5481565b610210610378366004611b26565b610a4a565b610226610aab565b610210610393366004611b26565b610ab8565b6102716103a6366004611c92565b610b3f565b610226610dc6565b6102716103c1366004611c2c565b610dd5565b6102716103d4366004611bb0565b610de4565b6102266103e7366004611deb565b610e1c565b600a54610246906001600160a01b031681565b6101f261040d366004611b41565b6001600160a01b03918216600090815260056020908152604080832093909416825291909152205460ff1690565b6102467f000000000000000000000000000000000000000000000000000000000000000081565b600061046d82610ef7565b92915050565b60606000805461048290611fda565b80601f01602080910402602001604051908101604052809291908181526020018280546104ae90611fda565b80156104fb5780601f106104d0576101008083540402835291602001916104fb565b820191906000526020600020905b8154815290600101906020018083116104de57829003601f168201915b5050505050905090565b6000818152600260205260408120546001600160a01b03166105835760405162461bcd60e51b815260206004820152602c60248201527f4552433732313a20617070726f76656420717565727920666f72206e6f6e657860448201526b34b9ba32b73a103a37b5b2b760a11b60648201526084015b60405180910390fd5b506000908152600460205260409020546001600160a01b031690565b60006105aa826109d3565b9050806001600160a01b0316836001600160a01b031614156106185760405162461bcd60e51b815260206004820152602160248201527f4552433732313a20617070726f76616c20746f2063757272656e74206f776e656044820152603960f91b606482015260840161057a565b336001600160a01b03821614806106345750610634813361040d565b6106a65760405162461bcd60e51b815260206004820152603860248201527f4552433732313a20617070726f76652063616c6c6572206973206e6f74206f7760448201527f6e6572206e6f7220617070726f76656420666f7220616c6c0000000000000000606482015260840161057a565b6106b08383610f1c565b505050565b6106bf3382610f8a565b6106db5760405162461bcd60e51b815260040161057a90611f1a565b6106b0838383611081565b60006106f183610ab8565b82106107535760405162461bcd60e51b815260206004820152602b60248201527f455243373231456e756d657261626c653a206f776e657220696e646578206f7560448201526a74206f6620626f756e647360a81b606482015260840161057a565b506001600160a01b03919091166000908152600660209081526040808320938352929052205490565b6106b083838360405180602001604052806000815250610de4565b6107a0816109d3565b6001600160a01b0316336001600160a01b0316146107bd57600080fd5b6107c68161122c565b50565b60006107d460085490565b82106108375760405162461bcd60e51b815260206004820152602c60248201527f455243373231456e756d657261626c653a20676c6f62616c20696e646578206f60448201526b7574206f6620626f756e647360a01b606482015260840161057a565b6008828154811061084a5761084a612086565b90600052602060002001549050919050565b600b805461086990611fda565b80601f016020809104026020016040519081016040528092919081815260200182805461089590611fda565b80156108e25780601f106108b7576101008083540402835291602001916108e2565b820191906000526020600020905b8154815290600101906020018083116108c557829003601f168201915b505050505081565b600a546001600160a01b0316331461090157600080fd5b85516109149060009060208901906119e0565b5084516109289060019060208801906119e0565b50835161093c90600b9060208701906119e0565b50825161095090600e9060208601906119e0565b50600c91909155600d55508251602093840120815191840191909120604080517f8b73c3c69bb8fe3d512ecc4cf759cc79239f7b179b0ffacaa9a75d522b39400f818701528082019390935260608301919091524660808301523060a0808401919091528151808403909101815260c09092019052805192019190912060105550565b6000818152600260205260408120546001600160a01b03168061046d5760405162461bcd60e51b815260206004820152602960248201527f4552433732313a206f776e657220717565727920666f72206e6f6e657869737460448201526832b73a103a37b5b2b760b91b606482015260840161057a565b6000336001600160a01b037f00000000000000000000000000000000000000000000000000000000000000001614610a8157600080fd5b50600f8054906001906000610a968385611f6b565b90915550610aa6905082826112d3565b919050565b600e805461086990611fda565b60006001600160a01b038216610b235760405162461bcd60e51b815260206004820152602a60248201527f4552433732313a2062616c616e636520717565727920666f7220746865207a65604482015269726f206164647265737360b01b606482015260840161057a565b506001600160a01b031660009081526003602052604090205490565b83421115610b4c57600080fd5b6010546000868152601160208181526040808420805482517f49ecf333e5b8c95c40fdafc95c1ad136e8914a8fb55e9dc8bb01eaa83a2df9ad818601526001600160a01b038e1681850152606081018d90526080810182905260a08082018d90528451808303909101815260c08201855280519086012061190160f01b60e083015260e28201989098526101028082019890985283518082039098018852610122019092528551958301959095208a85529290915290926001929091610c13908490611f6b565b9091555060009050610c24876109d3565b9050806001600160a01b0316886001600160a01b03161415610c4557600080fd5b803b15610d1e57604080516020810186905280820185905260f887901b6001600160f81b0319166060820152815160418183030181526061820192839052630b135d3f60e11b9092526001600160a01b03831691631626ba7e91610cad918691606501611e9c565b60206040518083038186803b158015610cc557600080fd5b505afa158015610cd9573d6000803e3d6000fd5b505050506040513d601f19601f82011682018060405250810190610cfd9190611d0f565b6001600160e01b031916631626ba7e60e01b14610d1957600080fd5b610db2565b6040805160008082526020820180845285905260ff881692820192909252606081018690526080810185905260019060a0016020604051602081039080840390855afa158015610d72573d6000803e3d6000fd5b5050604051601f1901519150506001600160a01b038116610d9257600080fd5b816001600160a01b0316816001600160a01b031614610db057600080fd5b505b610dbc8888610f1c565b5050505050505050565b60606001805461048290611fda565b610de0338383611421565b5050565b610dee3383610f8a565b610e0a5760405162461bcd60e51b815260040161057a90611f1a565b610e16848484846114f0565b50505050565b6000818152600260205260409020546060906001600160a01b0316610e9b5760405162461bcd60e51b815260206004820152602f60248201527f4552433732314d657461646174613a2055524920717565727920666f72206e6f60448201526e3732bc34b9ba32b73a103a37b5b2b760891b606482015260840161057a565b6000610ea5611523565b90506000815111610ec55760405180602001604052806000815250610ef0565b80610ecf84611532565b604051602001610ee0929190611e30565b6040516020818303038152906040525b9392505050565b60006001600160e01b0319821663780e9d6360e01b148061046d575061046d82611630565b600081815260046020526040902080546001600160a01b0319166001600160a01b0384169081179091558190610f51826109d3565b6001600160a01b03167f8c5be1e5ebec7d5bd14f71427d1e84f3dd0314c0f7b2291e5b200ac8c7c3b92560405160405180910390a45050565b6000818152600260205260408120546001600160a01b03166110035760405162461bcd60e51b815260206004820152602c60248201527f4552433732313a206f70657261746f7220717565727920666f72206e6f6e657860448201526b34b9ba32b73a103a37b5b2b760a11b606482015260840161057a565b600061100e836109d3565b9050806001600160a01b0316846001600160a01b031614806110495750836001600160a01b031661103e84610505565b6001600160a01b0316145b8061107957506001600160a01b0380821660009081526005602090815260408083209388168352929052205460ff165b949350505050565b826001600160a01b0316611094826109d3565b6001600160a01b0316146110fc5760405162461bcd60e51b815260206004820152602960248201527f4552433732313a207472616e73666572206f6620746f6b656e2074686174206960448201526839903737ba1037bbb760b91b606482015260840161057a565b6001600160a01b03821661115e5760405162461bcd60e51b8152602060048201526024808201527f4552433732313a207472616e7366657220746f20746865207a65726f206164646044820152637265737360e01b606482015260840161057a565b611169838383611680565b611174600082610f1c565b6001600160a01b038316600090815260036020526040812080546001929061119d908490611f97565b90915550506001600160a01b03821660009081526003602052604081208054600192906111cb908490611f6b565b909155505060008181526002602052604080822080546001600160a01b0319166001600160a01b0386811691821790925591518493918716917fddf252ad1be2c89b69c2b068fc378daa952ba7f163c4a11628f55a4df523b3ef91a4505050565b6000611237826109d3565b905061124581600084611680565b611250600083610f1c565b6001600160a01b0381166000908152600360205260408120805460019290611279908490611f97565b909155505060008281526002602052604080822080546001600160a01b0319169055518391906001600160a01b038416907fddf252ad1be2c89b69c2b068fc378daa952ba7f163c4a11628f55a4df523b3ef908390a45050565b6001600160a01b0382166113295760405162461bcd60e51b815260206004820181905260248201527f4552433732313a206d696e7420746f20746865207a65726f2061646472657373604482015260640161057a565b6000818152600260205260409020546001600160a01b03161561138e5760405162461bcd60e51b815260206004820152601c60248201527f4552433732313a20746f6b656e20616c7265616479206d696e74656400000000604482015260640161057a565b61139a60008383611680565b6001600160a01b03821660009081526003602052604081208054600192906113c3908490611f6b565b909155505060008181526002602052604080822080546001600160a01b0319166001600160a01b03861690811790915590518392907fddf252ad1be2c89b69c2b068fc378daa952ba7f163c4a11628f55a4df523b3ef908290a45050565b816001600160a01b0316836001600160a01b031614156114835760405162461bcd60e51b815260206004820152601960248201527f4552433732313a20617070726f766520746f2063616c6c657200000000000000604482015260640161057a565b6001600160a01b03838116600081815260056020908152604080832094871680845294825291829020805460ff191686151590811790915591519182527f17307eab39ab6107e8899845ad3d59bd9653f200f220920489ca2b5937696c31910160405180910390a3505050565b6114fb848484611081565b6115078484848461168b565b610e165760405162461bcd60e51b815260040161057a90611ec8565b6060600e805461048290611fda565b6060816115565750506040805180820190915260018152600360fc1b602082015290565b8160005b8115611580578061156a81612015565b91506115799050600a83611f83565b915061155a565b60008167ffffffffffffffff81111561159b5761159b61209c565b6040519080825280601f01601f1916602001820160405280156115c5576020820181803683370190505b5090505b8415611079576115da600183611f97565b91506115e7600a86612030565b6115f2906030611f6b565b60f81b81838151811061160757611607612086565b60200101906001600160f81b031916908160001a905350611629600a86611f83565b94506115c9565b60006001600160e01b031982166380ac58cd60e01b148061166157506001600160e01b03198216635b5e139f60e01b145b8061046d57506301ffc9a760e01b6001600160e01b031983161461046d565b6106b0838383611798565b60006001600160a01b0384163b1561178d57604051630a85bd0160e11b81526001600160a01b0385169063150b7a02906116cf903390899088908890600401611e5f565b602060405180830381600087803b1580156116e957600080fd5b505af1925050508015611719575060408051601f3d908101601f1916820190925261171691810190611d0f565b60015b611773573d808015611747576040519150601f19603f3d011682016040523d82523d6000602084013e61174c565b606091505b50805161176b5760405162461bcd60e51b815260040161057a90611ec8565b805181602001fd5b6001600160e01b031916630a85bd0160e11b149050611079565b506001949350505050565b6001600160a01b0383166117f3576117ee81600880546000838152600960205260408120829055600182018355919091527ff3f7a9fe364faab93b216da50a3214154f22a0a2b415b23a84c8169e8b636ee30155565b611816565b816001600160a01b0316836001600160a01b031614611816576118168382611850565b6001600160a01b03821661182d576106b0816118ed565b826001600160a01b0316826001600160a01b0316146106b0576106b0828261199c565b6000600161185d84610ab8565b6118679190611f97565b6000838152600760205260409020549091508082146118ba576001600160a01b03841660009081526006602090815260408083208584528252808320548484528184208190558352600790915290208190555b5060009182526007602090815260408084208490556001600160a01b039094168352600681528383209183525290812055565b6008546000906118ff90600190611f97565b6000838152600960205260408120546008805493945090928490811061192757611927612086565b90600052602060002001549050806008838154811061194857611948612086565b600091825260208083209091019290925582815260099091526040808220849055858252812055600880548061198057611980612070565b6001900381819060005260206000200160009055905550505050565b60006119a783610ab8565b6001600160a01b039093166000908152600660209081526040808320868452825280832085905593825260079052919091209190915550565b8280546119ec90611fda565b90600052602060002090601f016020900481019282611a0e5760008555611a54565b82601f10611a2757805160ff1916838001178555611a54565b82800160010185558215611a54579182015b82811115611a54578251825591602001919060010190611a39565b50611a60929150611a64565b5090565b5b80821115611a605760008155600101611a65565b600067ffffffffffffffff80841115611a9457611a9461209c565b604051601f8501601f19908116603f01168101908282118183101715611abc57611abc61209c565b81604052809350858152868686011115611ad557600080fd5b858560208301376000602087830101525050509392505050565b80356001600160a01b0381168114610aa657600080fd5b600082601f830112611b1757600080fd5b610ef083833560208501611a79565b600060208284031215611b3857600080fd5b610ef082611aef565b60008060408385031215611b5457600080fd5b611b5d83611aef565b9150611b6b60208401611aef565b90509250929050565b600080600060608486031215611b8957600080fd5b611b9284611aef565b9250611ba060208501611aef565b9150604084013590509250925092565b60008060008060808587031215611bc657600080fd5b611bcf85611aef565b9350611bdd60208601611aef565b925060408501359150606085013567ffffffffffffffff811115611c0057600080fd5b8501601f81018713611c1157600080fd5b611c2087823560208401611a79565b91505092959194509250565b60008060408385031215611c3f57600080fd5b611c4883611aef565b915060208301358015158114611c5d57600080fd5b809150509250929050565b60008060408385031215611c7b57600080fd5b611c8483611aef565b946020939093013593505050565b60008060008060008060c08789031215611cab57600080fd5b611cb487611aef565b95506020870135945060408701359350606087013560ff81168114611cd857600080fd5b9598949750929560808101359460a0909101359350915050565b600060208284031215611d0457600080fd5b8135610ef0816120b2565b600060208284031215611d2157600080fd5b8151610ef0816120b2565b60008060008060008060c08789031215611d4557600080fd5b863567ffffffffffffffff80821115611d5d57600080fd5b611d698a838b01611b06565b97506020890135915080821115611d7f57600080fd5b611d8b8a838b01611b06565b96506040890135915080821115611da157600080fd5b611dad8a838b01611b06565b95506060890135915080821115611dc357600080fd5b50611dd089828a01611b06565b9350506080870135915060a087013590509295509295509295565b600060208284031215611dfd57600080fd5b5035919050565b60008151808452611e1c816020860160208601611fae565b601f01601f19169290920160200192915050565b60008351611e42818460208801611fae565b835190830190611e56818360208801611fae565b01949350505050565b6001600160a01b0385811682528416602082015260408101839052608060608201819052600090611e9290830184611e04565b9695505050505050565b8281526040602082015260006110796040830184611e04565b602081526000610ef06020830184611e04565b60208082526032908201527f4552433732313a207472616e7366657220746f206e6f6e20455243373231526560408201527131b2b4bb32b91034b6b83632b6b2b73a32b960711b606082015260800190565b60208082526031908201527f4552433732313a207472616e736665722063616c6c6572206973206e6f74206f6040820152701ddb995c881b9bdc88185c1c1c9bdd9959607a1b606082015260800190565b60008219821115611f7e57611f7e612044565b500190565b600082611f9257611f9261205a565b500490565b600082821015611fa957611fa9612044565b500390565b60005b83811015611fc9578181015183820152602001611fb1565b83811115610e165750506000910152565b600181811c90821680611fee57607f821691505b6020821081141561200f57634e487b7160e01b600052602260045260246000fd5b50919050565b600060001982141561202957612029612044565b5060010190565b60008261203f5761203f61205a565b500690565b634e487b7160e01b600052601160045260246000fd5b634e487b7160e01b600052601260045260246000fd5b634e487b7160e01b600052603160045260246000fd5b634e487b7160e01b600052603260045260246000fd5b634e487b7160e01b600052604160045260246000fd5b6001600160e01b0319811681146107c657600080fdfea2646970667358221220ffdea27fdeaa7ae5fde87d62187b4d7a1fa28a32e232af858d6895e73aee6e8364736f6c63430008050033",
  "linkReferences": {},
  "deployedLinkReferences": {}
}