{
  "_format": "hh-sol-artifact-1",
  "contractName": "CakeNFTStore",
  "sourceName": "contracts/CakeNFTStore.sol",
  "abi": [
    {
      "inputs": [
        {
          "internalType": "contract IERC20",
          "name": "_cake",
          "type": "address"
        },
        {
          "internalType": "contract ICakeStaker",
          "name": "_cakeStaker",
          "type": "address"
        },
        {
          "internalType": "contract ICakeOwnerVault",
          "name": "_ownerVault",
          "type": "address"
        },
        {
          "internalType": "contract ICakeVault",
          "name": "_vault",
          "type": "address"
        },
        {
          "internalType": "address",
          "name": "_oracle",
          "type": "address"
        }
      ],
      "stateMutability": "nonpayable",
      "type": "constructor"
    },
    {
      "anonymous": false,
      "inputs": [
        {
          "indexed": true,
          "internalType": "contract IERC721",
          "name": "nft",
          "type": "address"
        },
        {
          "indexed": true,
          "internalType": "uint256",
          "name": "nftId",
          "type": "uint256"
        },
        {
          "indexed": true,
          "internalType": "uint256",
          "name": "offerId",
          "type": "uint256"
        },
        {
          "indexed": false,
          "internalType": "address",
          "name": "acceptor",
          "type": "address"
        }
      ],
      "name": "AcceptOffer",
      "type": "event"
    },
    {
      "anonymous": false,
      "inputs": [
        {
          "indexed": true,
          "internalType": "contract IERC721",
          "name": "nft",
          "type": "address"
        },
        {
          "indexed": true,
          "internalType": "uint256",
          "name": "nftId",
          "type": "uint256"
        },
        {
          "indexed": true,
          "internalType": "address",
          "name": "owner",
          "type": "address"
        },
        {
          "indexed": false,
          "internalType": "uint256",
          "name": "startPrice",
          "type": "uint256"
        },
        {
          "indexed": false,
          "internalType": "uint256",
          "name": "endBlock",
          "type": "uint256"
        }
      ],
      "name": "Auction",
      "type": "event"
    },
    {
      "anonymous": false,
      "inputs": [
        {
          "indexed": true,
          "internalType": "contract IERC721",
          "name": "nft",
          "type": "address"
        },
        {
          "indexed": true,
          "internalType": "uint256",
          "name": "nftId",
          "type": "uint256"
        },
        {
          "indexed": true,
          "internalType": "address",
          "name": "bidder",
          "type": "address"
        },
        {
          "indexed": false,
          "internalType": "uint256",
          "name": "price",
          "type": "uint256"
        }
      ],
      "name": "Bid",
      "type": "event"
    },
    {
      "anonymous": false,
      "inputs": [
        {
          "indexed": true,
          "internalType": "contract IERC721",
          "name": "nft",
          "type": "address"
        },
        {
          "indexed": true,
          "internalType": "uint256",
          "name": "nftId",
          "type": "uint256"
        },
        {
          "indexed": true,
          "internalType": "address",
          "name": "buyer",
          "type": "address"
        },
        {
          "indexed": false,
          "internalType": "uint256",
          "name": "price",
          "type": "uint256"
        }
      ],
      "name": "Buy",
      "type": "event"
    },
    {
      "anonymous": false,
      "inputs": [
        {
          "indexed": true,
          "internalType": "contract IERC721",
          "name": "nft",
          "type": "address"
        },
        {
          "indexed": true,
          "internalType": "uint256",
          "name": "nftId",
          "type": "uint256"
        },
        {
          "indexed": true,
          "internalType": "address",
          "name": "owner",
          "type": "address"
        }
      ],
      "name": "CancelAuction",
      "type": "event"
    },
    {
      "anonymous": false,
      "inputs": [
        {
          "indexed": true,
          "internalType": "contract IERC721",
          "name": "nft",
          "type": "address"
        },
        {
          "indexed": true,
          "internalType": "uint256",
          "name": "nftId",
          "type": "uint256"
        },
        {
          "indexed": true,
          "internalType": "uint256",
          "name": "offerId",
          "type": "uint256"
        },
        {
          "indexed": false,
          "internalType": "address",
          "name": "offeror",
          "type": "address"
        }
      ],
      "name": "CancelOffer",
      "type": "event"
    },
    {
      "anonymous": false,
      "inputs": [
        {
          "indexed": true,
          "internalType": "contract IERC721",
          "name": "nft",
          "type": "address"
        },
        {
          "indexed": true,
          "internalType": "uint256",
          "name": "nftId",
          "type": "uint256"
        },
        {
          "indexed": true,
          "internalType": "address",
          "name": "owner",
          "type": "address"
        }
      ],
      "name": "CancelSale",
      "type": "event"
    },
    {
      "anonymous": false,
      "inputs": [
        {
          "indexed": true,
          "internalType": "contract IERC721",
          "name": "nft",
          "type": "address"
        },
        {
          "indexed": true,
          "internalType": "uint256",
          "name": "nftId",
          "type": "uint256"
        },
        {
          "indexed": true,
          "internalType": "address",
          "name": "bidder",
          "type": "address"
        },
        {
          "indexed": false,
          "internalType": "uint256",
          "name": "price",
          "type": "uint256"
        }
      ],
      "name": "Claim",
      "type": "event"
    },
    {
      "anonymous": false,
      "inputs": [
        {
          "indexed": true,
          "internalType": "contract IERC721",
          "name": "nft",
          "type": "address"
        },
        {
          "indexed": true,
          "internalType": "uint256",
          "name": "nftId",
          "type": "uint256"
        },
        {
          "indexed": true,
          "internalType": "address",
          "name": "to",
          "type": "address"
        },
        {
          "indexed": false,
          "internalType": "uint256",
          "name": "claimed",
          "type": "uint256"
        }
      ],
      "name": "ClaimCake",
      "type": "event"
    },
    {
      "anonymous": false,
      "inputs": [
        {
          "indexed": true,
          "internalType": "address",
          "name": "by",
          "type": "address"
        },
        {
          "indexed": false,
          "internalType": "uint256",
          "name": "distributed",
          "type": "uint256"
        }
      ],
      "name": "DistributeCake",
      "type": "event"
    },
    {
      "anonymous": false,
      "inputs": [
        {
          "indexed": true,
          "internalType": "contract IERC721",
          "name": "nft",
          "type": "address"
        },
        {
          "indexed": true,
          "internalType": "uint256",
          "name": "nftId",
          "type": "uint256"
        },
        {
          "indexed": true,
          "internalType": "uint256",
          "name": "offerId",
          "type": "uint256"
        },
        {
          "indexed": false,
          "internalType": "address",
          "name": "offeror",
          "type": "address"
        },
        {
          "indexed": false,
          "internalType": "uint256",
          "name": "price",
          "type": "uint256"
        }
      ],
      "name": "Offer",
      "type": "event"
    },
    {
      "anonymous": false,
      "inputs": [
        {
          "indexed": true,
          "internalType": "address",
          "name": "previousOwner",
          "type": "address"
        },
        {
          "indexed": true,
          "internalType": "address",
          "name": "newOwner",
          "type": "address"
        }
      ],
      "name": "OwnershipTransferred",
      "type": "event"
    },
    {
      "anonymous": false,
      "inputs": [
        {
          "indexed": true,
          "internalType": "contract IERC721",
          "name": "nft",
          "type": "address"
        },
        {
          "indexed": true,
          "internalType": "uint256",
          "name": "nftId",
          "type": "uint256"
        },
        {
          "indexed": true,
          "internalType": "address",
          "name": "owner",
          "type": "address"
        },
        {
          "indexed": false,
          "internalType": "uint256",
          "name": "price",
          "type": "uint256"
        }
      ],
      "name": "Sell",
      "type": "event"
    },
    {
      "anonymous": false,
      "inputs": [
        {
          "indexed": true,
          "internalType": "contract IERC721",
          "name": "nft",
          "type": "address"
        },
        {
          "indexed": true,
          "internalType": "uint256",
          "name": "nftId",
          "type": "uint256"
        },
        {
          "indexed": true,
          "internalType": "address",
          "name": "minter",
          "type": "address"
        },
        {
          "indexed": false,
          "internalType": "uint256",
          "name": "mintPrice",
          "type": "uint256"
        }
      ],
      "name": "UserMint",
      "type": "event"
    },
    {
      "inputs": [
        {
          "internalType": "contract IERC721",
          "name": "nft",
          "type": "address"
        },
        {
          "internalType": "uint256",
          "name": "nftId",
          "type": "uint256"
        },
        {
          "internalType": "uint256",
          "name": "offerId",
          "type": "uint256"
        }
      ],
      "name": "acceptOffer",
      "outputs": [],
      "stateMutability": "nonpayable",
      "type": "function"
    },
    {
      "inputs": [
        {
          "internalType": "contract IERC721",
          "name": "nft",
          "type": "address"
        },
        {
          "internalType": "uint256",
          "name": "nftId",
          "type": "uint256"
        }
      ],
      "name": "accumulativeCakeOf",
      "outputs": [
        {
          "internalType": "uint256",
          "name": "",
          "type": "uint256"
        }
      ],
      "stateMutability": "view",
      "type": "function"
    },
    {
      "inputs": [
        {
          "internalType": "contract IERC721",
          "name": "nft",
          "type": "address"
        },
        {
          "internalType": "uint256",
          "name": "nftId",
          "type": "uint256"
        },
        {
          "internalType": "uint256",
          "name": "startPrice",
          "type": "uint256"
        },
        {
          "internalType": "uint256",
          "name": "endBlock",
          "type": "uint256"
        }
      ],
      "name": "auction",
      "outputs": [],
      "stateMutability": "nonpayable",
      "type": "function"
    },
    {
      "inputs": [
        {
          "internalType": "contract ICakeNFT",
          "name": "nft",
          "type": "address"
        },
        {
          "internalType": "uint256",
          "name": "nftId",
          "type": "uint256"
        },
        {
          "internalType": "uint256",
          "name": "startPrice",
          "type": "uint256"
        },
        {
          "internalType": "uint256",
          "name": "endBlock",
          "type": "uint256"
        },
        {
          "internalType": "uint256",
          "name": "deadline",
          "type": "uint256"
        },
        {
          "internalType": "uint8",
          "name": "v",
          "type": "uint8"
        },
        {
          "internalType": "bytes32",
          "name": "r",
          "type": "bytes32"
        },
        {
          "internalType": "bytes32",
          "name": "s",
          "type": "bytes32"
        }
      ],
      "name": "auctionWithPermit",
      "outputs": [],
      "stateMutability": "nonpayable",
      "type": "function"
    },
    {
      "inputs": [
        {
          "internalType": "contract IERC721",
          "name": "",
          "type": "address"
        },
        {
          "internalType": "uint256",
          "name": "",
          "type": "uint256"
        }
      ],
      "name": "auctions",
      "outputs": [
        {
          "internalType": "address",
          "name": "seller",
          "type": "address"
        },
        {
          "internalType": "uint256",
          "name": "startPrice",
          "type": "uint256"
        },
        {
          "internalType": "uint256",
          "name": "endBlock",
          "type": "uint256"
        }
      ],
      "stateMutability": "view",
      "type": "function"
    },
    {
      "inputs": [
        {
          "internalType": "contract IERC721",
          "name": "nft",
          "type": "address"
        },
        {
          "internalType": "uint256",
          "name": "nftId",
          "type": "uint256"
        },
        {
          "internalType": "uint256",
          "name": "price",
          "type": "uint256"
        }
      ],
      "name": "bid",
      "outputs": [
        {
          "internalType": "uint256",
          "name": "biddingId",
          "type": "uint256"
        }
      ],
      "stateMutability": "nonpayable",
      "type": "function"
    },
    {
      "inputs": [
        {
          "internalType": "contract IERC721",
          "name": "nft",
          "type": "address"
        },
        {
          "internalType": "uint256",
          "name": "nftId",
          "type": "uint256"
        }
      ],
      "name": "biddingCount",
      "outputs": [
        {
          "internalType": "uint256",
          "name": "",
          "type": "uint256"
        }
      ],
      "stateMutability": "view",
      "type": "function"
    },
    {
      "inputs": [
        {
          "internalType": "contract IERC721",
          "name": "",
          "type": "address"
        },
        {
          "internalType": "uint256",
          "name": "",
          "type": "uint256"
        },
        {
          "internalType": "uint256",
          "name": "",
          "type": "uint256"
        }
      ],
      "name": "biddings",
      "outputs": [
        {
          "internalType": "address",
          "name": "bidder",
          "type": "address"
        },
        {
          "internalType": "uint256",
          "name": "price",
          "type": "uint256"
        }
      ],
      "stateMutability": "view",
      "type": "function"
    },
    {
      "inputs": [
        {
          "internalType": "contract IERC721",
          "name": "nft",
          "type": "address"
        },
        {
          "internalType": "uint256",
          "name": "nftId",
          "type": "uint256"
        }
      ],
      "name": "buy",
      "outputs": [],
      "stateMutability": "nonpayable",
      "type": "function"
    },
    {
      "inputs": [],
      "name": "cake",
      "outputs": [
        {
          "internalType": "contract IERC20",
          "name": "",
          "type": "address"
        }
      ],
      "stateMutability": "view",
      "type": "function"
    },
    {
      "inputs": [],
      "name": "cakeStaker",
      "outputs": [
        {
          "internalType": "contract ICakeStaker",
          "name": "",
          "type": "address"
        }
      ],
      "stateMutability": "view",
      "type": "function"
    },
    {
      "inputs": [
        {
          "internalType": "contract IERC721",
          "name": "nft",
          "type": "address"
        },
        {
          "internalType": "uint256",
          "name": "nftId",
          "type": "uint256"
        }
      ],
      "name": "cancelAuction",
      "outputs": [],
      "stateMutability": "nonpayable",
      "type": "function"
    },
    {
      "inputs": [
        {
          "internalType": "contract IERC721",
          "name": "nft",
          "type": "address"
        },
        {
          "internalType": "uint256",
          "name": "nftId",
          "type": "uint256"
        },
        {
          "internalType": "uint256",
          "name": "offerId",
          "type": "uint256"
        }
      ],
      "name": "cancelOffer",
      "outputs": [],
      "stateMutability": "nonpayable",
      "type": "function"
    },
    {
      "inputs": [
        {
          "internalType": "contract IERC721",
          "name": "nft",
          "type": "address"
        },
        {
          "internalType": "uint256",
          "name": "nftId",
          "type": "uint256"
        }
      ],
      "name": "cancelSale",
      "outputs": [],
      "stateMutability": "nonpayable",
      "type": "function"
    },
    {
      "inputs": [
        {
          "internalType": "contract IERC721",
          "name": "nft",
          "type": "address"
        },
        {
          "internalType": "uint256",
          "name": "nftId",
          "type": "uint256"
        }
      ],
      "name": "checkAuction",
      "outputs": [
        {
          "internalType": "bool",
          "name": "",
          "type": "bool"
        }
      ],
      "stateMutability": "view",
      "type": "function"
    },
    {
      "inputs": [
        {
          "internalType": "contract IERC721",
          "name": "nft",
          "type": "address"
        },
        {
          "internalType": "uint256",
          "name": "nftId",
          "type": "uint256"
        }
      ],
      "name": "checkSelling",
      "outputs": [
        {
          "internalType": "bool",
          "name": "",
          "type": "bool"
        }
      ],
      "stateMutability": "view",
      "type": "function"
    },
    {
      "inputs": [
        {
          "internalType": "contract IERC721",
          "name": "nft",
          "type": "address"
        },
        {
          "internalType": "uint256",
          "name": "nftId",
          "type": "uint256"
        }
      ],
      "name": "claim",
      "outputs": [],
      "stateMutability": "nonpayable",
      "type": "function"
    },
    {
      "inputs": [
        {
          "internalType": "contract IERC721",
          "name": "nft",
          "type": "address"
        },
        {
          "internalType": "uint256",
          "name": "nftId",
          "type": "uint256"
        }
      ],
      "name": "claimCake",
      "outputs": [],
      "stateMutability": "nonpayable",
      "type": "function"
    },
    {
      "inputs": [
        {
          "internalType": "contract IERC721",
          "name": "nft",
          "type": "address"
        },
        {
          "internalType": "uint256",
          "name": "nftId",
          "type": "uint256"
        }
      ],
      "name": "claimableCakeOf",
      "outputs": [
        {
          "internalType": "uint256",
          "name": "",
          "type": "uint256"
        }
      ],
      "stateMutability": "view",
      "type": "function"
    },
    {
      "inputs": [
        {
          "internalType": "contract IERC721",
          "name": "",
          "type": "address"
        },
        {
          "internalType": "uint256",
          "name": "",
          "type": "uint256"
        }
      ],
      "name": "claimed",
      "outputs": [
        {
          "internalType": "uint256",
          "name": "",
          "type": "uint256"
        }
      ],
      "stateMutability": "view",
      "type": "function"
    },
    {
      "inputs": [
        {
          "internalType": "contract IERC721",
          "name": "nft",
          "type": "address"
        },
        {
          "internalType": "uint256",
          "name": "nftId",
          "type": "uint256"
        }
      ],
      "name": "claimedCakeOf",
      "outputs": [
        {
          "internalType": "uint256",
          "name": "",
          "type": "uint256"
        }
      ],
      "stateMutability": "view",
      "type": "function"
    },
    {
      "inputs": [
        {
          "internalType": "contract IERC721",
          "name": "",
          "type": "address"
        }
      ],
      "name": "initSolds",
      "outputs": [
        {
          "internalType": "bool",
          "name": "",
          "type": "bool"
        }
      ],
      "stateMutability": "view",
      "type": "function"
    },
    {
      "inputs": [],
      "name": "nftCount",
      "outputs": [
        {
          "internalType": "uint256",
          "name": "",
          "type": "uint256"
        }
      ],
      "stateMutability": "view",
      "type": "function"
    },
    {
      "inputs": [
        {
          "internalType": "contract IERC721",
          "name": "",
          "type": "address"
        }
      ],
      "name": "nftDeployers",
      "outputs": [
        {
          "internalType": "address",
          "name": "deployer",
          "type": "address"
        },
        {
          "internalType": "uint256",
          "name": "staking",
          "type": "uint256"
        },
        {
          "internalType": "uint256",
          "name": "fee",
          "type": "uint256"
        }
      ],
      "stateMutability": "view",
      "type": "function"
    },
    {
      "inputs": [
        {
          "internalType": "uint256",
          "name": "",
          "type": "uint256"
        }
      ],
      "name": "nfts",
      "outputs": [
        {
          "internalType": "address",
          "name": "",
          "type": "address"
        }
      ],
      "stateMutability": "view",
      "type": "function"
    },
    {
      "inputs": [
        {
          "internalType": "contract IERC721",
          "name": "nft",
          "type": "address"
        },
        {
          "internalType": "uint256",
          "name": "nftId",
          "type": "uint256"
        },
        {
          "internalType": "uint256",
          "name": "price",
          "type": "uint256"
        }
      ],
      "name": "offer",
      "outputs": [
        {
          "internalType": "uint256",
          "name": "offerId",
          "type": "uint256"
        }
      ],
      "stateMutability": "nonpayable",
      "type": "function"
    },
    {
      "inputs": [
        {
          "internalType": "contract IERC721",
          "name": "nft",
          "type": "address"
        },
        {
          "internalType": "uint256",
          "name": "nftId",
          "type": "uint256"
        }
      ],
      "name": "offerCount",
      "outputs": [
        {
          "internalType": "uint256",
          "name": "",
          "type": "uint256"
        }
      ],
      "stateMutability": "view",
      "type": "function"
    },
    {
      "inputs": [
        {
          "internalType": "contract IERC721",
          "name": "",
          "type": "address"
        },
        {
          "internalType": "uint256",
          "name": "",
          "type": "uint256"
        },
        {
          "internalType": "uint256",
          "name": "",
          "type": "uint256"
        }
      ],
      "name": "offers",
      "outputs": [
        {
          "internalType": "address",
          "name": "offeror",
          "type": "address"
        },
        {
          "internalType": "uint256",
          "name": "price",
          "type": "uint256"
        }
      ],
      "stateMutability": "view",
      "type": "function"
    },
    {
      "inputs": [],
      "name": "oracle",
      "outputs": [
        {
          "internalType": "address",
          "name": "",
          "type": "address"
        }
      ],
      "stateMutability": "view",
      "type": "function"
    },
    {
      "inputs": [],
      "name": "owner",
      "outputs": [
        {
          "internalType": "address",
          "name": "",
          "type": "address"
        }
      ],
      "stateMutability": "view",
      "type": "function"
    },
    {
      "inputs": [],
      "name": "ownerFee",
      "outputs": [
        {
          "internalType": "uint256",
          "name": "",
          "type": "uint256"
        }
      ],
      "stateMutability": "view",
      "type": "function"
    },
    {
      "inputs": [],
      "name": "ownerVault",
      "outputs": [
        {
          "internalType": "contract ICakeOwnerVault",
          "name": "",
          "type": "address"
        }
      ],
      "stateMutability": "view",
      "type": "function"
    },
    {
      "inputs": [
        {
          "internalType": "contract IERC721",
          "name": "",
          "type": "address"
        },
        {
          "internalType": "uint256",
          "name": "",
          "type": "uint256"
        }
      ],
      "name": "pointsCorrection",
      "outputs": [
        {
          "internalType": "int256",
          "name": "",
          "type": "int256"
        }
      ],
      "stateMutability": "view",
      "type": "function"
    },
    {
      "inputs": [],
      "name": "renounceOwnership",
      "outputs": [],
      "stateMutability": "nonpayable",
      "type": "function"
    },
    {
      "inputs": [
        {
          "internalType": "contract IERC721",
          "name": "",
          "type": "address"
        },
        {
          "internalType": "uint256",
          "name": "",
          "type": "uint256"
        }
      ],
      "name": "sales",
      "outputs": [
        {
          "internalType": "address",
          "name": "seller",
          "type": "address"
        },
        {
          "internalType": "uint256",
          "name": "price",
          "type": "uint256"
        }
      ],
      "stateMutability": "view",
      "type": "function"
    },
    {
      "inputs": [
        {
          "internalType": "contract IERC721",
          "name": "nft",
          "type": "address"
        },
        {
          "internalType": "uint256",
          "name": "nftId",
          "type": "uint256"
        },
        {
          "internalType": "uint256",
          "name": "price",
          "type": "uint256"
        }
      ],
      "name": "sell",
      "outputs": [],
      "stateMutability": "nonpayable",
      "type": "function"
    },
    {
      "inputs": [
        {
          "internalType": "contract ICakeNFT",
          "name": "nft",
          "type": "address"
        },
        {
          "internalType": "uint256",
          "name": "nftId",
          "type": "uint256"
        },
        {
          "internalType": "uint256",
          "name": "price",
          "type": "uint256"
        },
        {
          "internalType": "uint256",
          "name": "deadline",
          "type": "uint256"
        },
        {
          "internalType": "uint8",
          "name": "v",
          "type": "uint8"
        },
        {
          "internalType": "bytes32",
          "name": "r",
          "type": "bytes32"
        },
        {
          "internalType": "bytes32",
          "name": "s",
          "type": "bytes32"
        }
      ],
      "name": "sellWithPermit",
      "outputs": [],
      "stateMutability": "nonpayable",
      "type": "function"
    },
    {
      "inputs": [
        {
          "internalType": "contract ICakeNFT",
          "name": "nft",
          "type": "address"
        },
        {
          "internalType": "uint256",
          "name": "staking",
          "type": "uint256"
        },
        {
          "internalType": "uint256",
          "name": "fee",
          "type": "uint256"
        }
      ],
      "name": "set",
      "outputs": [],
      "stateMutability": "nonpayable",
      "type": "function"
    },
    {
      "inputs": [
        {
          "internalType": "contract IERC721",
          "name": "nft",
          "type": "address"
        },
        {
          "internalType": "address",
          "name": "deployer",
          "type": "address"
        },
        {
          "internalType": "uint256",
          "name": "staking",
          "type": "uint256"
        },
        {
          "internalType": "uint256",
          "name": "fee",
          "type": "uint256"
        },
        {
          "internalType": "bytes",
          "name": "signature",
          "type": "bytes"
        }
      ],
      "name": "setNFTDeployer",
      "outputs": [],
      "stateMutability": "nonpayable",
      "type": "function"
    },
    {
      "inputs": [
        {
          "internalType": "address",
          "name": "_oracle",
          "type": "address"
        }
      ],
      "name": "setOracle",
      "outputs": [],
      "stateMutability": "nonpayable",
      "type": "function"
    },
    {
      "inputs": [
        {
          "internalType": "uint256",
          "name": "fee",
          "type": "uint256"
        }
      ],
      "name": "setOwnerFee",
      "outputs": [],
      "stateMutability": "nonpayable",
      "type": "function"
    },
    {
      "inputs": [
        {
          "internalType": "contract IERC721",
          "name": "",
          "type": "address"
        },
        {
          "internalType": "uint256",
          "name": "",
          "type": "uint256"
        }
      ],
      "name": "stakedCakeBalances",
      "outputs": [
        {
          "internalType": "uint256",
          "name": "",
          "type": "uint256"
        }
      ],
      "stateMutability": "view",
      "type": "function"
    },
    {
      "inputs": [],
      "name": "totalStakedCakeBalance",
      "outputs": [
        {
          "internalType": "uint256",
          "name": "",
          "type": "uint256"
        }
      ],
      "stateMutability": "view",
      "type": "function"
    },
    {
      "inputs": [
        {
          "internalType": "contract IERC721",
          "name": "",
          "type": "address"
        }
      ],
      "name": "totalTradingVolumes",
      "outputs": [
        {
          "internalType": "uint256",
          "name": "",
          "type": "uint256"
        }
      ],
      "stateMutability": "view",
      "type": "function"
    },
    {
      "inputs": [
        {
          "internalType": "address",
          "name": "newOwner",
          "type": "address"
        }
      ],
      "name": "transferOwnership",
      "outputs": [],
      "stateMutability": "nonpayable",
      "type": "function"
    },
    {
      "inputs": [
        {
          "internalType": "contract IUserMintNFT",
          "name": "nft",
          "type": "address"
        }
      ],
      "name": "userMint",
      "outputs": [
        {
          "internalType": "uint256",
          "name": "id",
          "type": "uint256"
        }
      ],
      "stateMutability": "nonpayable",
      "type": "function"
    },
    {
      "inputs": [],
      "name": "vault",
      "outputs": [
        {
          "internalType": "contract ICakeVault",
          "name": "",
          "type": "address"
        }
      ],
      "stateMutability": "view",
      "type": "function"
    }
  ],
  "bytecode": "0x61010060405260006001556000600255600060045560fa6008553480156200002657600080fd5b5060405162003c5338038062003c538339810160408190526200004991620000fc565b84846200005633620000ac565b606091821b6001600160601b031990811660805290821b811660a05293811b841660c0529190911b90911660e052600780546001600160a01b0319166001600160a01b0390921691909117905550620001959050565b600080546001600160a01b038381166001600160a01b0319831681178455604051919092169283917f8be0079c531659141344cd1fd0a4f28419497f9722a3daafe3b4186f6b6457e09190a35050565b600080600080600060a086880312156200011557600080fd5b855162000122816200017c565b602087015190955062000135816200017c565b604087015190945062000148816200017c565b60608701519093506200015b816200017c565b60808701519092506200016e816200017c565b809150509295509295909350565b6001600160a01b03811681146200019257600080fd5b50565b60805160601c60a05160601c60c05160601c60e05160601c6139ad620002a66000396000818161081f0152818161091701528181610e89015281816110c401528181611157015281816114a001528181611c2401528181611cb701526124090152600081816103bd01528181612c990152612d2c01526000818161037e01528181612ac8015281816130670152818161326601526132f90152600081816107740152818161098801528181610f0901528181610ff3015281816110970152818161173701528181611b5501528181611bf7015281816121050152818161284a01528181612a2a01528181612c6c01528181612e0701528181612f0c015281816130e2015261323901526139ad6000f3fe608060405234801561001057600080fd5b50600436106102955760003560e01c806374a4605011610167578063baa283d3116100ce578063e3b4367711610087578063e3b4367714610796578063f2fde38b146107a9578063f7372ea0146107bc578063fa9f83c7146107cf578063fbf0ade114610807578063fbfa77cf1461081a57600080fd5b8063baa283d31461070d578063bd6d630614610720578063c8cfe2c914610740578063cce7ec1314610753578063d5b2a01a14610766578063dce174841461076f57600080fd5b80638da5cb5b116101205780638da5cb5b1461063d578063968a4f221461064e5780639eebfb2614610686578063a11269e514610699578063a53b9eea146106c4578063aad3ec96146106fa57600080fd5b806374a46050146105a85780637adbf973146105bb5780637dc0d1d0146105ce5780638308d7e9146105e1578063859b97fe146105f45780638c64628c1461060757600080fd5b806337afaf491161020b5780634dd6c8de116101c45780634dd6c8de146104f15780635419258d1461051c5780635b2e221b1461054f5780635f102f9c1461057a5780636a2724621461058d578063715018a6146105a057600080fd5b806337afaf49146103f25780633a1c83ac146104285780633c6fc8171461047457806344f91c1e14610487578063453e93e5146104cb5780634c33aa2e146104de57600080fd5b80630f41ba4b1161025d5780630f41ba4b1461034057806314738d3b1461035357806316f3a95b146103665780631d1dc6971461037957806320e57371146103b8578063265aa621146103df57600080fd5b80630a00e5461461029a5780630af2c6ca146102fd5780630affa6f11461030f5780630e030d6a146103185780630ed23e781461032d575b600080fd5b6102d36102a83660046134aa565b6009602052600090815260409020805460018201546002909201546001600160a01b03909116919083565b604080516001600160a01b0390941684526020840192909252908201526060015b60405180910390f35b600b545b6040519081526020016102f4565b61030160025481565b61032b61032636600461350d565b610841565b005b61032b61033b366004613616565b610a64565b61030161034e36600461350d565b610d69565b610301610361366004613700565b611212565b61032b610374366004613700565b611253565b6103a07f000000000000000000000000000000000000000000000000000000000000000081565b6040516001600160a01b0390911681526020016102f4565b6103a07f000000000000000000000000000000000000000000000000000000000000000081565b6103a06103ed366004613767565b61134d565b610301610400366004613700565b6001600160a01b03919091166000908152600e60209081526040808320938352929052205490565b610466610436366004613700565b600d602090815260009283526040808420909152908252902080546001909101546001600160a01b039091169082565b6040516102f49291906137bd565b61032b61048236600461350d565b611377565b6102d3610495366004613700565b600f6020908152600092835260408084209091529082529020805460018201546002909201546001600160a01b03909116919083565b6104666104d936600461350d565b611547565b61032b6104ec3660046135b1565b61159b565b6103016104ff366004613700565b600660209081526000928352604080842090915290825290205481565b61053f61052a3660046134aa565b600a6020526000908152604090205460ff1681565b60405190151581526020016102f4565b61030161055d366004613700565b600360209081526000928352604080842090915290825290205481565b6103016105883660046134aa565b61162d565b61032b61059b36600461350d565b611893565b61032b611a6d565b6103016105b636600461350d565b611aa3565b61032b6105c93660046134aa565b611d58565b6007546103a0906001600160a01b031681565b61032b6105ef36600461350d565b611da4565b61032b610602366004613700565b611f22565b610301610615366004613700565b6001600160a01b03919091166000908152601060209081526040808320938352929052205490565b6000546001600160a01b03166103a0565b61053f61065c366004613700565b6001600160a01b039182166000908152600f60209081526040808320938352929052205416151590565b61032b610694366004613700565b612051565b6103016106a7366004613700565b600560209081526000928352604080842090915290825290205481565b6103016106d2366004613700565b6001600160a01b03919091166000908152600660209081526040808320938352929052205490565b61032b610708366004613700565b612217565b61032b61071b36600461372c565b6124e0565b61030161072e3660046134aa565b600c6020526000908152604090205481565b61032b61074e366004613542565b6126c4565b61032b610761366004613700565b612758565b61030160085481565b6103a07f000000000000000000000000000000000000000000000000000000000000000081565b6104666107a436600461350d565b612940565b61032b6107b73660046134aa565b612968565b6103016107ca366004613700565b612a03565b61053f6107dd366004613700565b6001600160a01b039182166000908152600d60209081526040808320938352929052205416151590565b61032b610815366004613767565b612c06565b6103a07f000000000000000000000000000000000000000000000000000000000000000081565b6001600160a01b0383166000908152600e602090815260408083208584529091528120805490919082908490811061087b5761087b613936565b60009182526020918290206040805180820190915260029092020180546001600160a01b031680835260019091015492820192909252915033146108be57600080fd5b602081015182548390859081106108d7576108d7613936565b6000918252602082206002919091020180546001600160a01b031916815560010155604051632e1a7d4d60e01b8152600481018290526001600160a01b037f00000000000000000000000000000000000000000000000000000000000000001690632e1a7d4d90602401600060405180830381600087803b15801561095b57600080fd5b505af115801561096f573d6000803e3d6000fd5b505060405163a9059cbb60e01b81526001600160a01b037f000000000000000000000000000000000000000000000000000000000000000016925063a9059cbb91506109c190339085906004016137bd565b602060405180830381600087803b1580156109db57600080fd5b505af11580156109ef573d6000803e3d6000fd5b505050506040513d601f19601f82011682018060405250810190610a1391906134eb565b5081516040516001600160a01b03918216815285918791908916907f1a99e8401ad0f5c42a44ff151af1dd043e4abef0362617d113662727868e64ce906020015b60405180910390a4505050505050565b8051604114610aba5760405162461bcd60e51b815260206004820152601860248201527f696e76616c6964207369676e6174757265206c656e677468000000000000000060448201526064015b60405180910390fd5b6040516bffffffffffffffffffffffff1933606090811b8216602084015287811b8216603484015286901b166048820152605c8101849052607c8101839052600090609c0160408051601f198184030181529082905280516020918201207f19457468657265756d205369676e6564204d6573736167653a0a33320000000091830191909152603c82018190529150605c0160408051601f19818403018152918152815160209283012091840151908401516060850151929350909160001a601b811015610b9057610b8d601b82613864565b90505b8060ff16601b1480610ba557508060ff16601c145b610bf15760405162461bcd60e51b815260206004820152601960248201527f696e76616c6964207369676e61747572652076657273696f6e000000000000006044820152606401610ab1565b60075460408051600081526020810180835287905260ff84169181019190915260608101859052608081018490526001600160a01b039091169060019060a0016020604051602081039080840390855afa158015610c53573d6000803e3d6000fd5b505050602060405103516001600160a01b031614610c7057600080fd5b6103e88710158015610c8457506127108711155b8015610c9257506103e88611155b610c9b57600080fd5b6001600160a01b038981166000908152600960205260409020541615610d0757600b80546001810182556000919091527f0175b7a638427703f0dbe7bb9bbf987a2551717b34e79f33b5b1008d1fa01db90180546001600160a01b0319166001600160a01b038b161790555b5050604080516060810182526001600160a01b0397881681526020808201978852818301968752988816600090815260099099529720965187546001600160a01b03191696169590951786555050905160018401555160029092019190915550565b6001600160a01b038084166000908152600f60209081526040808320868452825280832081516060810183528154909516808652600182015493860193909352600201549084015290919015801590610dc55750806040015143105b610dce57600080fd5b6001600160a01b038516600090815260106020908152604080832087845290915290208054925082610e10578382602001511115610e0b57600080fd5b610f95565b600081610e1e600186613909565b81548110610e2e57610e2e613936565b60009182526020918290206040805180820190915260029092020180546001600160a01b031682526001015491810182905291508511610e6d57600080fd5b6020810151604051632e1a7d4d60e01b815260048101919091527f00000000000000000000000000000000000000000000000000000000000000006001600160a01b031690632e1a7d4d90602401600060405180830381600087803b158015610ed557600080fd5b505af1158015610ee9573d6000803e3d6000fd5b50508251602084015160405163a9059cbb60e01b81526001600160a01b037f000000000000000000000000000000000000000000000000000000000000000016945063a9059cbb9350610f409291906004016137bd565b602060405180830381600087803b158015610f5a57600080fd5b505af1158015610f6e573d6000803e3d6000fd5b505050506040513d601f19601f82011682018060405250810190610f9291906134eb565b50505b6040805180820182523380825260208083018881528554600180820188556000888152939093209451600290910290940180546001600160a01b0319166001600160a01b03958616178155905191015591516323b872dd60e01b81527f0000000000000000000000000000000000000000000000000000000000000000909116916323b872dd9161102d919030908990600401613799565b602060405180830381600087803b15801561104757600080fd5b505af115801561105b573d6000803e3d6000fd5b505050506040513d601f19601f8201168201806040525081019061107f91906134eb565b5060405163095ea7b360e01b81526001600160a01b037f0000000000000000000000000000000000000000000000000000000000000000169063095ea7b3906110ee907f00000000000000000000000000000000000000000000000000000000000000009088906004016137bd565b602060405180830381600087803b15801561110857600080fd5b505af115801561111c573d6000803e3d6000fd5b505050506040513d601f19601f8201168201806040525081019061114091906134eb565b5060405163b6b55f2560e01b8152600481018590527f00000000000000000000000000000000000000000000000000000000000000006001600160a01b03169063b6b55f2590602401600060405180830381600087803b1580156111a357600080fd5b505af11580156111b7573d6000803e3d6000fd5b50505050336001600160a01b031685876001600160a01b03167f7f863cab1b412077be133ef69af7df0e6aca4c67ff7d89db843d601f124a025d8760405161120191815260200190565b60405180910390a450509392505050565b6001600160a01b03821660009081526006602090815260408083208484529091528120546112408484612a03565b61124a9190613909565b90505b92915050565b6001600160a01b038083166000908152600d602090815260408083208584529091529020541633811461128557600080fd5b6040516323b872dd60e01b81526001600160a01b038416906323b872dd906112b590309085908790600401613799565b600060405180830381600087803b1580156112cf57600080fd5b505af11580156112e3573d6000803e3d6000fd5b5050506001600160a01b0384166000818152600d6020908152604080832087845290915280822080546001600160a01b0319168155600101829055513393508592917fc14de1e0640c6a4e914f570610341c22dcf6a3a940582f767b41c8802a94b4b491a4505050565b600b818154811061135d57600080fd5b6000918252602090912001546001600160a01b0316905081565b6001600160a01b0383166000908152600e60209081526040808320858452909152812080549091908290849081106113b1576113b1613936565b6000918252602091829020604080518082018252600290930290910180546001600160a01b039081168085526001909201549484019490945290516323b872dd60e01b8152919350918716916323b872dd916114139133918990600401613799565b600060405180830381600087803b15801561142d57600080fd5b505af1158015611441573d6000803e3d6000fd5b5050505060008160200151905082848154811061146057611460613936565b6000918252602082206002919091020180546001600160a01b031916815560010155604051632e1a7d4d60e01b8152600481018290526001600160a01b037f00000000000000000000000000000000000000000000000000000000000000001690632e1a7d4d90602401600060405180830381600087803b1580156114e457600080fd5b505af11580156114f8573d6000803e3d6000fd5b5050505061150886863384612c35565b604051338152849086906001600160a01b038916907f464e2668c1227b2db98a77a3752380089500f8cd3e641a33e0aa2437c978a1a990602001610a54565b6010602052826000526040600020602052816000526040600020818154811061156f57600080fd5b6000918252602090912060029091020180546001909101546001600160a01b0390911693509150839050565b604051637ac2ff7b60e01b8152306004820152602481018790526044810185905260ff841660648201526084810183905260a481018290526001600160a01b03881690637ac2ff7b9060c401600060405180830381600087803b15801561160157600080fd5b505af1158015611615573d6000803e3d6000fd5b50505050611624878787611893565b50505050505050565b600080826001600160a01b0316636817c76c6040518163ffffffff1660e01b815260040160206040518083038186803b15801561166957600080fd5b505afa15801561167d573d6000803e3d6000fd5b505050506040513d601f19601f820116820180604052508101906116a19190613780565b6040516335313c2160e11b81523360048201529091506001600160a01b03841690636a62784290602401602060405180830381600087803b1580156116e557600080fd5b505af11580156116f9573d6000803e3d6000fd5b505050506040513d601f19601f8201168201806040525081019061171d9190613780565b6040516323b872dd60e01b81529092506001600160a01b037f000000000000000000000000000000000000000000000000000000000000000016906323b872dd9061177090339030908690600401613799565b602060405180830381600087803b15801561178a57600080fd5b505af115801561179e573d6000803e3d6000fd5b505050506040513d601f19601f820116820180604052508101906117c291906134eb565b5061183f8383856001600160a01b031663d5f394886040518163ffffffff1660e01b815260040160206040518083038186803b15801561180157600080fd5b505afa158015611815573d6000803e3d6000fd5b505050506040513d601f19601f8201168201806040525081019061183991906134ce565b84612c35565b336001600160a01b031682846001600160a01b03167f6b7718bbd8461683e1304f0e70287ff54fd29521002870719e04d687ae4318be8460405161188591815260200190565b60405180910390a450919050565b6001600160a01b038084166000908152600960205260409020548491166118b957600080fd5b6040516331a9108f60e11b81526004810184905233906001600160a01b03861690636352211e9060240160206040518083038186803b1580156118fb57600080fd5b505afa15801561190f573d6000803e3d6000fd5b505050506040513d601f19601f8201168201806040525081019061193391906134ce565b6001600160a01b031614801561197157506001600160a01b038481166000908152600f60209081526040808320878452909152902054161515600114155b61197a57600080fd5b6040516323b872dd60e01b81526001600160a01b038516906323b872dd906119aa90339030908890600401613799565b600060405180830381600087803b1580156119c457600080fd5b505af11580156119d8573d6000803e3d6000fd5b50506040805180820182523380825260208083018881526001600160a01b038b81166000818152600d85528781208d82528552879020955186546001600160a01b03191692169190911785559051600190940193909355925187815290945087935090917f463904c4b0359ad674399537c3d4e4e44acc0b0dd259453d17329fd9b4be52c0910160405180910390a450505050565b6000546001600160a01b03163314611a975760405162461bcd60e51b8152600401610ab1906137d6565b611aa16000612ff9565b565b6001600160a01b038084166000908152600960205260408120549091859116611acb57600080fd5b60008311611ad857600080fd5b6001600160a01b038581166000908152600e602090815260408083208884528252808320805482518084018452338082528186018b8152600180850186558589529690972091516002840290920180546001600160a01b031916928916929092178255955194019390935590516323b872dd60e01b8152919550927f000000000000000000000000000000000000000000000000000000000000000016916323b872dd91611b8d919030908990600401613799565b602060405180830381600087803b158015611ba757600080fd5b505af1158015611bbb573d6000803e3d6000fd5b505050506040513d601f19601f82011682018060405250810190611bdf91906134eb565b5060405163095ea7b360e01b81526001600160a01b037f0000000000000000000000000000000000000000000000000000000000000000169063095ea7b390611c4e907f00000000000000000000000000000000000000000000000000000000000000009088906004016137bd565b602060405180830381600087803b158015611c6857600080fd5b505af1158015611c7c573d6000803e3d6000fd5b505050506040513d601f19601f82011682018060405250810190611ca091906134eb565b5060405163b6b55f2560e01b8152600481018590527f00000000000000000000000000000000000000000000000000000000000000006001600160a01b03169063b6b55f2590602401600060405180830381600087803b158015611d0357600080fd5b505af1158015611d17573d6000803e3d6000fd5b505050508285876001600160a01b03167f3498cca8289a0669e68756645378ec9f14f109147d58fc24e0bbbca63969ac2a33886040516112019291906137bd565b6000546001600160a01b03163314611d825760405162461bcd60e51b8152600401610ab1906137d6565b600780546001600160a01b0319166001600160a01b0392909216919091179055565b336001600160a01b0316836001600160a01b031663d5f394886040518163ffffffff1660e01b815260040160206040518083038186803b158015611de757600080fd5b505afa158015611dfb573d6000803e3d6000fd5b505050506040513d601f19601f82011682018060405250810190611e1f91906134ce565b6001600160a01b0316148015611e3757506103e88210155b8015611e4557506127108211155b8015611e5357506103e88111155b611e5c57600080fd5b6001600160a01b038381166000908152600960205260409020541615611ec857600b80546001810182556000919091527f0175b7a638427703f0dbe7bb9bbf987a2551717b34e79f33b5b1008d1fa01db90180546001600160a01b0319166001600160a01b0385161790555b6040805160608101825233815260208082019485528183019384526001600160a01b039586166000908152600990915291909120905181546001600160a01b03191694169390931783559051600183015551600290910155565b6001600160a01b038216600090815260106020908152604080832084845290915290205415611f5057600080fd5b6001600160a01b038083166000908152600f6020908152604080832085845290915290205416338114611f8257600080fd5b6040516323b872dd60e01b81526001600160a01b038416906323b872dd90611fb290309085908790600401613799565b600060405180830381600087803b158015611fcc57600080fd5b505af1158015611fe0573d6000803e3d6000fd5b5050506001600160a01b0384166000818152600f6020908152604080832087845290915280822080546001600160a01b031916815560018101839055600201829055513393508592917f26d4510b556e779d6507640413e013206e44c8f5d018c7c74ed8926f3f024a9c91a4505050565b612059613049565b600061206583836131ec565b90508015612212576001600160a01b0383166000908152600660209081526040808320858452909152812080548392906120a090849061384c565b9091555050604051818152339083906001600160a01b038616907ff371029fbeb9d5ccc35b0e98232fa84414b7f053cebed0eb401b6640fbf9716c9060200160405180910390a46040516331a9108f60e11b8152600481018390526001600160a01b037f000000000000000000000000000000000000000000000000000000000000000081169163a9059cbb91861690636352211e9060240160206040518083038186803b15801561215157600080fd5b505afa158015612165573d6000803e3d6000fd5b505050506040513d601f19601f8201168201806040525081019061218991906134ce565b836040518363ffffffff1660e01b81526004016121a79291906137bd565b602060405180830381600087803b1580156121c157600080fd5b505af11580156121d5573d6000803e3d6000fd5b505050506040513d601f19601f820116820180604052508101906121f991906134eb565b50806001600082825461220c9190613909565b90915550505b505050565b6001600160a01b038083166000818152600f602090815260408083208684528252808320815160608101835281549096168652600181015486840152600201548582015292825260108152828220858352815282822080548451818402810184019095528085529293929091849084015b828210156122d0576000848152602090819020604080518082019091526002850290910180546001600160a01b03168252600190810154828401529083529092019101612288565b505050509050600081600183516122e79190613909565b815181106122f7576122f7613936565b60200260200101519050336001600160a01b031681600001516001600160a01b031614801561232a575082604001514310155b61233357600080fd5b6001600160a01b0385166000818152600f60209081526040808320888452825280832080546001600160a01b03191681556001810184905560020183905592825260108152828220878352905290812061238c9161344e565b6040516323b872dd60e01b81526001600160a01b038616906323b872dd906123bc90309033908990600401613799565b600060405180830381600087803b1580156123d657600080fd5b505af11580156123ea573d6000803e3d6000fd5b5050506020820151604051632e1a7d4d60e01b81526001600160a01b037f0000000000000000000000000000000000000000000000000000000000000000169250632e1a7d4d916124419160040190815260200190565b600060405180830381600087803b15801561245b57600080fd5b505af115801561246f573d6000803e3d6000fd5b50505050612487858585600001518460200151612c35565b336001600160a01b031684866001600160a01b03167fad03f837a9207e368d73ec028e1f54428184da8cfea258cc116da2225f3ac5eb84602001516040516124d191815260200190565b60405180910390a45050505050565b6001600160a01b0380851660009081526009602052604090205485911661250657600080fd5b6040516331a9108f60e11b81526004810185905233906001600160a01b03871690636352211e9060240160206040518083038186803b15801561254857600080fd5b505afa15801561255c573d6000803e3d6000fd5b505050506040513d601f19601f8201168201806040525081019061258091906134ce565b6001600160a01b03161480156125be57506001600160a01b038581166000908152600d60209081526040808320888452909152902054161515600114155b6125c757600080fd5b6040516323b872dd60e01b81526001600160a01b038616906323b872dd906125f790339030908990600401613799565b600060405180830381600087803b15801561261157600080fd5b505af1158015612625573d6000803e3d6000fd5b5050604080516060810182523380825260208083018981528385018981526001600160a01b038d81166000818152600f86528881208f82528652889020965187546001600160a01b03191692169190911786559151600186015551600290940193909355835189815290810188905290945088935090917f9b80d6af20a468c7a9f15b75aac831f1f047746133d24ee55cd289442114a99091016124d1565b604051637ac2ff7b60e01b8152306004820152602481018890526044810185905260ff841660648201526084810183905260a481018290526001600160a01b03891690637ac2ff7b9060c401600060405180830381600087803b15801561272a57600080fd5b505af115801561273e573d6000803e3d6000fd5b5050505061274e888888886124e0565b5050505050505050565b6001600160a01b038083166000908152600d602090815260408083208584528252918290208251808401909352805490931680835260019093015490820152906127a157600080fd5b6001600160a01b0383166000818152600d6020908152604080832086845290915280822080546001600160a01b031916815560010191909155516323b872dd60e01b81526323b872dd906127fd90309033908790600401613799565b600060405180830381600087803b15801561281757600080fd5b505af115801561282b573d6000803e3d6000fd5b50505060208201516040516323b872dd60e01b81526001600160a01b037f00000000000000000000000000000000000000000000000000000000000000001692506323b872dd916128829133913091600401613799565b602060405180830381600087803b15801561289c57600080fd5b505af11580156128b0573d6000803e3d6000fd5b505050506040513d601f19601f820116820180604052508101906128d491906134eb565b506128e9838383600001518460200151612c35565b336001600160a01b031682846001600160a01b03167fa76261e4127b2ebc809716d704216602fdaee4ae5b72745ed9aec0d7bd73b75d846020015160405161293391815260200190565b60405180910390a4505050565b600e602052826000526040600020602052816000526040600020818154811061156f57600080fd5b6000546001600160a01b031633146129925760405162461bcd60e51b8152600401610ab1906137d6565b6001600160a01b0381166129f75760405162461bcd60e51b815260206004820152602660248201527f4f776e61626c653a206e6577206f776e657220697320746865207a65726f206160448201526564647265737360d01b6064820152608401610ab1565b612a0081612ff9565b50565b6004546002546000919015612bfc576040516370a0823160e01b81523060048201526000907f00000000000000000000000000000000000000000000000000000000000000006001600160a01b0316906370a082319060240160206040518083038186803b158015612a7457600080fd5b505afa158015612a88573d6000803e3d6000fd5b505050506040513d601f19601f82011682018060405250810190612aac9190613780565b604051631175a1dd60e01b8152600060048201523060248201527f00000000000000000000000000000000000000000000000000000000000000006001600160a01b031690631175a1dd9060440160206040518083038186803b158015612b1257600080fd5b505afa158015612b26573d6000803e3d6000fd5b505050506040513d601f19601f82011682018060405250810190612b4a9190613780565b612b54919061384c565b9050600060015482612b669190613909565b90508015612b9657600254612b7f600160801b836138ab565b612b899190613889565b612b93908461384c565b92505b6001600160a01b038616600081815260056020908152604080832089845282528083205493835260038252808320898452909152902054600160801b9190612bde90866138ab565b612be8919061380b565b612bf29190613889565b935050505061124d565b5060009392505050565b6000546001600160a01b03163314612c305760405162461bcd60e51b8152600401610ab1906137d6565b600855565b600061271060085483612c4891906138ab565b612c529190613889565b60405163095ea7b360e01b81529091506001600160a01b037f0000000000000000000000000000000000000000000000000000000000000000169063095ea7b390612cc3907f00000000000000000000000000000000000000000000000000000000000000009085906004016137bd565b602060405180830381600087803b158015612cdd57600080fd5b505af1158015612cf1573d6000803e3d6000fd5b505050506040513d601f19601f82011682018060405250810190612d1591906134eb565b5060405163b6b55f2560e01b8152600481018290527f00000000000000000000000000000000000000000000000000000000000000006001600160a01b03169063b6b55f2590602401600060405180830381600087803b158015612d7857600080fd5b505af1158015612d8c573d6000803e3d6000fd5b505050506001600160a01b03858116600090815260096020908152604080832081516060810183528154909516855260018101549285019290925260029091015490830181905261271090612de190866138ab565b612deb9190613889565b825160405163a9059cbb60e01b81529192506001600160a01b037f0000000000000000000000000000000000000000000000000000000000000000169163a9059cbb91612e3c9185906004016137bd565b602060405180830381600087803b158015612e5657600080fd5b505af1158015612e6a573d6000803e3d6000fd5b505050506040513d601f19601f82011682018060405250810190612e8e91906134eb565b506001600160a01b0387166000908152600a602052604081205460ff161515600114612f0257612710836020015186612ec791906138ab565b612ed19190613889565b9050612ede88888361321a565b6001600160a01b0388166000908152600a60205260409020805460ff191660011790555b6001600160a01b037f00000000000000000000000000000000000000000000000000000000000000001663a9059cbb878385612f3e898b613909565b612f489190613909565b612f529190613909565b6040518363ffffffff1660e01b8152600401612f6f9291906137bd565b602060405180830381600087803b158015612f8957600080fd5b505af1158015612f9d573d6000803e3d6000fd5b505050506040513d601f19601f82011682018060405250810190612fc191906134eb565b506001600160a01b0388166000908152600c602052604081208054879290612fea90849061384c565b90915550505050505050505050565b600080546001600160a01b038381166001600160a01b0319831681178455604051919092169283917f8be0079c531659141344cd1fd0a4f28419497f9722a3daafe3b4186f6b6457e09190a35050565b60025415611aa157604051631058d28160e01b8152600060048201527f00000000000000000000000000000000000000000000000000000000000000006001600160a01b031690631058d28190602401600060405180830381600087803b1580156130b357600080fd5b505af11580156130c7573d6000803e3d6000fd5b50506040516370a0823160e01b8152306004820152600092507f00000000000000000000000000000000000000000000000000000000000000006001600160a01b031691506370a082319060240160206040518083038186803b15801561312d57600080fd5b505afa158015613141573d6000803e3d6000fd5b505050506040513d601f19601f820116820180604052508101906131659190613780565b90506000600154826131779190613909565b905080156131e657600254613190600160801b836138ab565b61319a9190613889565b600460008282546131ab919061384c565b909155505060405181815233907f7e3443847968b8ae43a305870aa25aa7fc542ea63833182a4b715b3f82cd01619060200160405180910390a25b50600155565b6001600160a01b038216600090815260066020908152604080832084845290915281205461124084846133ed565b613222613049565b60405163095ea7b360e01b81526001600160a01b037f0000000000000000000000000000000000000000000000000000000000000000169063095ea7b390613290907f00000000000000000000000000000000000000000000000000000000000000009085906004016137bd565b602060405180830381600087803b1580156132aa57600080fd5b505af11580156132be573d6000803e3d6000fd5b505050506040513d601f19601f820116820180604052508101906132e291906134eb565b506040516341441d3b60e01b8152600481018290527f00000000000000000000000000000000000000000000000000000000000000006001600160a01b0316906341441d3b90602401600060405180830381600087803b15801561334557600080fd5b505af1158015613359573d6000803e3d6000fd5b50505050806002600082825461336f919061384c565b90915550506001600160a01b0383166000908152600360209081526040808320858452909152812080548392906133a790849061384c565b90915550506004546133ba9082906138ab565b6001600160a01b03841660009081526005602090815260408083208684529091528120805490919061220c9084906138ca565b6001600160a01b0382166000818152600560209081526040808320858452825280832054938352600382528083208584529091528120546004549192600160801b92909161343a916138ab565b613444919061380b565b61124a9190613889565b5080546000825560020290600052602060002090810190612a0091905b808211156134905780546001600160a01b03191681556000600182015560020161346b565b5090565b803560ff811681146134a557600080fd5b919050565b6000602082840312156134bc57600080fd5b81356134c781613962565b9392505050565b6000602082840312156134e057600080fd5b81516134c781613962565b6000602082840312156134fd57600080fd5b815180151581146134c757600080fd5b60008060006060848603121561352257600080fd5b833561352d81613962565b95602085013595506040909401359392505050565b600080600080600080600080610100898b03121561355f57600080fd5b883561356a81613962565b97506020890135965060408901359550606089013594506080890135935061359460a08a01613494565b925060c0890135915060e089013590509295985092959890939650565b600080600080600080600060e0888a0312156135cc57600080fd5b87356135d781613962565b96506020880135955060408801359450606088013593506135fa60808901613494565b925060a0880135915060c0880135905092959891949750929550565b600080600080600060a0868803121561362e57600080fd5b853561363981613962565b9450602086013561364981613962565b93506040860135925060608601359150608086013567ffffffffffffffff8082111561367457600080fd5b818801915088601f83011261368857600080fd5b81358181111561369a5761369a61394c565b604051601f8201601f19908116603f011681019083821181831017156136c2576136c261394c565b816040528281528b60208487010111156136db57600080fd5b8260208601602083013760006020848301015280955050505050509295509295909350565b6000806040838503121561371357600080fd5b823561371e81613962565b946020939093013593505050565b6000806000806080858703121561374257600080fd5b843561374d81613962565b966020860135965060408601359560600135945092505050565b60006020828403121561377957600080fd5b5035919050565b60006020828403121561379257600080fd5b5051919050565b6001600160a01b039384168152919092166020820152604081019190915260600190565b6001600160a01b03929092168252602082015260400190565b6020808252818101527f4f776e61626c653a2063616c6c6572206973206e6f7420746865206f776e6572604082015260600190565b600080821280156001600160ff1b038490038513161561382d5761382d613920565b600160ff1b839003841281161561384657613846613920565b50500190565b6000821982111561385f5761385f613920565b500190565b600060ff821660ff84168060ff0382111561388157613881613920565b019392505050565b6000826138a657634e487b7160e01b600052601260045260246000fd5b500490565b60008160001904831182151516156138c5576138c5613920565b500290565b60008083128015600160ff1b8501841216156138e8576138e8613920565b6001600160ff1b038401831381161561390357613903613920565b50500390565b60008282101561391b5761391b613920565b500390565b634e487b7160e01b600052601160045260246000fd5b634e487b7160e01b600052603260045260246000fd5b634e487b7160e01b600052604160045260246000fd5b6001600160a01b0381168114612a0057600080fdfea2646970667358221220dca34fc0452bfae5b7789233378e22db33fe38ba90566cec4223289c58400bbb64736f6c63430008050033",
  "linkReferences": {},
  "deployedLinkReferences": {}
}