{
  "_format": "hh-sol-artifact-1",
  "contractName": "CakeNFTStore",
  "sourceName": "contracts/CakeNFTStore.sol",
  "abi": [
    {
      "inputs": [
        {
          "internalType": "contract IERC20",
          "name": "_cake",
          "type": "address"
        },
        {
          "internalType": "contract ICakeStaker",
          "name": "_cakeStaker",
          "type": "address"
        },
        {
          "internalType": "contract ICakeOwnerVault",
          "name": "_ownerVault",
          "type": "address"
        },
        {
          "internalType": "contract ICakeVault",
          "name": "_vault",
          "type": "address"
        },
        {
          "internalType": "address",
          "name": "_oracle",
          "type": "address"
        }
      ],
      "stateMutability": "nonpayable",
      "type": "constructor"
    },
    {
      "anonymous": false,
      "inputs": [
        {
          "indexed": true,
          "internalType": "contract IERC721",
          "name": "nft",
          "type": "address"
        },
        {
          "indexed": true,
          "internalType": "uint256",
          "name": "nftId",
          "type": "uint256"
        },
        {
          "indexed": true,
          "internalType": "uint256",
          "name": "offerId",
          "type": "uint256"
        },
        {
          "indexed": false,
          "internalType": "address",
          "name": "acceptor",
          "type": "address"
        }
      ],
      "name": "AcceptOffer",
      "type": "event"
    },
    {
      "anonymous": false,
      "inputs": [
        {
          "indexed": true,
          "internalType": "contract IERC721",
          "name": "nft",
          "type": "address"
        },
        {
          "indexed": true,
          "internalType": "uint256",
          "name": "nftId",
          "type": "uint256"
        },
        {
          "indexed": true,
          "internalType": "address",
          "name": "owner",
          "type": "address"
        },
        {
          "indexed": false,
          "internalType": "uint256",
          "name": "startPrice",
          "type": "uint256"
        },
        {
          "indexed": false,
          "internalType": "uint256",
          "name": "endBlock",
          "type": "uint256"
        }
      ],
      "name": "Auction",
      "type": "event"
    },
    {
      "anonymous": false,
      "inputs": [
        {
          "indexed": true,
          "internalType": "contract IERC721",
          "name": "nft",
          "type": "address"
        },
        {
          "indexed": true,
          "internalType": "uint256",
          "name": "nftId",
          "type": "uint256"
        },
        {
          "indexed": true,
          "internalType": "address",
          "name": "bidder",
          "type": "address"
        },
        {
          "indexed": false,
          "internalType": "uint256",
          "name": "price",
          "type": "uint256"
        }
      ],
      "name": "Bid",
      "type": "event"
    },
    {
      "anonymous": false,
      "inputs": [
        {
          "indexed": true,
          "internalType": "contract IERC721",
          "name": "nft",
          "type": "address"
        },
        {
          "indexed": true,
          "internalType": "uint256",
          "name": "nftId",
          "type": "uint256"
        },
        {
          "indexed": true,
          "internalType": "address",
          "name": "buyer",
          "type": "address"
        },
        {
          "indexed": false,
          "internalType": "uint256",
          "name": "price",
          "type": "uint256"
        }
      ],
      "name": "Buy",
      "type": "event"
    },
    {
      "anonymous": false,
      "inputs": [
        {
          "indexed": true,
          "internalType": "contract IERC721",
          "name": "nft",
          "type": "address"
        },
        {
          "indexed": true,
          "internalType": "uint256",
          "name": "nftId",
          "type": "uint256"
        },
        {
          "indexed": true,
          "internalType": "address",
          "name": "owner",
          "type": "address"
        }
      ],
      "name": "CancelAuction",
      "type": "event"
    },
    {
      "anonymous": false,
      "inputs": [
        {
          "indexed": true,
          "internalType": "contract IERC721",
          "name": "nft",
          "type": "address"
        },
        {
          "indexed": true,
          "internalType": "uint256",
          "name": "nftId",
          "type": "uint256"
        },
        {
          "indexed": true,
          "internalType": "uint256",
          "name": "offerId",
          "type": "uint256"
        },
        {
          "indexed": false,
          "internalType": "address",
          "name": "offeror",
          "type": "address"
        }
      ],
      "name": "CancelOffer",
      "type": "event"
    },
    {
      "anonymous": false,
      "inputs": [
        {
          "indexed": true,
          "internalType": "contract IERC721",
          "name": "nft",
          "type": "address"
        },
        {
          "indexed": true,
          "internalType": "uint256",
          "name": "nftId",
          "type": "uint256"
        },
        {
          "indexed": true,
          "internalType": "address",
          "name": "owner",
          "type": "address"
        }
      ],
      "name": "CancelSale",
      "type": "event"
    },
    {
      "anonymous": false,
      "inputs": [
        {
          "indexed": true,
          "internalType": "contract IERC721",
          "name": "nft",
          "type": "address"
        },
        {
          "indexed": true,
          "internalType": "uint256",
          "name": "nftId",
          "type": "uint256"
        },
        {
          "indexed": true,
          "internalType": "address",
          "name": "bidder",
          "type": "address"
        },
        {
          "indexed": false,
          "internalType": "uint256",
          "name": "price",
          "type": "uint256"
        }
      ],
      "name": "Claim",
      "type": "event"
    },
    {
      "anonymous": false,
      "inputs": [
        {
          "indexed": true,
          "internalType": "contract IERC721",
          "name": "nft",
          "type": "address"
        },
        {
          "indexed": true,
          "internalType": "uint256",
          "name": "nftId",
          "type": "uint256"
        },
        {
          "indexed": true,
          "internalType": "address",
          "name": "to",
          "type": "address"
        },
        {
          "indexed": false,
          "internalType": "uint256",
          "name": "claimed",
          "type": "uint256"
        }
      ],
      "name": "ClaimCake",
      "type": "event"
    },
    {
      "anonymous": false,
      "inputs": [
        {
          "indexed": true,
          "internalType": "address",
          "name": "by",
          "type": "address"
        },
        {
          "indexed": false,
          "internalType": "uint256",
          "name": "distributed",
          "type": "uint256"
        }
      ],
      "name": "DistributeCake",
      "type": "event"
    },
    {
      "anonymous": false,
      "inputs": [
        {
          "indexed": true,
          "internalType": "contract IERC721",
          "name": "nft",
          "type": "address"
        },
        {
          "indexed": true,
          "internalType": "uint256",
          "name": "nftId",
          "type": "uint256"
        },
        {
          "indexed": true,
          "internalType": "uint256",
          "name": "offerId",
          "type": "uint256"
        },
        {
          "indexed": false,
          "internalType": "address",
          "name": "offeror",
          "type": "address"
        },
        {
          "indexed": false,
          "internalType": "uint256",
          "name": "price",
          "type": "uint256"
        }
      ],
      "name": "Offer",
      "type": "event"
    },
    {
      "anonymous": false,
      "inputs": [
        {
          "indexed": true,
          "internalType": "address",
          "name": "previousOwner",
          "type": "address"
        },
        {
          "indexed": true,
          "internalType": "address",
          "name": "newOwner",
          "type": "address"
        }
      ],
      "name": "OwnershipTransferred",
      "type": "event"
    },
    {
      "anonymous": false,
      "inputs": [
        {
          "indexed": true,
          "internalType": "contract IERC721",
          "name": "nft",
          "type": "address"
        },
        {
          "indexed": true,
          "internalType": "uint256",
          "name": "nftId",
          "type": "uint256"
        },
        {
          "indexed": true,
          "internalType": "address",
          "name": "owner",
          "type": "address"
        },
        {
          "indexed": false,
          "internalType": "uint256",
          "name": "price",
          "type": "uint256"
        }
      ],
      "name": "Sell",
      "type": "event"
    },
    {
      "anonymous": false,
      "inputs": [
        {
          "indexed": true,
          "internalType": "contract IERC721",
          "name": "nft",
          "type": "address"
        },
        {
          "indexed": true,
          "internalType": "uint256",
          "name": "nftId",
          "type": "uint256"
        },
        {
          "indexed": true,
          "internalType": "address",
          "name": "minter",
          "type": "address"
        },
        {
          "indexed": false,
          "internalType": "uint256",
          "name": "mintPrice",
          "type": "uint256"
        }
      ],
      "name": "UserMint",
      "type": "event"
    },
    {
      "inputs": [
        {
          "internalType": "contract IERC721",
          "name": "nft",
          "type": "address"
        },
        {
          "internalType": "uint256",
          "name": "nftId",
          "type": "uint256"
        },
        {
          "internalType": "uint256",
          "name": "offerId",
          "type": "uint256"
        }
      ],
      "name": "acceptOffer",
      "outputs": [],
      "stateMutability": "nonpayable",
      "type": "function"
    },
    {
      "inputs": [
        {
          "internalType": "contract IERC721",
          "name": "nft",
          "type": "address"
        },
        {
          "internalType": "uint256",
          "name": "nftId",
          "type": "uint256"
        }
      ],
      "name": "accumulativeCakeOf",
      "outputs": [
        {
          "internalType": "uint256",
          "name": "",
          "type": "uint256"
        }
      ],
      "stateMutability": "view",
      "type": "function"
    },
    {
      "inputs": [
        {
          "internalType": "contract IERC721",
          "name": "nft",
          "type": "address"
        },
        {
          "internalType": "uint256",
          "name": "nftId",
          "type": "uint256"
        },
        {
          "internalType": "uint256",
          "name": "startPrice",
          "type": "uint256"
        },
        {
          "internalType": "uint256",
          "name": "endBlock",
          "type": "uint256"
        }
      ],
      "name": "auction",
      "outputs": [],
      "stateMutability": "nonpayable",
      "type": "function"
    },
    {
      "inputs": [
        {
          "internalType": "contract ICakeNFT",
          "name": "nft",
          "type": "address"
        },
        {
          "internalType": "uint256",
          "name": "nftId",
          "type": "uint256"
        },
        {
          "internalType": "uint256",
          "name": "startPrice",
          "type": "uint256"
        },
        {
          "internalType": "uint256",
          "name": "endBlock",
          "type": "uint256"
        },
        {
          "internalType": "uint256",
          "name": "deadline",
          "type": "uint256"
        },
        {
          "internalType": "uint8",
          "name": "v",
          "type": "uint8"
        },
        {
          "internalType": "bytes32",
          "name": "r",
          "type": "bytes32"
        },
        {
          "internalType": "bytes32",
          "name": "s",
          "type": "bytes32"
        }
      ],
      "name": "auctionWithPermit",
      "outputs": [],
      "stateMutability": "nonpayable",
      "type": "function"
    },
    {
      "inputs": [
        {
          "internalType": "contract IERC721",
          "name": "",
          "type": "address"
        },
        {
          "internalType": "uint256",
          "name": "",
          "type": "uint256"
        }
      ],
      "name": "auctions",
      "outputs": [
        {
          "internalType": "address",
          "name": "seller",
          "type": "address"
        },
        {
          "internalType": "uint256",
          "name": "startPrice",
          "type": "uint256"
        },
        {
          "internalType": "uint256",
          "name": "endBlock",
          "type": "uint256"
        }
      ],
      "stateMutability": "view",
      "type": "function"
    },
    {
      "inputs": [
        {
          "internalType": "contract IERC721",
          "name": "nft",
          "type": "address"
        },
        {
          "internalType": "uint256",
          "name": "nftId",
          "type": "uint256"
        },
        {
          "internalType": "uint256",
          "name": "price",
          "type": "uint256"
        }
      ],
      "name": "bid",
      "outputs": [
        {
          "internalType": "uint256",
          "name": "biddingId",
          "type": "uint256"
        }
      ],
      "stateMutability": "nonpayable",
      "type": "function"
    },
    {
      "inputs": [
        {
          "internalType": "contract IERC721",
          "name": "",
          "type": "address"
        },
        {
          "internalType": "uint256",
          "name": "",
          "type": "uint256"
        },
        {
          "internalType": "uint256",
          "name": "",
          "type": "uint256"
        }
      ],
      "name": "biddings",
      "outputs": [
        {
          "internalType": "address",
          "name": "bidder",
          "type": "address"
        },
        {
          "internalType": "uint256",
          "name": "price",
          "type": "uint256"
        }
      ],
      "stateMutability": "view",
      "type": "function"
    },
    {
      "inputs": [
        {
          "internalType": "contract IERC721",
          "name": "nft",
          "type": "address"
        },
        {
          "internalType": "uint256",
          "name": "nftId",
          "type": "uint256"
        }
      ],
      "name": "buy",
      "outputs": [],
      "stateMutability": "nonpayable",
      "type": "function"
    },
    {
      "inputs": [],
      "name": "cake",
      "outputs": [
        {
          "internalType": "contract IERC20",
          "name": "",
          "type": "address"
        }
      ],
      "stateMutability": "view",
      "type": "function"
    },
    {
      "inputs": [],
      "name": "cakeStaker",
      "outputs": [
        {
          "internalType": "contract ICakeStaker",
          "name": "",
          "type": "address"
        }
      ],
      "stateMutability": "view",
      "type": "function"
    },
    {
      "inputs": [
        {
          "internalType": "contract IERC721",
          "name": "nft",
          "type": "address"
        },
        {
          "internalType": "uint256",
          "name": "nftId",
          "type": "uint256"
        }
      ],
      "name": "cancelAuction",
      "outputs": [],
      "stateMutability": "nonpayable",
      "type": "function"
    },
    {
      "inputs": [
        {
          "internalType": "contract IERC721",
          "name": "nft",
          "type": "address"
        },
        {
          "internalType": "uint256",
          "name": "nftId",
          "type": "uint256"
        },
        {
          "internalType": "uint256",
          "name": "offerId",
          "type": "uint256"
        }
      ],
      "name": "cancelOffer",
      "outputs": [],
      "stateMutability": "nonpayable",
      "type": "function"
    },
    {
      "inputs": [
        {
          "internalType": "contract IERC721",
          "name": "nft",
          "type": "address"
        },
        {
          "internalType": "uint256",
          "name": "nftId",
          "type": "uint256"
        }
      ],
      "name": "cancelSale",
      "outputs": [],
      "stateMutability": "nonpayable",
      "type": "function"
    },
    {
      "inputs": [
        {
          "internalType": "contract IERC721",
          "name": "nft",
          "type": "address"
        },
        {
          "internalType": "uint256",
          "name": "nftId",
          "type": "uint256"
        }
      ],
      "name": "checkAuction",
      "outputs": [
        {
          "internalType": "bool",
          "name": "",
          "type": "bool"
        }
      ],
      "stateMutability": "view",
      "type": "function"
    },
    {
      "inputs": [
        {
          "internalType": "contract IERC721",
          "name": "nft",
          "type": "address"
        },
        {
          "internalType": "uint256",
          "name": "nftId",
          "type": "uint256"
        }
      ],
      "name": "checkSelling",
      "outputs": [
        {
          "internalType": "bool",
          "name": "",
          "type": "bool"
        }
      ],
      "stateMutability": "view",
      "type": "function"
    },
    {
      "inputs": [
        {
          "internalType": "contract IERC721",
          "name": "nft",
          "type": "address"
        },
        {
          "internalType": "uint256",
          "name": "nftId",
          "type": "uint256"
        }
      ],
      "name": "claim",
      "outputs": [],
      "stateMutability": "nonpayable",
      "type": "function"
    },
    {
      "inputs": [
        {
          "internalType": "contract IERC721",
          "name": "nft",
          "type": "address"
        },
        {
          "internalType": "uint256",
          "name": "nftId",
          "type": "uint256"
        }
      ],
      "name": "claimCake",
      "outputs": [],
      "stateMutability": "nonpayable",
      "type": "function"
    },
    {
      "inputs": [
        {
          "internalType": "contract IERC721",
          "name": "nft",
          "type": "address"
        },
        {
          "internalType": "uint256",
          "name": "nftId",
          "type": "uint256"
        }
      ],
      "name": "claimableCakeOf",
      "outputs": [
        {
          "internalType": "uint256",
          "name": "",
          "type": "uint256"
        }
      ],
      "stateMutability": "view",
      "type": "function"
    },
    {
      "inputs": [
        {
          "internalType": "contract IERC721",
          "name": "",
          "type": "address"
        },
        {
          "internalType": "uint256",
          "name": "",
          "type": "uint256"
        }
      ],
      "name": "claimed",
      "outputs": [
        {
          "internalType": "uint256",
          "name": "",
          "type": "uint256"
        }
      ],
      "stateMutability": "view",
      "type": "function"
    },
    {
      "inputs": [
        {
          "internalType": "contract IERC721",
          "name": "nft",
          "type": "address"
        },
        {
          "internalType": "uint256",
          "name": "nftId",
          "type": "uint256"
        }
      ],
      "name": "claimedCakeOf",
      "outputs": [
        {
          "internalType": "uint256",
          "name": "",
          "type": "uint256"
        }
      ],
      "stateMutability": "view",
      "type": "function"
    },
    {
      "inputs": [
        {
          "internalType": "contract IERC721",
          "name": "",
          "type": "address"
        }
      ],
      "name": "initSolds",
      "outputs": [
        {
          "internalType": "bool",
          "name": "",
          "type": "bool"
        }
      ],
      "stateMutability": "view",
      "type": "function"
    },
    {
      "inputs": [
        {
          "internalType": "contract IERC721",
          "name": "",
          "type": "address"
        }
      ],
      "name": "nftDeployers",
      "outputs": [
        {
          "internalType": "address",
          "name": "deployer",
          "type": "address"
        },
        {
          "internalType": "uint256",
          "name": "staking",
          "type": "uint256"
        },
        {
          "internalType": "uint256",
          "name": "fee",
          "type": "uint256"
        }
      ],
      "stateMutability": "view",
      "type": "function"
    },
    {
      "inputs": [
        {
          "internalType": "contract IERC721",
          "name": "nft",
          "type": "address"
        },
        {
          "internalType": "uint256",
          "name": "nftId",
          "type": "uint256"
        },
        {
          "internalType": "uint256",
          "name": "price",
          "type": "uint256"
        }
      ],
      "name": "offer",
      "outputs": [
        {
          "internalType": "uint256",
          "name": "offerId",
          "type": "uint256"
        }
      ],
      "stateMutability": "nonpayable",
      "type": "function"
    },
    {
      "inputs": [
        {
          "internalType": "contract IERC721",
          "name": "",
          "type": "address"
        },
        {
          "internalType": "uint256",
          "name": "",
          "type": "uint256"
        },
        {
          "internalType": "uint256",
          "name": "",
          "type": "uint256"
        }
      ],
      "name": "offers",
      "outputs": [
        {
          "internalType": "address",
          "name": "offeror",
          "type": "address"
        },
        {
          "internalType": "uint256",
          "name": "price",
          "type": "uint256"
        }
      ],
      "stateMutability": "view",
      "type": "function"
    },
    {
      "inputs": [],
      "name": "oracle",
      "outputs": [
        {
          "internalType": "address",
          "name": "",
          "type": "address"
        }
      ],
      "stateMutability": "view",
      "type": "function"
    },
    {
      "inputs": [],
      "name": "owner",
      "outputs": [
        {
          "internalType": "address",
          "name": "",
          "type": "address"
        }
      ],
      "stateMutability": "view",
      "type": "function"
    },
    {
      "inputs": [],
      "name": "ownerFee",
      "outputs": [
        {
          "internalType": "uint256",
          "name": "",
          "type": "uint256"
        }
      ],
      "stateMutability": "view",
      "type": "function"
    },
    {
      "inputs": [],
      "name": "ownerVault",
      "outputs": [
        {
          "internalType": "contract ICakeOwnerVault",
          "name": "",
          "type": "address"
        }
      ],
      "stateMutability": "view",
      "type": "function"
    },
    {
      "inputs": [
        {
          "internalType": "contract IERC721",
          "name": "",
          "type": "address"
        },
        {
          "internalType": "uint256",
          "name": "",
          "type": "uint256"
        }
      ],
      "name": "pointsCorrection",
      "outputs": [
        {
          "internalType": "int256",
          "name": "",
          "type": "int256"
        }
      ],
      "stateMutability": "view",
      "type": "function"
    },
    {
      "inputs": [],
      "name": "renounceOwnership",
      "outputs": [],
      "stateMutability": "nonpayable",
      "type": "function"
    },
    {
      "inputs": [
        {
          "internalType": "contract IERC721",
          "name": "",
          "type": "address"
        },
        {
          "internalType": "uint256",
          "name": "",
          "type": "uint256"
        }
      ],
      "name": "sales",
      "outputs": [
        {
          "internalType": "address",
          "name": "seller",
          "type": "address"
        },
        {
          "internalType": "uint256",
          "name": "price",
          "type": "uint256"
        }
      ],
      "stateMutability": "view",
      "type": "function"
    },
    {
      "inputs": [
        {
          "internalType": "contract IERC721",
          "name": "nft",
          "type": "address"
        },
        {
          "internalType": "uint256",
          "name": "nftId",
          "type": "uint256"
        },
        {
          "internalType": "uint256",
          "name": "price",
          "type": "uint256"
        }
      ],
      "name": "sell",
      "outputs": [],
      "stateMutability": "nonpayable",
      "type": "function"
    },
    {
      "inputs": [
        {
          "internalType": "contract ICakeNFT",
          "name": "nft",
          "type": "address"
        },
        {
          "internalType": "uint256",
          "name": "nftId",
          "type": "uint256"
        },
        {
          "internalType": "uint256",
          "name": "price",
          "type": "uint256"
        },
        {
          "internalType": "uint256",
          "name": "deadline",
          "type": "uint256"
        },
        {
          "internalType": "uint8",
          "name": "v",
          "type": "uint8"
        },
        {
          "internalType": "bytes32",
          "name": "r",
          "type": "bytes32"
        },
        {
          "internalType": "bytes32",
          "name": "s",
          "type": "bytes32"
        }
      ],
      "name": "sellWithPermit",
      "outputs": [],
      "stateMutability": "nonpayable",
      "type": "function"
    },
    {
      "inputs": [
        {
          "internalType": "contract ICakeNFT",
          "name": "nft",
          "type": "address"
        },
        {
          "internalType": "uint256",
          "name": "staking",
          "type": "uint256"
        },
        {
          "internalType": "uint256",
          "name": "fee",
          "type": "uint256"
        }
      ],
      "name": "set",
      "outputs": [],
      "stateMutability": "nonpayable",
      "type": "function"
    },
    {
      "inputs": [
        {
          "internalType": "contract IERC721",
          "name": "nft",
          "type": "address"
        },
        {
          "internalType": "address",
          "name": "deployer",
          "type": "address"
        },
        {
          "internalType": "uint256",
          "name": "staking",
          "type": "uint256"
        },
        {
          "internalType": "uint256",
          "name": "fee",
          "type": "uint256"
        },
        {
          "internalType": "bytes",
          "name": "signature",
          "type": "bytes"
        }
      ],
      "name": "setNFTDeployer",
      "outputs": [],
      "stateMutability": "nonpayable",
      "type": "function"
    },
    {
      "inputs": [
        {
          "internalType": "address",
          "name": "_oracle",
          "type": "address"
        }
      ],
      "name": "setOracle",
      "outputs": [],
      "stateMutability": "nonpayable",
      "type": "function"
    },
    {
      "inputs": [
        {
          "internalType": "uint256",
          "name": "fee",
          "type": "uint256"
        }
      ],
      "name": "setOwnerFee",
      "outputs": [],
      "stateMutability": "nonpayable",
      "type": "function"
    },
    {
      "inputs": [
        {
          "internalType": "contract IERC721",
          "name": "",
          "type": "address"
        },
        {
          "internalType": "uint256",
          "name": "",
          "type": "uint256"
        }
      ],
      "name": "stakedCakeBalances",
      "outputs": [
        {
          "internalType": "uint256",
          "name": "",
          "type": "uint256"
        }
      ],
      "stateMutability": "view",
      "type": "function"
    },
    {
      "inputs": [],
      "name": "totalStakedCakeBalance",
      "outputs": [
        {
          "internalType": "uint256",
          "name": "",
          "type": "uint256"
        }
      ],
      "stateMutability": "view",
      "type": "function"
    },
    {
      "inputs": [
        {
          "internalType": "address",
          "name": "newOwner",
          "type": "address"
        }
      ],
      "name": "transferOwnership",
      "outputs": [],
      "stateMutability": "nonpayable",
      "type": "function"
    },
    {
      "inputs": [
        {
          "internalType": "contract IUserMintNFT",
          "name": "nft",
          "type": "address"
        }
      ],
      "name": "userMint",
      "outputs": [
        {
          "internalType": "uint256",
          "name": "id",
          "type": "uint256"
        }
      ],
      "stateMutability": "nonpayable",
      "type": "function"
    },
    {
      "inputs": [],
      "name": "vault",
      "outputs": [
        {
          "internalType": "contract ICakeVault",
          "name": "",
          "type": "address"
        }
      ],
      "stateMutability": "view",
      "type": "function"
    }
  ],
  "bytecode": "0x61010060405260006001556000600255600060045560fa6008553480156200002657600080fd5b5060405162003a4a38038062003a4a8339810160408190526200004991620000fc565b84846200005633620000ac565b606091821b6001600160601b031990811660805290821b811660a05293811b841660c0529190911b90911660e052600780546001600160a01b0319166001600160a01b0390921691909117905550620001959050565b600080546001600160a01b038381166001600160a01b0319831681178455604051919092169283917f8be0079c531659141344cd1fd0a4f28419497f9722a3daafe3b4186f6b6457e09190a35050565b600080600080600060a086880312156200011557600080fd5b855162000122816200017c565b602087015190955062000135816200017c565b604087015190945062000148816200017c565b60608701519093506200015b816200017c565b60808701519092506200016e816200017c565b809150509295509295909350565b6001600160a01b03811681146200019257600080fd5b50565b60805160601c60a05160601c60c05160601c60e05160601c6137a4620002a6600039600081816107450152818161083d01528181610d4301528181610f7e015281816110110152818161133001528181611ab401528181611b47015261222d01526000818161038201528181612abd0152612b50015260008181610343015281816128ec01528181612e5e0152818161305d01526130f001526000818161069a015281816108ae01528181610dc301528181610ead01528181610f51015281816115c7015281816119e501528181611a8701528181611f290152818161266e0152818161284e01528181612a9001528181612c2b01528181612d3001528181612ed9015261303001526137a46000f3fe608060405234801561001057600080fd5b506004361061025e5760003560e01c80637adbf97311610146578063baa283d3116100c3578063e3b4367711610087578063e3b43677146106bc578063f2fde38b146106cf578063f7372ea0146106e2578063fa9f83c7146106f5578063fbf0ade11461072d578063fbfa77cf1461074057600080fd5b8063baa283d314610653578063c8cfe2c914610666578063cce7ec1314610679578063d5b2a01a1461068c578063dce174841461069557600080fd5b8063968a4f221161010a578063968a4f22146105945780639eebfb26146105cc578063a11269e5146105df578063a53b9eea1461060a578063aad3ec961461064057600080fd5b80637adbf973146105375780637dc0d1d01461054a5780638308d7e91461055d578063859b97fe146105705780638da5cb5b1461058357600080fd5b80633c6fc817116101df5780635419258d116101a35780635419258d146104985780635b2e221b146104cb5780635f102f9c146104f65780636a27246214610509578063715018a61461051c57806374a460501461052457600080fd5b80633c6fc817146103f057806344f91c1e14610403578063453e93e5146104475780634c33aa2e1461045a5780634dd6c8de1461046d57600080fd5b806314738d3b1161022657806314738d3b1461031857806316f3a95b1461032b5780631d1dc6971461033e57806320e573711461037d5780633a1c83ac146103a457600080fd5b80630a00e546146102635780630affa6f1146102c65780630e030d6a146102dd5780630ed23e78146102f25780630f41ba4b14610305575b600080fd5b61029c6102713660046132a1565b6009602052600090815260409020805460018201546002909201546001600160a01b03909116919083565b604080516001600160a01b0390941684526020840192909252908201526060015b60405180910390f35b6102cf60025481565b6040519081526020016102bd565b6102f06102eb366004613304565b610767565b005b6102f061030036600461340d565b61098a565b6102cf610313366004613304565b610c23565b6102cf6103263660046134f7565b6110cc565b6102f06103393660046134f7565b61110d565b6103657f000000000000000000000000000000000000000000000000000000000000000081565b6040516001600160a01b0390911681526020016102bd565b6103657f000000000000000000000000000000000000000000000000000000000000000081565b6103e26103b23660046134f7565b600b602090815260009283526040808420909152908252902080546001909101546001600160a01b039091169082565b6040516102bd9291906135b4565b6102f06103fe366004613304565b611207565b61029c6104113660046134f7565b600d6020908152600092835260408084209091529082529020805460018201546002909201546001600160a01b03909116919083565b6103e2610455366004613304565b6113d7565b6102f06104683660046133a8565b61142b565b6102cf61047b3660046134f7565b600660209081526000928352604080842090915290825290205481565b6104bb6104a63660046132a1565b600a6020526000908152604090205460ff1681565b60405190151581526020016102bd565b6102cf6104d93660046134f7565b600360209081526000928352604080842090915290825290205481565b6102cf6105043660046132a1565b6114bd565b6102f0610517366004613304565b611723565b6102f06118fd565b6102cf610532366004613304565b611933565b6102f06105453660046132a1565b611be8565b600754610365906001600160a01b031681565b6102f061056b366004613304565b611c34565b6102f061057e3660046134f7565b611d46565b6000546001600160a01b0316610365565b6104bb6105a23660046134f7565b6001600160a01b039182166000908152600d60209081526040808320938352929052205416151590565b6102f06105da3660046134f7565b611e75565b6102cf6105ed3660046134f7565b600560209081526000928352604080842090915290825290205481565b6102cf6106183660046134f7565b6001600160a01b03919091166000908152600660209081526040808320938352929052205490565b6102f061064e3660046134f7565b61203b565b6102f0610661366004613523565b612304565b6102f0610674366004613339565b6124e8565b6102f06106873660046134f7565b61257c565b6102cf60085481565b6103657f000000000000000000000000000000000000000000000000000000000000000081565b6103e26106ca366004613304565b612764565b6102f06106dd3660046132a1565b61278c565b6102cf6106f03660046134f7565b612827565b6104bb6107033660046134f7565b6001600160a01b039182166000908152600b60209081526040808320938352929052205416151590565b6102f061073b36600461355e565b612a2a565b6103657f000000000000000000000000000000000000000000000000000000000000000081565b6001600160a01b0383166000908152600c60209081526040808320858452909152812080549091908290849081106107a1576107a161372d565b60009182526020918290206040805180820190915260029092020180546001600160a01b031680835260019091015492820192909252915033146107e457600080fd5b602081015182548390859081106107fd576107fd61372d565b6000918252602082206002919091020180546001600160a01b031916815560010155604051632e1a7d4d60e01b8152600481018290526001600160a01b037f00000000000000000000000000000000000000000000000000000000000000001690632e1a7d4d90602401600060405180830381600087803b15801561088157600080fd5b505af1158015610895573d6000803e3d6000fd5b505060405163a9059cbb60e01b81526001600160a01b037f000000000000000000000000000000000000000000000000000000000000000016925063a9059cbb91506108e790339085906004016135b4565b602060405180830381600087803b15801561090157600080fd5b505af1158015610915573d6000803e3d6000fd5b505050506040513d601f19601f8201168201806040525081019061093991906132e2565b5081516040516001600160a01b03918216815285918791908916907f1a99e8401ad0f5c42a44ff151af1dd043e4abef0362617d113662727868e64ce906020015b60405180910390a4505050505050565b80516041146109e05760405162461bcd60e51b815260206004820152601860248201527f696e76616c6964207369676e6174757265206c656e677468000000000000000060448201526064015b60405180910390fd5b6040516bffffffffffffffffffffffff1933606090811b8216602084015287811b8216603484015286901b166048820152605c8101849052607c8101839052600090609c0160408051601f198184030181529082905280516020918201207f19457468657265756d205369676e6564204d6573736167653a0a33320000000091830191909152603c82018190529150605c0160408051601f19818403018152918152815160209283012091840151908401516060850151929350909160001a601b811015610ab657610ab3601b8261365b565b90505b8060ff16601b1480610acb57508060ff16601c145b610b175760405162461bcd60e51b815260206004820152601960248201527f696e76616c6964207369676e61747572652076657273696f6e0000000000000060448201526064016109d7565b60075460408051600081526020810180835287905260ff84169181019190915260608101859052608081018490526001600160a01b039091169060019060a0016020604051602081039080840390855afa158015610b79573d6000803e3d6000fd5b505050602060405103516001600160a01b031614610b9657600080fd5b6103e88710158015610baa57506127108711155b8015610bb857506103e88611155b610bc157600080fd5b5050604080516060810182526001600160a01b0397881681526020808201978852818301968752988816600090815260099099529720965187546001600160a01b03191696169590951786555050905160018401555160029092019190915550565b6001600160a01b038084166000908152600d60209081526040808320868452825280832081516060810183528154909516808652600182015493860193909352600201549084015290919015801590610c7f5750806040015143105b610c8857600080fd5b6001600160a01b0385166000908152600e6020908152604080832087845290915290208054925082610cca578382602001511115610cc557600080fd5b610e4f565b600081610cd8600186613700565b81548110610ce857610ce861372d565b60009182526020918290206040805180820190915260029092020180546001600160a01b031682526001015491810182905291508511610d2757600080fd5b6020810151604051632e1a7d4d60e01b815260048101919091527f00000000000000000000000000000000000000000000000000000000000000006001600160a01b031690632e1a7d4d90602401600060405180830381600087803b158015610d8f57600080fd5b505af1158015610da3573d6000803e3d6000fd5b50508251602084015160405163a9059cbb60e01b81526001600160a01b037f000000000000000000000000000000000000000000000000000000000000000016945063a9059cbb9350610dfa9291906004016135b4565b602060405180830381600087803b158015610e1457600080fd5b505af1158015610e28573d6000803e3d6000fd5b505050506040513d601f19601f82011682018060405250810190610e4c91906132e2565b50505b6040805180820182523380825260208083018881528554600180820188556000888152939093209451600290910290940180546001600160a01b0319166001600160a01b03958616178155905191015591516323b872dd60e01b81527f0000000000000000000000000000000000000000000000000000000000000000909116916323b872dd91610ee7919030908990600401613590565b602060405180830381600087803b158015610f0157600080fd5b505af1158015610f15573d6000803e3d6000fd5b505050506040513d601f19601f82011682018060405250810190610f3991906132e2565b5060405163095ea7b360e01b81526001600160a01b037f0000000000000000000000000000000000000000000000000000000000000000169063095ea7b390610fa8907f00000000000000000000000000000000000000000000000000000000000000009088906004016135b4565b602060405180830381600087803b158015610fc257600080fd5b505af1158015610fd6573d6000803e3d6000fd5b505050506040513d601f19601f82011682018060405250810190610ffa91906132e2565b5060405163b6b55f2560e01b8152600481018590527f00000000000000000000000000000000000000000000000000000000000000006001600160a01b03169063b6b55f2590602401600060405180830381600087803b15801561105d57600080fd5b505af1158015611071573d6000803e3d6000fd5b50505050336001600160a01b031685876001600160a01b03167f7f863cab1b412077be133ef69af7df0e6aca4c67ff7d89db843d601f124a025d876040516110bb91815260200190565b60405180910390a450509392505050565b6001600160a01b03821660009081526006602090815260408083208484529091528120546110fa8484612827565b6111049190613700565b90505b92915050565b6001600160a01b038083166000908152600b602090815260408083208584529091529020541633811461113f57600080fd5b6040516323b872dd60e01b81526001600160a01b038416906323b872dd9061116f90309085908790600401613590565b600060405180830381600087803b15801561118957600080fd5b505af115801561119d573d6000803e3d6000fd5b5050506001600160a01b0384166000818152600b6020908152604080832087845290915280822080546001600160a01b0319168155600101829055513393508592917fc14de1e0640c6a4e914f570610341c22dcf6a3a940582f767b41c8802a94b4b491a4505050565b6001600160a01b0383166000908152600c60209081526040808320858452909152812080549091908290849081106112415761124161372d565b6000918252602091829020604080518082018252600290930290910180546001600160a01b039081168085526001909201549484019490945290516323b872dd60e01b8152919350918716916323b872dd916112a39133918990600401613590565b600060405180830381600087803b1580156112bd57600080fd5b505af11580156112d1573d6000803e3d6000fd5b505050506000816020015190508284815481106112f0576112f061372d565b6000918252602082206002919091020180546001600160a01b031916815560010155604051632e1a7d4d60e01b8152600481018290526001600160a01b037f00000000000000000000000000000000000000000000000000000000000000001690632e1a7d4d90602401600060405180830381600087803b15801561137457600080fd5b505af1158015611388573d6000803e3d6000fd5b5050505061139886863384612a59565b604051338152849086906001600160a01b038916907f464e2668c1227b2db98a77a3752380089500f8cd3e641a33e0aa2437c978a1a99060200161097a565b600e60205282600052604060002060205281600052604060002081815481106113ff57600080fd5b6000918252602090912060029091020180546001909101546001600160a01b0390911693509150839050565b604051637ac2ff7b60e01b8152306004820152602481018790526044810185905260ff841660648201526084810183905260a481018290526001600160a01b03881690637ac2ff7b9060c401600060405180830381600087803b15801561149157600080fd5b505af11580156114a5573d6000803e3d6000fd5b505050506114b4878787611723565b50505050505050565b600080826001600160a01b0316636817c76c6040518163ffffffff1660e01b815260040160206040518083038186803b1580156114f957600080fd5b505afa15801561150d573d6000803e3d6000fd5b505050506040513d601f19601f820116820180604052508101906115319190613577565b6040516335313c2160e11b81523360048201529091506001600160a01b03841690636a62784290602401602060405180830381600087803b15801561157557600080fd5b505af1158015611589573d6000803e3d6000fd5b505050506040513d601f19601f820116820180604052508101906115ad9190613577565b6040516323b872dd60e01b81529092506001600160a01b037f000000000000000000000000000000000000000000000000000000000000000016906323b872dd9061160090339030908690600401613590565b602060405180830381600087803b15801561161a57600080fd5b505af115801561162e573d6000803e3d6000fd5b505050506040513d601f19601f8201168201806040525081019061165291906132e2565b506116cf8383856001600160a01b031663d5f394886040518163ffffffff1660e01b815260040160206040518083038186803b15801561169157600080fd5b505afa1580156116a5573d6000803e3d6000fd5b505050506040513d601f19601f820116820180604052508101906116c991906132c5565b84612a59565b336001600160a01b031682846001600160a01b03167f6b7718bbd8461683e1304f0e70287ff54fd29521002870719e04d687ae4318be8460405161171591815260200190565b60405180910390a450919050565b6001600160a01b0380841660009081526009602052604090205484911661174957600080fd5b6040516331a9108f60e11b81526004810184905233906001600160a01b03861690636352211e9060240160206040518083038186803b15801561178b57600080fd5b505afa15801561179f573d6000803e3d6000fd5b505050506040513d601f19601f820116820180604052508101906117c391906132c5565b6001600160a01b031614801561180157506001600160a01b038481166000908152600d60209081526040808320878452909152902054161515600114155b61180a57600080fd5b6040516323b872dd60e01b81526001600160a01b038516906323b872dd9061183a90339030908890600401613590565b600060405180830381600087803b15801561185457600080fd5b505af1158015611868573d6000803e3d6000fd5b50506040805180820182523380825260208083018881526001600160a01b038b81166000818152600b85528781208d82528552879020955186546001600160a01b03191692169190911785559051600190940193909355925187815290945087935090917f463904c4b0359ad674399537c3d4e4e44acc0b0dd259453d17329fd9b4be52c0910160405180910390a450505050565b6000546001600160a01b031633146119275760405162461bcd60e51b81526004016109d7906135cd565b6119316000612df0565b565b6001600160a01b03808416600090815260096020526040812054909185911661195b57600080fd5b6000831161196857600080fd5b6001600160a01b038581166000908152600c602090815260408083208884528252808320805482518084018452338082528186018b8152600180850186558589529690972091516002840290920180546001600160a01b031916928916929092178255955194019390935590516323b872dd60e01b8152919550927f000000000000000000000000000000000000000000000000000000000000000016916323b872dd91611a1d919030908990600401613590565b602060405180830381600087803b158015611a3757600080fd5b505af1158015611a4b573d6000803e3d6000fd5b505050506040513d601f19601f82011682018060405250810190611a6f91906132e2565b5060405163095ea7b360e01b81526001600160a01b037f0000000000000000000000000000000000000000000000000000000000000000169063095ea7b390611ade907f00000000000000000000000000000000000000000000000000000000000000009088906004016135b4565b602060405180830381600087803b158015611af857600080fd5b505af1158015611b0c573d6000803e3d6000fd5b505050506040513d601f19601f82011682018060405250810190611b3091906132e2565b5060405163b6b55f2560e01b8152600481018590527f00000000000000000000000000000000000000000000000000000000000000006001600160a01b03169063b6b55f2590602401600060405180830381600087803b158015611b9357600080fd5b505af1158015611ba7573d6000803e3d6000fd5b505050508285876001600160a01b03167f3498cca8289a0669e68756645378ec9f14f109147d58fc24e0bbbca63969ac2a33886040516110bb9291906135b4565b6000546001600160a01b03163314611c125760405162461bcd60e51b81526004016109d7906135cd565b600780546001600160a01b0319166001600160a01b0392909216919091179055565b336001600160a01b0316836001600160a01b031663d5f394886040518163ffffffff1660e01b815260040160206040518083038186803b158015611c7757600080fd5b505afa158015611c8b573d6000803e3d6000fd5b505050506040513d601f19601f82011682018060405250810190611caf91906132c5565b6001600160a01b0316148015611cc757506103e88210155b8015611cd557506127108211155b8015611ce357506103e88111155b611cec57600080fd5b6040805160608101825233815260208082019485528183019384526001600160a01b039586166000908152600990915291909120905181546001600160a01b03191694169390931783559051600183015551600290910155565b6001600160a01b0382166000908152600e6020908152604080832084845290915290205415611d7457600080fd5b6001600160a01b038083166000908152600d6020908152604080832085845290915290205416338114611da657600080fd5b6040516323b872dd60e01b81526001600160a01b038416906323b872dd90611dd690309085908790600401613590565b600060405180830381600087803b158015611df057600080fd5b505af1158015611e04573d6000803e3d6000fd5b5050506001600160a01b0384166000818152600d6020908152604080832087845290915280822080546001600160a01b031916815560018101839055600201829055513393508592917f26d4510b556e779d6507640413e013206e44c8f5d018c7c74ed8926f3f024a9c91a4505050565b611e7d612e40565b6000611e898383612fe3565b90508015612036576001600160a01b038316600090815260066020908152604080832085845290915281208054839290611ec4908490613643565b9091555050604051818152339083906001600160a01b038616907ff371029fbeb9d5ccc35b0e98232fa84414b7f053cebed0eb401b6640fbf9716c9060200160405180910390a46040516331a9108f60e11b8152600481018390526001600160a01b037f000000000000000000000000000000000000000000000000000000000000000081169163a9059cbb91861690636352211e9060240160206040518083038186803b158015611f7557600080fd5b505afa158015611f89573d6000803e3d6000fd5b505050506040513d601f19601f82011682018060405250810190611fad91906132c5565b836040518363ffffffff1660e01b8152600401611fcb9291906135b4565b602060405180830381600087803b158015611fe557600080fd5b505af1158015611ff9573d6000803e3d6000fd5b505050506040513d601f19601f8201168201806040525081019061201d91906132e2565b5080600160008282546120309190613700565b90915550505b505050565b6001600160a01b038083166000818152600d6020908152604080832086845282528083208151606081018352815490961686526001810154868401526002015485820152928252600e8152828220858352815282822080548451818402810184019095528085529293929091849084015b828210156120f4576000848152602090819020604080518082019091526002850290910180546001600160a01b031682526001908101548284015290835290920191016120ac565b5050505090506000816001835161210b9190613700565b8151811061211b5761211b61372d565b60200260200101519050336001600160a01b031681600001516001600160a01b031614801561214e575082604001514310155b61215757600080fd5b6001600160a01b0385166000818152600d60209081526040808320888452825280832080546001600160a01b031916815560018101849055600201839055928252600e815282822087835290529081206121b091613245565b6040516323b872dd60e01b81526001600160a01b038616906323b872dd906121e090309033908990600401613590565b600060405180830381600087803b1580156121fa57600080fd5b505af115801561220e573d6000803e3d6000fd5b5050506020820151604051632e1a7d4d60e01b81526001600160a01b037f0000000000000000000000000000000000000000000000000000000000000000169250632e1a7d4d916122659160040190815260200190565b600060405180830381600087803b15801561227f57600080fd5b505af1158015612293573d6000803e3d6000fd5b505050506122ab858585600001518460200151612a59565b336001600160a01b031684866001600160a01b03167fad03f837a9207e368d73ec028e1f54428184da8cfea258cc116da2225f3ac5eb84602001516040516122f591815260200190565b60405180910390a45050505050565b6001600160a01b0380851660009081526009602052604090205485911661232a57600080fd5b6040516331a9108f60e11b81526004810185905233906001600160a01b03871690636352211e9060240160206040518083038186803b15801561236c57600080fd5b505afa158015612380573d6000803e3d6000fd5b505050506040513d601f19601f820116820180604052508101906123a491906132c5565b6001600160a01b03161480156123e257506001600160a01b038581166000908152600b60209081526040808320888452909152902054161515600114155b6123eb57600080fd5b6040516323b872dd60e01b81526001600160a01b038616906323b872dd9061241b90339030908990600401613590565b600060405180830381600087803b15801561243557600080fd5b505af1158015612449573d6000803e3d6000fd5b5050604080516060810182523380825260208083018981528385018981526001600160a01b038d81166000818152600d86528881208f82528652889020965187546001600160a01b03191692169190911786559151600186015551600290940193909355835189815290810188905290945088935090917f9b80d6af20a468c7a9f15b75aac831f1f047746133d24ee55cd289442114a99091016122f5565b604051637ac2ff7b60e01b8152306004820152602481018890526044810185905260ff841660648201526084810183905260a481018290526001600160a01b03891690637ac2ff7b9060c401600060405180830381600087803b15801561254e57600080fd5b505af1158015612562573d6000803e3d6000fd5b5050505061257288888888612304565b5050505050505050565b6001600160a01b038083166000908152600b602090815260408083208584528252918290208251808401909352805490931680835260019093015490820152906125c557600080fd5b6001600160a01b0383166000818152600b6020908152604080832086845290915280822080546001600160a01b031916815560010191909155516323b872dd60e01b81526323b872dd9061262190309033908790600401613590565b600060405180830381600087803b15801561263b57600080fd5b505af115801561264f573d6000803e3d6000fd5b50505060208201516040516323b872dd60e01b81526001600160a01b037f00000000000000000000000000000000000000000000000000000000000000001692506323b872dd916126a69133913091600401613590565b602060405180830381600087803b1580156126c057600080fd5b505af11580156126d4573d6000803e3d6000fd5b505050506040513d601f19601f820116820180604052508101906126f891906132e2565b5061270d838383600001518460200151612a59565b336001600160a01b031682846001600160a01b03167fa76261e4127b2ebc809716d704216602fdaee4ae5b72745ed9aec0d7bd73b75d846020015160405161275791815260200190565b60405180910390a4505050565b600c60205282600052604060002060205281600052604060002081815481106113ff57600080fd5b6000546001600160a01b031633146127b65760405162461bcd60e51b81526004016109d7906135cd565b6001600160a01b03811661281b5760405162461bcd60e51b815260206004820152602660248201527f4f776e61626c653a206e6577206f776e657220697320746865207a65726f206160448201526564647265737360d01b60648201526084016109d7565b61282481612df0565b50565b6004546002546000919015612a20576040516370a0823160e01b81523060048201526000907f00000000000000000000000000000000000000000000000000000000000000006001600160a01b0316906370a082319060240160206040518083038186803b15801561289857600080fd5b505afa1580156128ac573d6000803e3d6000fd5b505050506040513d601f19601f820116820180604052508101906128d09190613577565b604051631175a1dd60e01b8152600060048201523060248201527f00000000000000000000000000000000000000000000000000000000000000006001600160a01b031690631175a1dd9060440160206040518083038186803b15801561293657600080fd5b505afa15801561294a573d6000803e3d6000fd5b505050506040513d601f19601f8201168201806040525081019061296e9190613577565b6129789190613643565b905060006001548261298a9190613700565b905080156129ba576002546129a3600160801b836136a2565b6129ad9190613680565b6129b79084613643565b92505b6001600160a01b038616600081815260056020908152604080832089845282528083205493835260038252808320898452909152902054600160801b9190612a0290866136a2565b612a0c9190613602565b612a169190613680565b9350505050611107565b5060009392505050565b6000546001600160a01b03163314612a545760405162461bcd60e51b81526004016109d7906135cd565b600855565b600061271060085483612a6c91906136a2565b612a769190613680565b60405163095ea7b360e01b81529091506001600160a01b037f0000000000000000000000000000000000000000000000000000000000000000169063095ea7b390612ae7907f00000000000000000000000000000000000000000000000000000000000000009085906004016135b4565b602060405180830381600087803b158015612b0157600080fd5b505af1158015612b15573d6000803e3d6000fd5b505050506040513d601f19601f82011682018060405250810190612b3991906132e2565b5060405163b6b55f2560e01b8152600481018290527f00000000000000000000000000000000000000000000000000000000000000006001600160a01b03169063b6b55f2590602401600060405180830381600087803b158015612b9c57600080fd5b505af1158015612bb0573d6000803e3d6000fd5b505050506001600160a01b03858116600090815260096020908152604080832081516060810183528154909516855260018101549285019290925260029091015490830181905261271090612c0590866136a2565b612c0f9190613680565b825160405163a9059cbb60e01b81529192506001600160a01b037f0000000000000000000000000000000000000000000000000000000000000000169163a9059cbb91612c609185906004016135b4565b602060405180830381600087803b158015612c7a57600080fd5b505af1158015612c8e573d6000803e3d6000fd5b505050506040513d601f19601f82011682018060405250810190612cb291906132e2565b506001600160a01b0387166000908152600a602052604081205460ff161515600114612d2657612710836020015186612ceb91906136a2565b612cf59190613680565b9050612d02888883613011565b6001600160a01b0388166000908152600a60205260409020805460ff191660011790555b6001600160a01b037f00000000000000000000000000000000000000000000000000000000000000001663a9059cbb878385612d62898b613700565b612d6c9190613700565b612d769190613700565b6040518363ffffffff1660e01b8152600401612d939291906135b4565b602060405180830381600087803b158015612dad57600080fd5b505af1158015612dc1573d6000803e3d6000fd5b505050506040513d601f19601f82011682018060405250810190612de591906132e2565b505050505050505050565b600080546001600160a01b038381166001600160a01b0319831681178455604051919092169283917f8be0079c531659141344cd1fd0a4f28419497f9722a3daafe3b4186f6b6457e09190a35050565b6002541561193157604051631058d28160e01b8152600060048201527f00000000000000000000000000000000000000000000000000000000000000006001600160a01b031690631058d28190602401600060405180830381600087803b158015612eaa57600080fd5b505af1158015612ebe573d6000803e3d6000fd5b50506040516370a0823160e01b8152306004820152600092507f00000000000000000000000000000000000000000000000000000000000000006001600160a01b031691506370a082319060240160206040518083038186803b158015612f2457600080fd5b505afa158015612f38573d6000803e3d6000fd5b505050506040513d601f19601f82011682018060405250810190612f5c9190613577565b9050600060015482612f6e9190613700565b90508015612fdd57600254612f87600160801b836136a2565b612f919190613680565b60046000828254612fa29190613643565b909155505060405181815233907f7e3443847968b8ae43a305870aa25aa7fc542ea63833182a4b715b3f82cd01619060200160405180910390a25b50600155565b6001600160a01b03821660009081526006602090815260408083208484529091528120546110fa84846131e4565b613019612e40565b60405163095ea7b360e01b81526001600160a01b037f0000000000000000000000000000000000000000000000000000000000000000169063095ea7b390613087907f00000000000000000000000000000000000000000000000000000000000000009085906004016135b4565b602060405180830381600087803b1580156130a157600080fd5b505af11580156130b5573d6000803e3d6000fd5b505050506040513d601f19601f820116820180604052508101906130d991906132e2565b506040516341441d3b60e01b8152600481018290527f00000000000000000000000000000000000000000000000000000000000000006001600160a01b0316906341441d3b90602401600060405180830381600087803b15801561313c57600080fd5b505af1158015613150573d6000803e3d6000fd5b5050505080600260008282546131669190613643565b90915550506001600160a01b03831660009081526003602090815260408083208584529091528120805483929061319e908490613643565b90915550506004546131b19082906136a2565b6001600160a01b0384166000908152600560209081526040808320868452909152812080549091906120309084906136c1565b6001600160a01b0382166000818152600560209081526040808320858452825280832054938352600382528083208584529091528120546004549192600160801b929091613231916136a2565b61323b9190613602565b6111049190613680565b508054600082556002029060005260206000209081019061282491905b808211156132875780546001600160a01b031916815560006001820155600201613262565b5090565b803560ff8116811461329c57600080fd5b919050565b6000602082840312156132b357600080fd5b81356132be81613759565b9392505050565b6000602082840312156132d757600080fd5b81516132be81613759565b6000602082840312156132f457600080fd5b815180151581146132be57600080fd5b60008060006060848603121561331957600080fd5b833561332481613759565b95602085013595506040909401359392505050565b600080600080600080600080610100898b03121561335657600080fd5b883561336181613759565b97506020890135965060408901359550606089013594506080890135935061338b60a08a0161328b565b925060c0890135915060e089013590509295985092959890939650565b600080600080600080600060e0888a0312156133c357600080fd5b87356133ce81613759565b96506020880135955060408801359450606088013593506133f16080890161328b565b925060a0880135915060c0880135905092959891949750929550565b600080600080600060a0868803121561342557600080fd5b853561343081613759565b9450602086013561344081613759565b93506040860135925060608601359150608086013567ffffffffffffffff8082111561346b57600080fd5b818801915088601f83011261347f57600080fd5b81358181111561349157613491613743565b604051601f8201601f19908116603f011681019083821181831017156134b9576134b9613743565b816040528281528b60208487010111156134d257600080fd5b8260208601602083013760006020848301015280955050505050509295509295909350565b6000806040838503121561350a57600080fd5b823561351581613759565b946020939093013593505050565b6000806000806080858703121561353957600080fd5b843561354481613759565b966020860135965060408601359560600135945092505050565b60006020828403121561357057600080fd5b5035919050565b60006020828403121561358957600080fd5b5051919050565b6001600160a01b039384168152919092166020820152604081019190915260600190565b6001600160a01b03929092168252602082015260400190565b6020808252818101527f4f776e61626c653a2063616c6c6572206973206e6f7420746865206f776e6572604082015260600190565b600080821280156001600160ff1b038490038513161561362457613624613717565b600160ff1b839003841281161561363d5761363d613717565b50500190565b6000821982111561365657613656613717565b500190565b600060ff821660ff84168060ff0382111561367857613678613717565b019392505050565b60008261369d57634e487b7160e01b600052601260045260246000fd5b500490565b60008160001904831182151516156136bc576136bc613717565b500290565b60008083128015600160ff1b8501841216156136df576136df613717565b6001600160ff1b03840183138116156136fa576136fa613717565b50500390565b60008282101561371257613712613717565b500390565b634e487b7160e01b600052601160045260246000fd5b634e487b7160e01b600052603260045260246000fd5b634e487b7160e01b600052604160045260246000fd5b6001600160a01b038116811461282457600080fdfea26469706673582212200563d93c3618751a391478f116d733a27b5caefc334f904346017161004b90e264736f6c63430008050033",
  "linkReferences": {},
  "deployedLinkReferences": {}
}