{
    "_format": "hh-sol-artifact-1",
    "contractName": "UserMintNFT",
    "sourceName": "contracts/UserMintNFT.sol",
    "abi": [
        {
            "inputs": [
                {
                    "internalType": "address",
                    "name": "_storeAddress",
                    "type": "address"
                },
                {
                    "internalType": "string",
                    "name": "name",
                    "type": "string"
                },
                {
                    "internalType": "string",
                    "name": "symbol",
                    "type": "string"
                },
                {
                    "internalType": "string",
                    "name": "_version",
                    "type": "string"
                },
                {
                    "internalType": "string",
                    "name": "baseURI_",
                    "type": "string"
                },
                {
                    "internalType": "uint256",
                    "name": "_mintPrice",
                    "type": "uint256"
                },
                {
                    "internalType": "uint256",
                    "name": "_maxMintCount",
                    "type": "uint256"
                }
            ],
            "stateMutability": "nonpayable",
            "type": "constructor"
        },
        {
            "anonymous": false,
            "inputs": [
                {
                    "indexed": true,
                    "internalType": "address",
                    "name": "owner",
                    "type": "address"
                },
                {
                    "indexed": true,
                    "internalType": "address",
                    "name": "approved",
                    "type": "address"
                },
                {
                    "indexed": true,
                    "internalType": "uint256",
                    "name": "tokenId",
                    "type": "uint256"
                }
            ],
            "name": "Approval",
            "type": "event"
        },
        {
            "anonymous": false,
            "inputs": [
                {
                    "indexed": true,
                    "internalType": "address",
                    "name": "owner",
                    "type": "address"
                },
                {
                    "indexed": true,
                    "internalType": "address",
                    "name": "operator",
                    "type": "address"
                },
                {
                    "indexed": false,
                    "internalType": "bool",
                    "name": "approved",
                    "type": "bool"
                }
            ],
            "name": "ApprovalForAll",
            "type": "event"
        },
        {
            "anonymous": false,
            "inputs": [
                {
                    "indexed": true,
                    "internalType": "address",
                    "name": "from",
                    "type": "address"
                },
                {
                    "indexed": true,
                    "internalType": "address",
                    "name": "to",
                    "type": "address"
                },
                {
                    "indexed": true,
                    "internalType": "uint256",
                    "name": "tokenId",
                    "type": "uint256"
                }
            ],
            "name": "Transfer",
            "type": "event"
        },
        {
            "inputs": [],
            "name": "DOMAIN_SEPARATOR",
            "outputs": [
                {
                    "internalType": "bytes32",
                    "name": "",
                    "type": "bytes32"
                }
            ],
            "stateMutability": "view",
            "type": "function"
        },
        {
            "inputs": [],
            "name": "PERMIT_TYPEHASH",
            "outputs": [
                {
                    "internalType": "bytes32",
                    "name": "",
                    "type": "bytes32"
                }
            ],
            "stateMutability": "view",
            "type": "function"
        },
        {
            "inputs": [
                {
                    "internalType": "address",
                    "name": "to",
                    "type": "address"
                },
                {
                    "internalType": "uint256",
                    "name": "tokenId",
                    "type": "uint256"
                }
            ],
            "name": "approve",
            "outputs": [],
            "stateMutability": "nonpayable",
            "type": "function"
        },
        {
            "inputs": [
                {
                    "internalType": "uint256",
                    "name": "id",
                    "type": "uint256"
                }
            ],
            "name": "artists",
            "outputs": [
                {
                    "internalType": "address",
                    "name": "",
                    "type": "address"
                }
            ],
            "stateMutability": "view",
            "type": "function"
        },
        {
            "inputs": [
                {
                    "internalType": "address",
                    "name": "owner",
                    "type": "address"
                }
            ],
            "name": "balanceOf",
            "outputs": [
                {
                    "internalType": "uint256",
                    "name": "",
                    "type": "uint256"
                }
            ],
            "stateMutability": "view",
            "type": "function"
        },
        {
            "inputs": [],
            "name": "baseURI",
            "outputs": [
                {
                    "internalType": "string",
                    "name": "",
                    "type": "string"
                }
            ],
            "stateMutability": "view",
            "type": "function"
        },
        {
            "inputs": [
                {
                    "internalType": "uint256",
                    "name": "id",
                    "type": "uint256"
                }
            ],
            "name": "burn",
            "outputs": [],
            "stateMutability": "nonpayable",
            "type": "function"
        },
        {
            "inputs": [],
            "name": "count",
            "outputs": [
                {
                    "internalType": "uint256",
                    "name": "",
                    "type": "uint256"
                }
            ],
            "stateMutability": "view",
            "type": "function"
        },
        {
            "inputs": [],
            "name": "deployer",
            "outputs": [
                {
                    "internalType": "address",
                    "name": "",
                    "type": "address"
                }
            ],
            "stateMutability": "view",
            "type": "function"
        },
        {
            "inputs": [
                {
                    "internalType": "uint256",
                    "name": "tokenId",
                    "type": "uint256"
                }
            ],
            "name": "getApproved",
            "outputs": [
                {
                    "internalType": "address",
                    "name": "",
                    "type": "address"
                }
            ],
            "stateMutability": "view",
            "type": "function"
        },
        {
            "inputs": [
                {
                    "internalType": "address",
                    "name": "owner",
                    "type": "address"
                },
                {
                    "internalType": "address",
                    "name": "operator",
                    "type": "address"
                }
            ],
            "name": "isApprovedForAll",
            "outputs": [
                {
                    "internalType": "bool",
                    "name": "",
                    "type": "bool"
                }
            ],
            "stateMutability": "view",
            "type": "function"
        },
        {
            "inputs": [],
            "name": "maxMintCount",
            "outputs": [
                {
                    "internalType": "uint256",
                    "name": "",
                    "type": "uint256"
                }
            ],
            "stateMutability": "view",
            "type": "function"
        },
        {
            "inputs": [
                {
                    "internalType": "address",
                    "name": "to",
                    "type": "address"
                }
            ],
            "name": "mint",
            "outputs": [
                {
                    "internalType": "uint256",
                    "name": "id",
                    "type": "uint256"
                }
            ],
            "stateMutability": "nonpayable",
            "type": "function"
        },
        {
            "inputs": [],
            "name": "mintPrice",
            "outputs": [
                {
                    "internalType": "uint256",
                    "name": "",
                    "type": "uint256"
                }
            ],
            "stateMutability": "view",
            "type": "function"
        },
        {
            "inputs": [],
            "name": "name",
            "outputs": [
                {
                    "internalType": "string",
                    "name": "",
                    "type": "string"
                }
            ],
            "stateMutability": "view",
            "type": "function"
        },
        {
            "inputs": [
                {
                    "internalType": "uint256",
                    "name": "",
                    "type": "uint256"
                }
            ],
            "name": "nonces",
            "outputs": [
                {
                    "internalType": "uint256",
                    "name": "",
                    "type": "uint256"
                }
            ],
            "stateMutability": "view",
            "type": "function"
        },
        {
            "inputs": [
                {
                    "internalType": "uint256",
                    "name": "tokenId",
                    "type": "uint256"
                }
            ],
            "name": "ownerOf",
            "outputs": [
                {
                    "internalType": "address",
                    "name": "",
                    "type": "address"
                }
            ],
            "stateMutability": "view",
            "type": "function"
        },
        {
            "inputs": [
                {
                    "internalType": "address",
                    "name": "spender",
                    "type": "address"
                },
                {
                    "internalType": "uint256",
                    "name": "id",
                    "type": "uint256"
                },
                {
                    "internalType": "uint256",
                    "name": "deadline",
                    "type": "uint256"
                },
                {
                    "internalType": "uint8",
                    "name": "v",
                    "type": "uint8"
                },
                {
                    "internalType": "bytes32",
                    "name": "r",
                    "type": "bytes32"
                },
                {
                    "internalType": "bytes32",
                    "name": "s",
                    "type": "bytes32"
                }
            ],
            "name": "permit",
            "outputs": [],
            "stateMutability": "nonpayable",
            "type": "function"
        },
        {
            "inputs": [
                {
                    "internalType": "address",
                    "name": "from",
                    "type": "address"
                },
                {
                    "internalType": "address",
                    "name": "to",
                    "type": "address"
                },
                {
                    "internalType": "uint256",
                    "name": "tokenId",
                    "type": "uint256"
                }
            ],
            "name": "safeTransferFrom",
            "outputs": [],
            "stateMutability": "nonpayable",
            "type": "function"
        },
        {
            "inputs": [
                {
                    "internalType": "address",
                    "name": "from",
                    "type": "address"
                },
                {
                    "internalType": "address",
                    "name": "to",
                    "type": "address"
                },
                {
                    "internalType": "uint256",
                    "name": "tokenId",
                    "type": "uint256"
                },
                {
                    "internalType": "bytes",
                    "name": "_data",
                    "type": "bytes"
                }
            ],
            "name": "safeTransferFrom",
            "outputs": [],
            "stateMutability": "nonpayable",
            "type": "function"
        },
        {
            "inputs": [
                {
                    "internalType": "string",
                    "name": "name",
                    "type": "string"
                },
                {
                    "internalType": "string",
                    "name": "symbol",
                    "type": "string"
                },
                {
                    "internalType": "string",
                    "name": "_version",
                    "type": "string"
                },
                {
                    "internalType": "string",
                    "name": "baseURI_",
                    "type": "string"
                },
                {
                    "internalType": "uint256",
                    "name": "_mintPrice",
                    "type": "uint256"
                },
                {
                    "internalType": "uint256",
                    "name": "_maxMintCount",
                    "type": "uint256"
                }
            ],
            "name": "set",
            "outputs": [],
            "stateMutability": "nonpayable",
            "type": "function"
        },
        {
            "inputs": [
                {
                    "internalType": "address",
                    "name": "operator",
                    "type": "address"
                },
                {
                    "internalType": "bool",
                    "name": "approved",
                    "type": "bool"
                }
            ],
            "name": "setApprovalForAll",
            "outputs": [],
            "stateMutability": "nonpayable",
            "type": "function"
        },
        {
            "inputs": [],
            "name": "storeAddress",
            "outputs": [
                {
                    "internalType": "address",
                    "name": "",
                    "type": "address"
                }
            ],
            "stateMutability": "view",
            "type": "function"
        },
        {
            "inputs": [
                {
                    "internalType": "bytes4",
                    "name": "interfaceId",
                    "type": "bytes4"
                }
            ],
            "name": "supportsInterface",
            "outputs": [
                {
                    "internalType": "bool",
                    "name": "",
                    "type": "bool"
                }
            ],
            "stateMutability": "view",
            "type": "function"
        },
        {
            "inputs": [],
            "name": "symbol",
            "outputs": [
                {
                    "internalType": "string",
                    "name": "",
                    "type": "string"
                }
            ],
            "stateMutability": "view",
            "type": "function"
        },
        {
            "inputs": [
                {
                    "internalType": "uint256",
                    "name": "index",
                    "type": "uint256"
                }
            ],
            "name": "tokenByIndex",
            "outputs": [
                {
                    "internalType": "uint256",
                    "name": "",
                    "type": "uint256"
                }
            ],
            "stateMutability": "view",
            "type": "function"
        },
        {
            "inputs": [
                {
                    "internalType": "address",
                    "name": "owner",
                    "type": "address"
                },
                {
                    "internalType": "uint256",
                    "name": "index",
                    "type": "uint256"
                }
            ],
            "name": "tokenOfOwnerByIndex",
            "outputs": [
                {
                    "internalType": "uint256",
                    "name": "",
                    "type": "uint256"
                }
            ],
            "stateMutability": "view",
            "type": "function"
        },
        {
            "inputs": [
                {
                    "internalType": "uint256",
                    "name": "tokenId",
                    "type": "uint256"
                }
            ],
            "name": "tokenURI",
            "outputs": [
                {
                    "internalType": "string",
                    "name": "",
                    "type": "string"
                }
            ],
            "stateMutability": "view",
            "type": "function"
        },
        {
            "inputs": [],
            "name": "totalSupply",
            "outputs": [
                {
                    "internalType": "uint256",
                    "name": "",
                    "type": "uint256"
                }
            ],
            "stateMutability": "view",
            "type": "function"
        },
        {
            "inputs": [
                {
                    "internalType": "address",
                    "name": "from",
                    "type": "address"
                },
                {
                    "internalType": "address",
                    "name": "to",
                    "type": "address"
                },
                {
                    "internalType": "uint256",
                    "name": "tokenId",
                    "type": "uint256"
                }
            ],
            "name": "transferFrom",
            "outputs": [],
            "stateMutability": "nonpayable",
            "type": "function"
        },
        {
            "inputs": [],
            "name": "version",
            "outputs": [
                {
                    "internalType": "string",
                    "name": "",
                    "type": "string"
                }
            ],
            "stateMutability": "view",
            "type": "function"
        }
    ],
    "bytecode": "0x60a06040526000600f553480156200001657600080fd5b506040516200253d3803806200253d8339810160408190526200003991620002bd565b8551869086906200005290600090602085019062000143565b5080516200006890600190602084019062000143565b5050600a80546001600160a01b03191633179055506001600160601b0319606088901b166080528351620000a490600b90602087019062000143565b508251620000ba90600e90602086019062000143565b50600c91909155600d55508251602093840120815191840191909120604080517f8b73c3c69bb8fe3d512ecc4cf759cc79239f7b179b0ffacaa9a75d522b39400f818701528082019390935260608301919091524660808301523060a0808401919091528151808403909101815260c09092019052805192019190912060105550620003f09050565b82805462000151906200039d565b90600052602060002090601f016020900481019282620001755760008555620001c0565b82601f106200019057805160ff1916838001178555620001c0565b82800160010185558215620001c0579182015b82811115620001c0578251825591602001919060010190620001a3565b50620001ce929150620001d2565b5090565b5b80821115620001ce5760008155600101620001d3565b80516001600160a01b03811681146200020157600080fd5b919050565b600082601f8301126200021857600080fd5b81516001600160401b0380821115620002355762000235620003da565b604051601f8301601f19908116603f01168101908282118183101715620002605762000260620003da565b816040528381526020925086838588010111156200027d57600080fd5b600091505b83821015620002a1578582018301518183018401529082019062000282565b83821115620002b35760008385830101525b9695505050505050565b600080600080600080600060e0888a031215620002d957600080fd5b620002e488620001e9565b60208901519097506001600160401b03808211156200030257600080fd5b620003108b838c0162000206565b975060408a01519150808211156200032757600080fd5b620003358b838c0162000206565b965060608a01519150808211156200034c57600080fd5b6200035a8b838c0162000206565b955060808a01519150808211156200037157600080fd5b50620003808a828b0162000206565b93505060a0880151915060c0880151905092959891949750929550565b600181811c90821680620003b257607f821691505b60208210811415620003d457634e487b7160e01b600052602260045260246000fd5b50919050565b634e487b7160e01b600052604160045260246000fd5b60805160601c61212762000416600039600081816104690152610a8001526121276000f3fe608060405234801561001057600080fd5b50600436106101e55760003560e01c806354fd4d501161010f57806395d89b41116100a2578063cd7e10c111610071578063cd7e10c1146103f7578063d5f3948814610415578063e985e9c514610428578063f2c4da931461046457600080fd5b806395d89b41146103b6578063a22cb465146103be578063b88d4fde146103d1578063c87b56dd146103e457600080fd5b80636a627842116100de5780636a627842146103755780636c0360eb1461038857806370a08231146103905780637ac2ff7b146103a357600080fd5b806354fd4d501461033e578063623bd30a146103465780636352211e146103595780636817c76c1461036c57600080fd5b806323b872dd116101875780633644e515116101565780633644e515146102fc57806342842e0e1461030557806342966c68146103185780634f6ccce71461032b57600080fd5b806323b872dd146102a65780632f745c59146102b957806330adf81f146102cc57806332c60eef146102f357600080fd5b8063081812fc116101c3578063081812fc1461023e578063095ea7b314610269578063141a468c1461027e57806318160ddd1461029e57600080fd5b806301ffc9a7146101ea57806306661abd1461021257806306fdde0314610229575b600080fd5b6101fd6101f8366004611d1b565b61048b565b60405190151581526020015b60405180910390f35b61021b600f5481565b604051908152602001610209565b61023161049c565b6040516102099190611ede565b61025161024c366004611e14565b61052e565b6040516001600160a01b039091168152602001610209565b61027c610277366004611c91565b6105c8565b005b61021b61028c366004611e14565b60116020526000908152604090205481565b60085461021b565b61027c6102b4366004611b9d565b6106de565b61021b6102c7366004611c91565b61070f565b61021b7f49ecf333e5b8c95c40fdafc95c1ad136e8914a8fb55e9dc8bb01eaa83a2df9ad81565b61021b600d5481565b61021b60105481565b61027c610313366004611b9d565b6107a5565b61027c610326366004611e14565b6107c0565b61021b610339366004611e14565b6107f2565b610231610885565b61027c610354366004611d55565b610913565b610251610367366004611e14565b6109fc565b61021b600c5481565b61021b610383366004611b4f565b610a73565b610231610ad4565b61021b61039e366004611b4f565b610ae1565b61027c6103b1366004611cbb565b610b68565b610231610def565b61027c6103cc366004611c55565b610dfe565b61027c6103df366004611bd9565b610e0d565b6102316103f2366004611e14565b610e45565b610251610405366004611e14565b50600a546001600160a01b031690565b600a54610251906001600160a01b031681565b6101fd610436366004611b6a565b6001600160a01b03918216600090815260056020908152604080832093909416825291909152205460ff1690565b6102517f000000000000000000000000000000000000000000000000000000000000000081565b600061049682610f20565b92915050565b6060600080546104ab90612003565b80601f01602080910402602001604051908101604052809291908181526020018280546104d790612003565b80156105245780601f106104f957610100808354040283529160200191610524565b820191906000526020600020905b81548152906001019060200180831161050757829003601f168201915b5050505050905090565b6000818152600260205260408120546001600160a01b03166105ac5760405162461bcd60e51b815260206004820152602c60248201527f4552433732313a20617070726f76656420717565727920666f72206e6f6e657860448201526b34b9ba32b73a103a37b5b2b760a11b60648201526084015b60405180910390fd5b506000908152600460205260409020546001600160a01b031690565b60006105d3826109fc565b9050806001600160a01b0316836001600160a01b031614156106415760405162461bcd60e51b815260206004820152602160248201527f4552433732313a20617070726f76616c20746f2063757272656e74206f776e656044820152603960f91b60648201526084016105a3565b336001600160a01b038216148061065d575061065d8133610436565b6106cf5760405162461bcd60e51b815260206004820152603860248201527f4552433732313a20617070726f76652063616c6c6572206973206e6f74206f7760448201527f6e6572206e6f7220617070726f76656420666f7220616c6c000000000000000060648201526084016105a3565b6106d98383610f45565b505050565b6106e83382610fb3565b6107045760405162461bcd60e51b81526004016105a390611f43565b6106d98383836110aa565b600061071a83610ae1565b821061077c5760405162461bcd60e51b815260206004820152602b60248201527f455243373231456e756d657261626c653a206f776e657220696e646578206f7560448201526a74206f6620626f756e647360a81b60648201526084016105a3565b506001600160a01b03919091166000908152600660209081526040808320938352929052205490565b6106d983838360405180602001604052806000815250610e0d565b6107c9816109fc565b6001600160a01b0316336001600160a01b0316146107e657600080fd5b6107ef81611255565b50565b60006107fd60085490565b82106108605760405162461bcd60e51b815260206004820152602c60248201527f455243373231456e756d657261626c653a20676c6f62616c20696e646578206f60448201526b7574206f6620626f756e647360a01b60648201526084016105a3565b60088281548110610873576108736120af565b90600052602060002001549050919050565b600b805461089290612003565b80601f01602080910402602001604051908101604052809291908181526020018280546108be90612003565b801561090b5780601f106108e05761010080835404028352916020019161090b565b820191906000526020600020905b8154815290600101906020018083116108ee57829003601f168201915b505050505081565b600a546001600160a01b0316331461092a57600080fd5b855161093d906000906020890190611a09565b508451610951906001906020880190611a09565b50835161096590600b906020870190611a09565b50825161097990600e906020860190611a09565b50600c91909155600d55508251602093840120815191840191909120604080517f8b73c3c69bb8fe3d512ecc4cf759cc79239f7b179b0ffacaa9a75d522b39400f818701528082019390935260608301919091524660808301523060a0808401919091528151808403909101815260c09092019052805192019190912060105550565b6000818152600260205260408120546001600160a01b0316806104965760405162461bcd60e51b815260206004820152602960248201527f4552433732313a206f776e657220717565727920666f72206e6f6e657869737460448201526832b73a103a37b5b2b760b91b60648201526084016105a3565b6000336001600160a01b037f00000000000000000000000000000000000000000000000000000000000000001614610aaa57600080fd5b50600f8054906001906000610abf8385611f94565b90915550610acf905082826112fc565b919050565b600e805461089290612003565b60006001600160a01b038216610b4c5760405162461bcd60e51b815260206004820152602a60248201527f4552433732313a2062616c616e636520717565727920666f7220746865207a65604482015269726f206164647265737360b01b60648201526084016105a3565b506001600160a01b031660009081526003602052604090205490565b83421115610b7557600080fd5b6010546000868152601160208181526040808420805482517f49ecf333e5b8c95c40fdafc95c1ad136e8914a8fb55e9dc8bb01eaa83a2df9ad818601526001600160a01b038e1681850152606081018d90526080810182905260a08082018d90528451808303909101815260c08201855280519086012061190160f01b60e083015260e28201989098526101028082019890985283518082039098018852610122019092528551958301959095208a85529290915290926001929091610c3c908490611f94565b9091555060009050610c4d876109fc565b9050806001600160a01b0316886001600160a01b03161415610c6e57600080fd5b803b15610d4757604080516020810186905280820185905260f887901b6001600160f81b0319166060820152815160418183030181526061820192839052630b135d3f60e11b9092526001600160a01b03831691631626ba7e91610cd6918691606501611ec5565b60206040518083038186803b158015610cee57600080fd5b505afa158015610d02573d6000803e3d6000fd5b505050506040513d601f19601f82011682018060405250810190610d269190611d38565b6001600160e01b031916631626ba7e60e01b14610d4257600080fd5b610ddb565b6040805160008082526020820180845285905260ff881692820192909252606081018690526080810185905260019060a0016020604051602081039080840390855afa158015610d9b573d6000803e3d6000fd5b5050604051601f1901519150506001600160a01b038116610dbb57600080fd5b816001600160a01b0316816001600160a01b031614610dd957600080fd5b505b610de58888610f45565b5050505050505050565b6060600180546104ab90612003565b610e0933838361144a565b5050565b610e173383610fb3565b610e335760405162461bcd60e51b81526004016105a390611f43565b610e3f84848484611519565b50505050565b6000818152600260205260409020546060906001600160a01b0316610ec45760405162461bcd60e51b815260206004820152602f60248201527f4552433732314d657461646174613a2055524920717565727920666f72206e6f60448201526e3732bc34b9ba32b73a103a37b5b2b760891b60648201526084016105a3565b6000610ece61154c565b90506000815111610eee5760405180602001604052806000815250610f19565b80610ef88461155b565b604051602001610f09929190611e59565b6040516020818303038152906040525b9392505050565b60006001600160e01b0319821663780e9d6360e01b1480610496575061049682611659565b600081815260046020526040902080546001600160a01b0319166001600160a01b0384169081179091558190610f7a826109fc565b6001600160a01b03167f8c5be1e5ebec7d5bd14f71427d1e84f3dd0314c0f7b2291e5b200ac8c7c3b92560405160405180910390a45050565b6000818152600260205260408120546001600160a01b031661102c5760405162461bcd60e51b815260206004820152602c60248201527f4552433732313a206f70657261746f7220717565727920666f72206e6f6e657860448201526b34b9ba32b73a103a37b5b2b760a11b60648201526084016105a3565b6000611037836109fc565b9050806001600160a01b0316846001600160a01b031614806110725750836001600160a01b03166110678461052e565b6001600160a01b0316145b806110a257506001600160a01b0380821660009081526005602090815260408083209388168352929052205460ff165b949350505050565b826001600160a01b03166110bd826109fc565b6001600160a01b0316146111255760405162461bcd60e51b815260206004820152602960248201527f4552433732313a207472616e73666572206f6620746f6b656e2074686174206960448201526839903737ba1037bbb760b91b60648201526084016105a3565b6001600160a01b0382166111875760405162461bcd60e51b8152602060048201526024808201527f4552433732313a207472616e7366657220746f20746865207a65726f206164646044820152637265737360e01b60648201526084016105a3565b6111928383836116a9565b61119d600082610f45565b6001600160a01b03831660009081526003602052604081208054600192906111c6908490611fc0565b90915550506001600160a01b03821660009081526003602052604081208054600192906111f4908490611f94565b909155505060008181526002602052604080822080546001600160a01b0319166001600160a01b0386811691821790925591518493918716917fddf252ad1be2c89b69c2b068fc378daa952ba7f163c4a11628f55a4df523b3ef91a4505050565b6000611260826109fc565b905061126e816000846116a9565b611279600083610f45565b6001600160a01b03811660009081526003602052604081208054600192906112a2908490611fc0565b909155505060008281526002602052604080822080546001600160a01b0319169055518391906001600160a01b038416907fddf252ad1be2c89b69c2b068fc378daa952ba7f163c4a11628f55a4df523b3ef908390a45050565b6001600160a01b0382166113525760405162461bcd60e51b815260206004820181905260248201527f4552433732313a206d696e7420746f20746865207a65726f206164647265737360448201526064016105a3565b6000818152600260205260409020546001600160a01b0316156113b75760405162461bcd60e51b815260206004820152601c60248201527f4552433732313a20746f6b656e20616c7265616479206d696e7465640000000060448201526064016105a3565b6113c3600083836116a9565b6001600160a01b03821660009081526003602052604081208054600192906113ec908490611f94565b909155505060008181526002602052604080822080546001600160a01b0319166001600160a01b03861690811790915590518392907fddf252ad1be2c89b69c2b068fc378daa952ba7f163c4a11628f55a4df523b3ef908290a45050565b816001600160a01b0316836001600160a01b031614156114ac5760405162461bcd60e51b815260206004820152601960248201527f4552433732313a20617070726f766520746f2063616c6c65720000000000000060448201526064016105a3565b6001600160a01b03838116600081815260056020908152604080832094871680845294825291829020805460ff191686151590811790915591519182527f17307eab39ab6107e8899845ad3d59bd9653f200f220920489ca2b5937696c31910160405180910390a3505050565b6115248484846110aa565b611530848484846116b4565b610e3f5760405162461bcd60e51b81526004016105a390611ef1565b6060600e80546104ab90612003565b60608161157f5750506040805180820190915260018152600360fc1b602082015290565b8160005b81156115a957806115938161203e565b91506115a29050600a83611fac565b9150611583565b60008167ffffffffffffffff8111156115c4576115c46120c5565b6040519080825280601f01601f1916602001820160405280156115ee576020820181803683370190505b5090505b84156110a257611603600183611fc0565b9150611610600a86612059565b61161b906030611f94565b60f81b818381518110611630576116306120af565b60200101906001600160f81b031916908160001a905350611652600a86611fac565b94506115f2565b60006001600160e01b031982166380ac58cd60e01b148061168a57506001600160e01b03198216635b5e139f60e01b145b8061049657506301ffc9a760e01b6001600160e01b0319831614610496565b6106d98383836117c1565b60006001600160a01b0384163b156117b657604051630a85bd0160e11b81526001600160a01b0385169063150b7a02906116f8903390899088908890600401611e88565b602060405180830381600087803b15801561171257600080fd5b505af1925050508015611742575060408051601f3d908101601f1916820190925261173f91810190611d38565b60015b61179c573d808015611770576040519150601f19603f3d011682016040523d82523d6000602084013e611775565b606091505b5080516117945760405162461bcd60e51b81526004016105a390611ef1565b805181602001fd5b6001600160e01b031916630a85bd0160e11b1490506110a2565b506001949350505050565b6001600160a01b03831661181c5761181781600880546000838152600960205260408120829055600182018355919091527ff3f7a9fe364faab93b216da50a3214154f22a0a2b415b23a84c8169e8b636ee30155565b61183f565b816001600160a01b0316836001600160a01b03161461183f5761183f8382611879565b6001600160a01b038216611856576106d981611916565b826001600160a01b0316826001600160a01b0316146106d9576106d982826119c5565b6000600161188684610ae1565b6118909190611fc0565b6000838152600760205260409020549091508082146118e3576001600160a01b03841660009081526006602090815260408083208584528252808320548484528184208190558352600790915290208190555b5060009182526007602090815260408084208490556001600160a01b039094168352600681528383209183525290812055565b60085460009061192890600190611fc0565b60008381526009602052604081205460088054939450909284908110611950576119506120af565b906000526020600020015490508060088381548110611971576119716120af565b60009182526020808320909101929092558281526009909152604080822084905585825281205560088054806119a9576119a9612099565b6001900381819060005260206000200160009055905550505050565b60006119d083610ae1565b6001600160a01b039093166000908152600660209081526040808320868452825280832085905593825260079052919091209190915550565b828054611a1590612003565b90600052602060002090601f016020900481019282611a375760008555611a7d565b82601f10611a5057805160ff1916838001178555611a7d565b82800160010185558215611a7d579182015b82811115611a7d578251825591602001919060010190611a62565b50611a89929150611a8d565b5090565b5b80821115611a895760008155600101611a8e565b600067ffffffffffffffff80841115611abd57611abd6120c5565b604051601f8501601f19908116603f01168101908282118183101715611ae557611ae56120c5565b81604052809350858152868686011115611afe57600080fd5b858560208301376000602087830101525050509392505050565b80356001600160a01b0381168114610acf57600080fd5b600082601f830112611b4057600080fd5b610f1983833560208501611aa2565b600060208284031215611b6157600080fd5b610f1982611b18565b60008060408385031215611b7d57600080fd5b611b8683611b18565b9150611b9460208401611b18565b90509250929050565b600080600060608486031215611bb257600080fd5b611bbb84611b18565b9250611bc960208501611b18565b9150604084013590509250925092565b60008060008060808587031215611bef57600080fd5b611bf885611b18565b9350611c0660208601611b18565b925060408501359150606085013567ffffffffffffffff811115611c2957600080fd5b8501601f81018713611c3a57600080fd5b611c4987823560208401611aa2565b91505092959194509250565b60008060408385031215611c6857600080fd5b611c7183611b18565b915060208301358015158114611c8657600080fd5b809150509250929050565b60008060408385031215611ca457600080fd5b611cad83611b18565b946020939093013593505050565b60008060008060008060c08789031215611cd457600080fd5b611cdd87611b18565b95506020870135945060408701359350606087013560ff81168114611d0157600080fd5b9598949750929560808101359460a0909101359350915050565b600060208284031215611d2d57600080fd5b8135610f19816120db565b600060208284031215611d4a57600080fd5b8151610f19816120db565b60008060008060008060c08789031215611d6e57600080fd5b863567ffffffffffffffff80821115611d8657600080fd5b611d928a838b01611b2f565b97506020890135915080821115611da857600080fd5b611db48a838b01611b2f565b96506040890135915080821115611dca57600080fd5b611dd68a838b01611b2f565b95506060890135915080821115611dec57600080fd5b50611df989828a01611b2f565b9350506080870135915060a087013590509295509295509295565b600060208284031215611e2657600080fd5b5035919050565b60008151808452611e45816020860160208601611fd7565b601f01601f19169290920160200192915050565b60008351611e6b818460208801611fd7565b835190830190611e7f818360208801611fd7565b01949350505050565b6001600160a01b0385811682528416602082015260408101839052608060608201819052600090611ebb90830184611e2d565b9695505050505050565b8281526040602082015260006110a26040830184611e2d565b602081526000610f196020830184611e2d565b60208082526032908201527f4552433732313a207472616e7366657220746f206e6f6e20455243373231526560408201527131b2b4bb32b91034b6b83632b6b2b73a32b960711b606082015260800190565b60208082526031908201527f4552433732313a207472616e736665722063616c6c6572206973206e6f74206f6040820152701ddb995c881b9bdc88185c1c1c9bdd9959607a1b606082015260800190565b60008219821115611fa757611fa761206d565b500190565b600082611fbb57611fbb612083565b500490565b600082821015611fd257611fd261206d565b500390565b60005b83811015611ff2578181015183820152602001611fda565b83811115610e3f5750506000910152565b600181811c9082168061201757607f821691505b6020821081141561203857634e487b7160e01b600052602260045260246000fd5b50919050565b60006000198214156120525761205261206d565b5060010190565b60008261206857612068612083565b500690565b634e487b7160e01b600052601160045260246000fd5b634e487b7160e01b600052601260045260246000fd5b634e487b7160e01b600052603160045260246000fd5b634e487b7160e01b600052603260045260246000fd5b634e487b7160e01b600052604160045260246000fd5b6001600160e01b0319811681146107ef57600080fdfea2646970667358221220851cd23cf47318748e11d82a51542776b354a9372a7483e5df1187aca0ad62e064736f6c63430008050033",
    "linkReferences": {},
    "deployedLinkReferences": {}
}