{
    "_format": "hh-sol-artifact-1",
    "contractName": "CakeNFTStore",
    "sourceName": "contracts/CakeNFTStore.sol",
    "abi": [
        {
            "inputs": [
                {
                    "internalType": "contract IERC20",
                    "name": "_cake",
                    "type": "address"
                },
                {
                    "internalType": "contract ICakeStaker",
                    "name": "_cakeStaker",
                    "type": "address"
                },
                {
                    "internalType": "contract ICakeOwnerVault",
                    "name": "_ownerVault",
                    "type": "address"
                },
                {
                    "internalType": "contract ICakeVault",
                    "name": "_vault",
                    "type": "address"
                },
                {
                    "internalType": "address",
                    "name": "_oracle",
                    "type": "address"
                }
            ],
            "stateMutability": "nonpayable",
            "type": "constructor"
        },
        {
            "anonymous": false,
            "inputs": [
                {
                    "indexed": true,
                    "internalType": "contract IERC721",
                    "name": "nft",
                    "type": "address"
                },
                {
                    "indexed": true,
                    "internalType": "uint256",
                    "name": "nftId",
                    "type": "uint256"
                },
                {
                    "indexed": true,
                    "internalType": "uint256",
                    "name": "offerId",
                    "type": "uint256"
                },
                {
                    "indexed": false,
                    "internalType": "address",
                    "name": "acceptor",
                    "type": "address"
                }
            ],
            "name": "AcceptOffer",
            "type": "event"
        },
        {
            "anonymous": false,
            "inputs": [
                {
                    "indexed": true,
                    "internalType": "contract IERC721",
                    "name": "nft",
                    "type": "address"
                },
                {
                    "indexed": true,
                    "internalType": "uint256",
                    "name": "nftId",
                    "type": "uint256"
                },
                {
                    "indexed": true,
                    "internalType": "address",
                    "name": "owner",
                    "type": "address"
                },
                {
                    "indexed": false,
                    "internalType": "uint256",
                    "name": "startPrice",
                    "type": "uint256"
                },
                {
                    "indexed": false,
                    "internalType": "uint256",
                    "name": "endBlock",
                    "type": "uint256"
                }
            ],
            "name": "Auction",
            "type": "event"
        },
        {
            "anonymous": false,
            "inputs": [
                {
                    "indexed": true,
                    "internalType": "contract IERC721",
                    "name": "nft",
                    "type": "address"
                },
                {
                    "indexed": true,
                    "internalType": "uint256",
                    "name": "nftId",
                    "type": "uint256"
                },
                {
                    "indexed": true,
                    "internalType": "address",
                    "name": "bidder",
                    "type": "address"
                },
                {
                    "indexed": false,
                    "internalType": "uint256",
                    "name": "price",
                    "type": "uint256"
                }
            ],
            "name": "Bid",
            "type": "event"
        },
        {
            "anonymous": false,
            "inputs": [
                {
                    "indexed": true,
                    "internalType": "contract IERC721",
                    "name": "nft",
                    "type": "address"
                },
                {
                    "indexed": true,
                    "internalType": "uint256",
                    "name": "nftId",
                    "type": "uint256"
                },
                {
                    "indexed": true,
                    "internalType": "address",
                    "name": "buyer",
                    "type": "address"
                },
                {
                    "indexed": false,
                    "internalType": "uint256",
                    "name": "price",
                    "type": "uint256"
                }
            ],
            "name": "Buy",
            "type": "event"
        },
        {
            "anonymous": false,
            "inputs": [
                {
                    "indexed": true,
                    "internalType": "contract IERC721",
                    "name": "nft",
                    "type": "address"
                },
                {
                    "indexed": true,
                    "internalType": "uint256",
                    "name": "nftId",
                    "type": "uint256"
                },
                {
                    "indexed": true,
                    "internalType": "address",
                    "name": "owner",
                    "type": "address"
                }
            ],
            "name": "CancelAuction",
            "type": "event"
        },
        {
            "anonymous": false,
            "inputs": [
                {
                    "indexed": true,
                    "internalType": "contract IERC721",
                    "name": "nft",
                    "type": "address"
                },
                {
                    "indexed": true,
                    "internalType": "uint256",
                    "name": "nftId",
                    "type": "uint256"
                },
                {
                    "indexed": true,
                    "internalType": "uint256",
                    "name": "offerId",
                    "type": "uint256"
                },
                {
                    "indexed": false,
                    "internalType": "address",
                    "name": "offeror",
                    "type": "address"
                }
            ],
            "name": "CancelOffer",
            "type": "event"
        },
        {
            "anonymous": false,
            "inputs": [
                {
                    "indexed": true,
                    "internalType": "contract IERC721",
                    "name": "nft",
                    "type": "address"
                },
                {
                    "indexed": true,
                    "internalType": "uint256",
                    "name": "nftId",
                    "type": "uint256"
                },
                {
                    "indexed": true,
                    "internalType": "address",
                    "name": "owner",
                    "type": "address"
                }
            ],
            "name": "CancelSale",
            "type": "event"
        },
        {
            "anonymous": false,
            "inputs": [
                {
                    "indexed": true,
                    "internalType": "contract IERC721",
                    "name": "nft",
                    "type": "address"
                },
                {
                    "indexed": true,
                    "internalType": "uint256",
                    "name": "nftId",
                    "type": "uint256"
                },
                {
                    "indexed": true,
                    "internalType": "address",
                    "name": "bidder",
                    "type": "address"
                },
                {
                    "indexed": false,
                    "internalType": "uint256",
                    "name": "price",
                    "type": "uint256"
                }
            ],
            "name": "Claim",
            "type": "event"
        },
        {
            "anonymous": false,
            "inputs": [
                {
                    "indexed": true,
                    "internalType": "contract IERC721",
                    "name": "nft",
                    "type": "address"
                },
                {
                    "indexed": true,
                    "internalType": "uint256",
                    "name": "nftId",
                    "type": "uint256"
                },
                {
                    "indexed": true,
                    "internalType": "address",
                    "name": "to",
                    "type": "address"
                },
                {
                    "indexed": false,
                    "internalType": "uint256",
                    "name": "claimed",
                    "type": "uint256"
                }
            ],
            "name": "ClaimCake",
            "type": "event"
        },
        {
            "anonymous": false,
            "inputs": [
                {
                    "indexed": true,
                    "internalType": "address",
                    "name": "by",
                    "type": "address"
                },
                {
                    "indexed": false,
                    "internalType": "uint256",
                    "name": "distributed",
                    "type": "uint256"
                }
            ],
            "name": "DistributeCake",
            "type": "event"
        },
        {
            "anonymous": false,
            "inputs": [
                {
                    "indexed": true,
                    "internalType": "contract IERC721",
                    "name": "nft",
                    "type": "address"
                },
                {
                    "indexed": true,
                    "internalType": "uint256",
                    "name": "nftId",
                    "type": "uint256"
                },
                {
                    "indexed": true,
                    "internalType": "uint256",
                    "name": "offerId",
                    "type": "uint256"
                },
                {
                    "indexed": false,
                    "internalType": "address",
                    "name": "offeror",
                    "type": "address"
                },
                {
                    "indexed": false,
                    "internalType": "uint256",
                    "name": "price",
                    "type": "uint256"
                }
            ],
            "name": "Offer",
            "type": "event"
        },
        {
            "anonymous": false,
            "inputs": [
                {
                    "indexed": true,
                    "internalType": "address",
                    "name": "previousOwner",
                    "type": "address"
                },
                {
                    "indexed": true,
                    "internalType": "address",
                    "name": "newOwner",
                    "type": "address"
                }
            ],
            "name": "OwnershipTransferred",
            "type": "event"
        },
        {
            "anonymous": false,
            "inputs": [
                {
                    "indexed": true,
                    "internalType": "contract IERC721",
                    "name": "nft",
                    "type": "address"
                },
                {
                    "indexed": true,
                    "internalType": "uint256",
                    "name": "nftId",
                    "type": "uint256"
                },
                {
                    "indexed": true,
                    "internalType": "address",
                    "name": "owner",
                    "type": "address"
                },
                {
                    "indexed": false,
                    "internalType": "uint256",
                    "name": "price",
                    "type": "uint256"
                }
            ],
            "name": "Sell",
            "type": "event"
        },
        {
            "anonymous": false,
            "inputs": [
                {
                    "indexed": true,
                    "internalType": "contract IERC721",
                    "name": "nft",
                    "type": "address"
                },
                {
                    "indexed": true,
                    "internalType": "uint256",
                    "name": "nftId",
                    "type": "uint256"
                },
                {
                    "indexed": true,
                    "internalType": "address",
                    "name": "minter",
                    "type": "address"
                },
                {
                    "indexed": false,
                    "internalType": "uint256",
                    "name": "mintPrice",
                    "type": "uint256"
                }
            ],
            "name": "UserMint",
            "type": "event"
        },
        {
            "inputs": [
                {
                    "internalType": "contract IERC721",
                    "name": "nft",
                    "type": "address"
                },
                {
                    "internalType": "uint256",
                    "name": "nftId",
                    "type": "uint256"
                },
                {
                    "internalType": "uint256",
                    "name": "offerId",
                    "type": "uint256"
                }
            ],
            "name": "acceptOffer",
            "outputs": [],
            "stateMutability": "nonpayable",
            "type": "function"
        },
        {
            "inputs": [
                {
                    "internalType": "contract IERC721",
                    "name": "nft",
                    "type": "address"
                },
                {
                    "internalType": "uint256",
                    "name": "nftId",
                    "type": "uint256"
                }
            ],
            "name": "accumulativeCakeOf",
            "outputs": [
                {
                    "internalType": "uint256",
                    "name": "",
                    "type": "uint256"
                }
            ],
            "stateMutability": "view",
            "type": "function"
        },
        {
            "inputs": [
                {
                    "internalType": "contract IERC721",
                    "name": "nft",
                    "type": "address"
                },
                {
                    "internalType": "uint256",
                    "name": "nftId",
                    "type": "uint256"
                },
                {
                    "internalType": "uint256",
                    "name": "startPrice",
                    "type": "uint256"
                },
                {
                    "internalType": "uint256",
                    "name": "endBlock",
                    "type": "uint256"
                }
            ],
            "name": "auction",
            "outputs": [],
            "stateMutability": "nonpayable",
            "type": "function"
        },
        {
            "inputs": [
                {
                    "internalType": "contract ICakeNFT",
                    "name": "nft",
                    "type": "address"
                },
                {
                    "internalType": "uint256",
                    "name": "nftId",
                    "type": "uint256"
                },
                {
                    "internalType": "uint256",
                    "name": "startPrice",
                    "type": "uint256"
                },
                {
                    "internalType": "uint256",
                    "name": "endBlock",
                    "type": "uint256"
                },
                {
                    "internalType": "uint256",
                    "name": "deadline",
                    "type": "uint256"
                },
                {
                    "internalType": "uint8",
                    "name": "v",
                    "type": "uint8"
                },
                {
                    "internalType": "bytes32",
                    "name": "r",
                    "type": "bytes32"
                },
                {
                    "internalType": "bytes32",
                    "name": "s",
                    "type": "bytes32"
                }
            ],
            "name": "auctionWithPermit",
            "outputs": [],
            "stateMutability": "nonpayable",
            "type": "function"
        },
        {
            "inputs": [
                {
                    "internalType": "contract IERC721",
                    "name": "",
                    "type": "address"
                },
                {
                    "internalType": "uint256",
                    "name": "",
                    "type": "uint256"
                }
            ],
            "name": "auctions",
            "outputs": [
                {
                    "internalType": "address",
                    "name": "seller",
                    "type": "address"
                },
                {
                    "internalType": "uint256",
                    "name": "startPrice",
                    "type": "uint256"
                },
                {
                    "internalType": "uint256",
                    "name": "endBlock",
                    "type": "uint256"
                }
            ],
            "stateMutability": "view",
            "type": "function"
        },
        {
            "inputs": [
                {
                    "internalType": "contract IERC721",
                    "name": "nft",
                    "type": "address"
                },
                {
                    "internalType": "uint256",
                    "name": "nftId",
                    "type": "uint256"
                },
                {
                    "internalType": "uint256",
                    "name": "price",
                    "type": "uint256"
                }
            ],
            "name": "bid",
            "outputs": [
                {
                    "internalType": "uint256",
                    "name": "biddingId",
                    "type": "uint256"
                }
            ],
            "stateMutability": "nonpayable",
            "type": "function"
        },
        {
            "inputs": [
                {
                    "internalType": "contract IERC721",
                    "name": "nft",
                    "type": "address"
                },
                {
                    "internalType": "uint256",
                    "name": "nftId",
                    "type": "uint256"
                }
            ],
            "name": "biddingCount",
            "outputs": [
                {
                    "internalType": "uint256",
                    "name": "",
                    "type": "uint256"
                }
            ],
            "stateMutability": "view",
            "type": "function"
        },
        {
            "inputs": [
                {
                    "internalType": "contract IERC721",
                    "name": "",
                    "type": "address"
                },
                {
                    "internalType": "uint256",
                    "name": "",
                    "type": "uint256"
                },
                {
                    "internalType": "uint256",
                    "name": "",
                    "type": "uint256"
                }
            ],
            "name": "biddings",
            "outputs": [
                {
                    "internalType": "address",
                    "name": "bidder",
                    "type": "address"
                },
                {
                    "internalType": "uint256",
                    "name": "price",
                    "type": "uint256"
                }
            ],
            "stateMutability": "view",
            "type": "function"
        },
        {
            "inputs": [
                {
                    "internalType": "contract IERC721",
                    "name": "nft",
                    "type": "address"
                },
                {
                    "internalType": "uint256",
                    "name": "nftId",
                    "type": "uint256"
                }
            ],
            "name": "buy",
            "outputs": [],
            "stateMutability": "nonpayable",
            "type": "function"
        },
        {
            "inputs": [],
            "name": "cake",
            "outputs": [
                {
                    "internalType": "contract IERC20",
                    "name": "",
                    "type": "address"
                }
            ],
            "stateMutability": "view",
            "type": "function"
        },
        {
            "inputs": [],
            "name": "cakeStaker",
            "outputs": [
                {
                    "internalType": "contract ICakeStaker",
                    "name": "",
                    "type": "address"
                }
            ],
            "stateMutability": "view",
            "type": "function"
        },
        {
            "inputs": [
                {
                    "internalType": "contract IERC721",
                    "name": "nft",
                    "type": "address"
                },
                {
                    "internalType": "uint256",
                    "name": "nftId",
                    "type": "uint256"
                }
            ],
            "name": "cancelAuction",
            "outputs": [],
            "stateMutability": "nonpayable",
            "type": "function"
        },
        {
            "inputs": [
                {
                    "internalType": "contract IERC721",
                    "name": "nft",
                    "type": "address"
                },
                {
                    "internalType": "uint256",
                    "name": "nftId",
                    "type": "uint256"
                },
                {
                    "internalType": "uint256",
                    "name": "offerId",
                    "type": "uint256"
                }
            ],
            "name": "cancelOffer",
            "outputs": [],
            "stateMutability": "nonpayable",
            "type": "function"
        },
        {
            "inputs": [
                {
                    "internalType": "contract IERC721",
                    "name": "nft",
                    "type": "address"
                },
                {
                    "internalType": "uint256",
                    "name": "nftId",
                    "type": "uint256"
                }
            ],
            "name": "cancelSale",
            "outputs": [],
            "stateMutability": "nonpayable",
            "type": "function"
        },
        {
            "inputs": [
                {
                    "internalType": "contract IERC721",
                    "name": "nft",
                    "type": "address"
                },
                {
                    "internalType": "uint256",
                    "name": "nftId",
                    "type": "uint256"
                }
            ],
            "name": "checkAuction",
            "outputs": [
                {
                    "internalType": "bool",
                    "name": "",
                    "type": "bool"
                }
            ],
            "stateMutability": "view",
            "type": "function"
        },
        {
            "inputs": [
                {
                    "internalType": "contract IERC721",
                    "name": "nft",
                    "type": "address"
                },
                {
                    "internalType": "uint256",
                    "name": "nftId",
                    "type": "uint256"
                }
            ],
            "name": "checkSelling",
            "outputs": [
                {
                    "internalType": "bool",
                    "name": "",
                    "type": "bool"
                }
            ],
            "stateMutability": "view",
            "type": "function"
        },
        {
            "inputs": [
                {
                    "internalType": "contract IERC721",
                    "name": "nft",
                    "type": "address"
                },
                {
                    "internalType": "uint256",
                    "name": "nftId",
                    "type": "uint256"
                }
            ],
            "name": "claim",
            "outputs": [],
            "stateMutability": "nonpayable",
            "type": "function"
        },
        {
            "inputs": [
                {
                    "internalType": "contract IERC721",
                    "name": "nft",
                    "type": "address"
                },
                {
                    "internalType": "uint256",
                    "name": "nftId",
                    "type": "uint256"
                }
            ],
            "name": "claimCake",
            "outputs": [],
            "stateMutability": "nonpayable",
            "type": "function"
        },
        {
            "inputs": [
                {
                    "internalType": "contract IERC721",
                    "name": "nft",
                    "type": "address"
                },
                {
                    "internalType": "uint256",
                    "name": "nftId",
                    "type": "uint256"
                }
            ],
            "name": "claimableCakeOf",
            "outputs": [
                {
                    "internalType": "uint256",
                    "name": "",
                    "type": "uint256"
                }
            ],
            "stateMutability": "view",
            "type": "function"
        },
        {
            "inputs": [
                {
                    "internalType": "contract IERC721",
                    "name": "",
                    "type": "address"
                },
                {
                    "internalType": "uint256",
                    "name": "",
                    "type": "uint256"
                }
            ],
            "name": "claimed",
            "outputs": [
                {
                    "internalType": "uint256",
                    "name": "",
                    "type": "uint256"
                }
            ],
            "stateMutability": "view",
            "type": "function"
        },
        {
            "inputs": [
                {
                    "internalType": "contract IERC721",
                    "name": "nft",
                    "type": "address"
                },
                {
                    "internalType": "uint256",
                    "name": "nftId",
                    "type": "uint256"
                }
            ],
            "name": "claimedCakeOf",
            "outputs": [
                {
                    "internalType": "uint256",
                    "name": "",
                    "type": "uint256"
                }
            ],
            "stateMutability": "view",
            "type": "function"
        },
        {
            "inputs": [
                {
                    "internalType": "contract IERC721",
                    "name": "",
                    "type": "address"
                }
            ],
            "name": "initSolds",
            "outputs": [
                {
                    "internalType": "bool",
                    "name": "",
                    "type": "bool"
                }
            ],
            "stateMutability": "view",
            "type": "function"
        },
        {
            "inputs": [],
            "name": "nftCount",
            "outputs": [
                {
                    "internalType": "uint256",
                    "name": "",
                    "type": "uint256"
                }
            ],
            "stateMutability": "view",
            "type": "function"
        },
        {
            "inputs": [
                {
                    "internalType": "contract IERC721",
                    "name": "",
                    "type": "address"
                }
            ],
            "name": "nftInfos",
            "outputs": [
                {
                    "internalType": "address",
                    "name": "deployer",
                    "type": "address"
                },
                {
                    "internalType": "bool",
                    "name": "cakeNFT",
                    "type": "bool"
                },
                {
                    "internalType": "uint256",
                    "name": "staking",
                    "type": "uint256"
                },
                {
                    "internalType": "uint256",
                    "name": "fee",
                    "type": "uint256"
                }
            ],
            "stateMutability": "view",
            "type": "function"
        },
        {
            "inputs": [
                {
                    "internalType": "uint256",
                    "name": "",
                    "type": "uint256"
                }
            ],
            "name": "nfts",
            "outputs": [
                {
                    "internalType": "address",
                    "name": "",
                    "type": "address"
                }
            ],
            "stateMutability": "view",
            "type": "function"
        },
        {
            "inputs": [
                {
                    "internalType": "contract IERC721",
                    "name": "nft",
                    "type": "address"
                },
                {
                    "internalType": "uint256",
                    "name": "nftId",
                    "type": "uint256"
                },
                {
                    "internalType": "uint256",
                    "name": "price",
                    "type": "uint256"
                }
            ],
            "name": "offer",
            "outputs": [
                {
                    "internalType": "uint256",
                    "name": "offerId",
                    "type": "uint256"
                }
            ],
            "stateMutability": "nonpayable",
            "type": "function"
        },
        {
            "inputs": [
                {
                    "internalType": "contract IERC721",
                    "name": "nft",
                    "type": "address"
                },
                {
                    "internalType": "uint256",
                    "name": "nftId",
                    "type": "uint256"
                }
            ],
            "name": "offerCount",
            "outputs": [
                {
                    "internalType": "uint256",
                    "name": "",
                    "type": "uint256"
                }
            ],
            "stateMutability": "view",
            "type": "function"
        },
        {
            "inputs": [
                {
                    "internalType": "contract IERC721",
                    "name": "",
                    "type": "address"
                },
                {
                    "internalType": "uint256",
                    "name": "",
                    "type": "uint256"
                },
                {
                    "internalType": "uint256",
                    "name": "",
                    "type": "uint256"
                }
            ],
            "name": "offers",
            "outputs": [
                {
                    "internalType": "address",
                    "name": "offeror",
                    "type": "address"
                },
                {
                    "internalType": "uint256",
                    "name": "price",
                    "type": "uint256"
                }
            ],
            "stateMutability": "view",
            "type": "function"
        },
        {
            "inputs": [],
            "name": "oracle",
            "outputs": [
                {
                    "internalType": "address",
                    "name": "",
                    "type": "address"
                }
            ],
            "stateMutability": "view",
            "type": "function"
        },
        {
            "inputs": [],
            "name": "owner",
            "outputs": [
                {
                    "internalType": "address",
                    "name": "",
                    "type": "address"
                }
            ],
            "stateMutability": "view",
            "type": "function"
        },
        {
            "inputs": [],
            "name": "ownerFee",
            "outputs": [
                {
                    "internalType": "uint256",
                    "name": "",
                    "type": "uint256"
                }
            ],
            "stateMutability": "view",
            "type": "function"
        },
        {
            "inputs": [],
            "name": "ownerVault",
            "outputs": [
                {
                    "internalType": "contract ICakeOwnerVault",
                    "name": "",
                    "type": "address"
                }
            ],
            "stateMutability": "view",
            "type": "function"
        },
        {
            "inputs": [
                {
                    "internalType": "contract IERC721",
                    "name": "",
                    "type": "address"
                },
                {
                    "internalType": "uint256",
                    "name": "",
                    "type": "uint256"
                }
            ],
            "name": "pointsCorrection",
            "outputs": [
                {
                    "internalType": "int256",
                    "name": "",
                    "type": "int256"
                }
            ],
            "stateMutability": "view",
            "type": "function"
        },
        {
            "inputs": [],
            "name": "renounceOwnership",
            "outputs": [],
            "stateMutability": "nonpayable",
            "type": "function"
        },
        {
            "inputs": [
                {
                    "internalType": "contract IERC721",
                    "name": "",
                    "type": "address"
                },
                {
                    "internalType": "uint256",
                    "name": "",
                    "type": "uint256"
                }
            ],
            "name": "sales",
            "outputs": [
                {
                    "internalType": "address",
                    "name": "seller",
                    "type": "address"
                },
                {
                    "internalType": "uint256",
                    "name": "price",
                    "type": "uint256"
                }
            ],
            "stateMutability": "view",
            "type": "function"
        },
        {
            "inputs": [
                {
                    "internalType": "contract IERC721",
                    "name": "nft",
                    "type": "address"
                },
                {
                    "internalType": "uint256",
                    "name": "nftId",
                    "type": "uint256"
                },
                {
                    "internalType": "uint256",
                    "name": "price",
                    "type": "uint256"
                }
            ],
            "name": "sell",
            "outputs": [],
            "stateMutability": "nonpayable",
            "type": "function"
        },
        {
            "inputs": [
                {
                    "internalType": "contract ICakeNFT",
                    "name": "nft",
                    "type": "address"
                },
                {
                    "internalType": "uint256",
                    "name": "nftId",
                    "type": "uint256"
                },
                {
                    "internalType": "uint256",
                    "name": "price",
                    "type": "uint256"
                },
                {
                    "internalType": "uint256",
                    "name": "deadline",
                    "type": "uint256"
                },
                {
                    "internalType": "uint8",
                    "name": "v",
                    "type": "uint8"
                },
                {
                    "internalType": "bytes32",
                    "name": "r",
                    "type": "bytes32"
                },
                {
                    "internalType": "bytes32",
                    "name": "s",
                    "type": "bytes32"
                }
            ],
            "name": "sellWithPermit",
            "outputs": [],
            "stateMutability": "nonpayable",
            "type": "function"
        },
        {
            "inputs": [
                {
                    "internalType": "contract ICakeNFT",
                    "name": "nft",
                    "type": "address"
                },
                {
                    "internalType": "uint256",
                    "name": "staking",
                    "type": "uint256"
                },
                {
                    "internalType": "uint256",
                    "name": "fee",
                    "type": "uint256"
                }
            ],
            "name": "set",
            "outputs": [],
            "stateMutability": "nonpayable",
            "type": "function"
        },
        {
            "inputs": [
                {
                    "internalType": "contract IERC721",
                    "name": "nft",
                    "type": "address"
                },
                {
                    "internalType": "address",
                    "name": "deployer",
                    "type": "address"
                },
                {
                    "internalType": "uint256",
                    "name": "staking",
                    "type": "uint256"
                },
                {
                    "internalType": "uint256",
                    "name": "fee",
                    "type": "uint256"
                },
                {
                    "internalType": "bytes",
                    "name": "signature",
                    "type": "bytes"
                }
            ],
            "name": "setNFTInfo",
            "outputs": [],
            "stateMutability": "nonpayable",
            "type": "function"
        },
        {
            "inputs": [
                {
                    "internalType": "address",
                    "name": "_oracle",
                    "type": "address"
                }
            ],
            "name": "setOracle",
            "outputs": [],
            "stateMutability": "nonpayable",
            "type": "function"
        },
        {
            "inputs": [
                {
                    "internalType": "uint256",
                    "name": "fee",
                    "type": "uint256"
                }
            ],
            "name": "setOwnerFee",
            "outputs": [],
            "stateMutability": "nonpayable",
            "type": "function"
        },
        {
            "inputs": [
                {
                    "internalType": "contract IERC721",
                    "name": "",
                    "type": "address"
                },
                {
                    "internalType": "uint256",
                    "name": "",
                    "type": "uint256"
                }
            ],
            "name": "stakedCakeBalances",
            "outputs": [
                {
                    "internalType": "uint256",
                    "name": "",
                    "type": "uint256"
                }
            ],
            "stateMutability": "view",
            "type": "function"
        },
        {
            "inputs": [],
            "name": "totalStakedCakeBalance",
            "outputs": [
                {
                    "internalType": "uint256",
                    "name": "",
                    "type": "uint256"
                }
            ],
            "stateMutability": "view",
            "type": "function"
        },
        {
            "inputs": [
                {
                    "internalType": "contract IERC721",
                    "name": "",
                    "type": "address"
                }
            ],
            "name": "totalTradingVolumes",
            "outputs": [
                {
                    "internalType": "uint256",
                    "name": "",
                    "type": "uint256"
                }
            ],
            "stateMutability": "view",
            "type": "function"
        },
        {
            "inputs": [
                {
                    "internalType": "address",
                    "name": "newOwner",
                    "type": "address"
                }
            ],
            "name": "transferOwnership",
            "outputs": [],
            "stateMutability": "nonpayable",
            "type": "function"
        },
        {
            "inputs": [
                {
                    "internalType": "contract IUserMintNFT",
                    "name": "nft",
                    "type": "address"
                }
            ],
            "name": "userMint",
            "outputs": [
                {
                    "internalType": "uint256",
                    "name": "id",
                    "type": "uint256"
                }
            ],
            "stateMutability": "nonpayable",
            "type": "function"
        },
        {
            "inputs": [],
            "name": "vault",
            "outputs": [
                {
                    "internalType": "contract ICakeVault",
                    "name": "",
                    "type": "address"
                }
            ],
            "stateMutability": "view",
            "type": "function"
        }
    ],
    "bytecode": "0x61010060405260006001556000600255600060045560fa6008553480156200002657600080fd5b5060405162003d5838038062003d588339810160408190526200004991620000fc565b84846200005633620000ac565b606091821b6001600160601b031990811660805290821b811660a05293811b841660c0529190911b90911660e052600780546001600160a01b0319166001600160a01b0390921691909117905550620001959050565b600080546001600160a01b038381166001600160a01b0319831681178455604051919092169283917f8be0079c531659141344cd1fd0a4f28419497f9722a3daafe3b4186f6b6457e09190a35050565b600080600080600060a086880312156200011557600080fd5b855162000122816200017c565b602087015190955062000135816200017c565b604087015190945062000148816200017c565b60608701519093506200015b816200017c565b60808701519092506200016e816200017c565b809150509295509295909350565b6001600160a01b03811681146200019257600080fd5b50565b60805160601c60a05160601c60c05160601c60e05160601c613ab2620002a6600039600081816108540152818161094c01528181610bb901528181610df401528181610e87015281816111d00152818161195d015281816119f0015261215d01526000818161034c01528181612d010152612d9401526000818161030d01528181612b300152818161316c0152818161336b01526133fe015260008181610796015281816109bd01528181610c3901528181610d2301528181610dc7015281816114670152818161188e0152818161193001528181611e590152818161259e01528181612a9201528181612cd401528181612e6701528181613011015281816131e7015261333e0152613ab26000f3fe608060405234801561001057600080fd5b50600436106102955760003560e01c80637adbf97311610167578063bd6d6306116100ce578063f2e69e5411610087578063f2e69e54146107cb578063f2fde38b146107de578063f7372ea0146107f1578063fa9f83c714610804578063fbf0ade11461083c578063fbfa77cf1461084f57600080fd5b8063bd6d630614610742578063c8cfe2c914610762578063cce7ec1314610775578063d5b2a01a14610788578063dce1748414610791578063e3b43677146107b857600080fd5b8063968a4f2211610120578063968a4f22146106705780639eebfb26146106a8578063a11269e5146106bb578063a53b9eea146106e6578063aad3ec961461071c578063baa283d31461072f57600080fd5b80637adbf973146105dd5780637dc0d1d0146105f05780638308d7e914610603578063859b97fe146106165780638c64628c146106295780638da5cb5b1461065f57600080fd5b80633c6fc8171161020b5780635b2e221b116101c45780635b2e221b146105035780635f102f9c1461052e5780636a272462146105415780636ee6d32014610554578063715018a6146105c257806374a46050146105ca57600080fd5b80633c6fc8171461040357806344f91c1e14610416578063453e93e51461047f5780634c33aa2e146104925780634dd6c8de146104a55780635419258d146104d057600080fd5b806316f3a95b1161025d57806316f3a95b146102f55780631d1dc6971461030857806320e5737114610347578063265aa6211461036e57806337afaf49146103815780633a1c83ac146103b757600080fd5b80630af2c6ca1461029a5780630affa6f1146102b15780630e030d6a146102ba5780630f41ba4b146102cf57806314738d3b146102e2575b600080fd5b600b545b6040519081526020015b60405180910390f35b61029e60025481565b6102cd6102c8366004613612565b610876565b005b61029e6102dd366004613612565b610a99565b61029e6102f0366004613805565b610f42565b6102cd610303366004613805565b610f83565b61032f7f000000000000000000000000000000000000000000000000000000000000000081565b6040516001600160a01b0390911681526020016102a8565b61032f7f000000000000000000000000000000000000000000000000000000000000000081565b61032f61037c36600461386c565b61107d565b61029e61038f366004613805565b6001600160a01b03919091166000908152600e60209081526040808320938352929052205490565b6103f56103c5366004613805565b600d602090815260009283526040808420909152908252902080546001909101546001600160a01b039091169082565b6040516102a89291906138c2565b6102cd610411366004613612565b6110a7565b61045a610424366004613805565b600f6020908152600092835260408084209091529082529020805460018201546002909201546001600160a01b03909116919083565b604080516001600160a01b0390941684526020840192909252908201526060016102a8565b6103f561048d366004613612565b611277565b6102cd6104a03660046136b6565b6112cb565b61029e6104b3366004613805565b600660209081526000928352604080842090915290825290205481565b6104f36104de3660046135af565b600a6020526000908152604090205460ff1681565b60405190151581526020016102a8565b61029e610511366004613805565b600360209081526000928352604080842090915290825290205481565b61029e61053c3660046135af565b61135d565b6102cd61054f366004613612565b6115c3565b6105986105623660046135af565b6009602052600090815260409020805460018201546002909201546001600160a01b03821692600160a01b90920460ff16919084565b604080516001600160a01b03909516855292151560208501529183015260608201526080016102a8565b6102cd61179d565b61029e6105d8366004613612565b6117dc565b6102cd6105eb3660046135af565b611a91565b60075461032f906001600160a01b031681565b6102cd610611366004613612565b611add565b6102cd610624366004613805565b611c76565b61029e610637366004613805565b6001600160a01b03919091166000908152601060209081526040808320938352929052205490565b6000546001600160a01b031661032f565b6104f361067e366004613805565b6001600160a01b039182166000908152600f60209081526040808320938352929052205416151590565b6102cd6106b6366004613805565b611da5565b61029e6106c9366004613805565b600560209081526000928352604080842090915290825290205481565b61029e6106f4366004613805565b6001600160a01b03919091166000908152600660209081526040808320938352929052205490565b6102cd61072a366004613805565b611f6b565b6102cd61073d366004613831565b612234565b61029e6107503660046135af565b600c6020526000908152604090205481565b6102cd610770366004613647565b612418565b6102cd610783366004613805565b6124ac565b61029e60085481565b61032f7f000000000000000000000000000000000000000000000000000000000000000081565b6103f56107c6366004613612565b612694565b6102cd6107d936600461371b565b6126bc565b6102cd6107ec3660046135af565b6129d0565b61029e6107ff366004613805565b612a6b565b6104f3610812366004613805565b6001600160a01b039182166000908152600d60209081526040808320938352929052205416151590565b6102cd61084a36600461386c565b612c6e565b61032f7f000000000000000000000000000000000000000000000000000000000000000081565b6001600160a01b0383166000908152600e60209081526040808320858452909152812080549091908290849081106108b0576108b0613a3b565b60009182526020918290206040805180820190915260029092020180546001600160a01b031680835260019091015492820192909252915033146108f357600080fd5b6020810151825483908590811061090c5761090c613a3b565b6000918252602082206002919091020180546001600160a01b031916815560010155604051632e1a7d4d60e01b8152600481018290526001600160a01b037f00000000000000000000000000000000000000000000000000000000000000001690632e1a7d4d90602401600060405180830381600087803b15801561099057600080fd5b505af11580156109a4573d6000803e3d6000fd5b505060405163a9059cbb60e01b81526001600160a01b037f000000000000000000000000000000000000000000000000000000000000000016925063a9059cbb91506109f690339085906004016138c2565b602060405180830381600087803b158015610a1057600080fd5b505af1158015610a24573d6000803e3d6000fd5b505050506040513d601f19601f82011682018060405250810190610a4891906135f0565b5081516040516001600160a01b03918216815285918791908916907f1a99e8401ad0f5c42a44ff151af1dd043e4abef0362617d113662727868e64ce906020015b60405180910390a4505050505050565b6001600160a01b038084166000908152600f60209081526040808320868452825280832081516060810183528154909516808652600182015493860193909352600201549084015290919015801590610af55750806040015143105b610afe57600080fd5b6001600160a01b038516600090815260106020908152604080832087845290915290208054925082610b40578382602001511115610b3b57600080fd5b610cc5565b600081610b4e600186613a0e565b81548110610b5e57610b5e613a3b565b60009182526020918290206040805180820190915260029092020180546001600160a01b031682526001015491810182905291508511610b9d57600080fd5b6020810151604051632e1a7d4d60e01b815260048101919091527f00000000000000000000000000000000000000000000000000000000000000006001600160a01b031690632e1a7d4d90602401600060405180830381600087803b158015610c0557600080fd5b505af1158015610c19573d6000803e3d6000fd5b50508251602084015160405163a9059cbb60e01b81526001600160a01b037f000000000000000000000000000000000000000000000000000000000000000016945063a9059cbb9350610c709291906004016138c2565b602060405180830381600087803b158015610c8a57600080fd5b505af1158015610c9e573d6000803e3d6000fd5b505050506040513d601f19601f82011682018060405250810190610cc291906135f0565b50505b6040805180820182523380825260208083018881528554600180820188556000888152939093209451600290910290940180546001600160a01b0319166001600160a01b03958616178155905191015591516323b872dd60e01b81527f0000000000000000000000000000000000000000000000000000000000000000909116916323b872dd91610d5d91903090899060040161389e565b602060405180830381600087803b158015610d7757600080fd5b505af1158015610d8b573d6000803e3d6000fd5b505050506040513d601f19601f82011682018060405250810190610daf91906135f0565b5060405163095ea7b360e01b81526001600160a01b037f0000000000000000000000000000000000000000000000000000000000000000169063095ea7b390610e1e907f00000000000000000000000000000000000000000000000000000000000000009088906004016138c2565b602060405180830381600087803b158015610e3857600080fd5b505af1158015610e4c573d6000803e3d6000fd5b505050506040513d601f19601f82011682018060405250810190610e7091906135f0565b5060405163b6b55f2560e01b8152600481018590527f00000000000000000000000000000000000000000000000000000000000000006001600160a01b03169063b6b55f2590602401600060405180830381600087803b158015610ed357600080fd5b505af1158015610ee7573d6000803e3d6000fd5b50505050336001600160a01b031685876001600160a01b03167f7f863cab1b412077be133ef69af7df0e6aca4c67ff7d89db843d601f124a025d87604051610f3191815260200190565b60405180910390a450509392505050565b6001600160a01b0382166000908152600660209081526040808320848452909152812054610f708484612a6b565b610f7a9190613a0e565b90505b92915050565b6001600160a01b038083166000908152600d6020908152604080832085845290915290205416338114610fb557600080fd5b6040516323b872dd60e01b81526001600160a01b038416906323b872dd90610fe59030908590879060040161389e565b600060405180830381600087803b158015610fff57600080fd5b505af1158015611013573d6000803e3d6000fd5b5050506001600160a01b0384166000818152600d6020908152604080832087845290915280822080546001600160a01b0319168155600101829055513393508592917fc14de1e0640c6a4e914f570610341c22dcf6a3a940582f767b41c8802a94b4b491a4505050565b600b818154811061108d57600080fd5b6000918252602090912001546001600160a01b0316905081565b6001600160a01b0383166000908152600e60209081526040808320858452909152812080549091908290849081106110e1576110e1613a3b565b6000918252602091829020604080518082018252600290930290910180546001600160a01b039081168085526001909201549484019490945290516323b872dd60e01b8152919350918716916323b872dd91611143913391899060040161389e565b600060405180830381600087803b15801561115d57600080fd5b505af1158015611171573d6000803e3d6000fd5b5050505060008160200151905082848154811061119057611190613a3b565b6000918252602082206002919091020180546001600160a01b031916815560010155604051632e1a7d4d60e01b8152600481018290526001600160a01b037f00000000000000000000000000000000000000000000000000000000000000001690632e1a7d4d90602401600060405180830381600087803b15801561121457600080fd5b505af1158015611228573d6000803e3d6000fd5b5050505061123886863384612c9d565b604051338152849086906001600160a01b038916907f464e2668c1227b2db98a77a3752380089500f8cd3e641a33e0aa2437c978a1a990602001610a89565b6010602052826000526040600020602052816000526040600020818154811061129f57600080fd5b6000918252602090912060029091020180546001909101546001600160a01b0390911693509150839050565b604051637ac2ff7b60e01b8152306004820152602481018790526044810185905260ff841660648201526084810183905260a481018290526001600160a01b03881690637ac2ff7b9060c401600060405180830381600087803b15801561133157600080fd5b505af1158015611345573d6000803e3d6000fd5b505050506113548787876115c3565b50505050505050565b600080826001600160a01b0316636817c76c6040518163ffffffff1660e01b815260040160206040518083038186803b15801561139957600080fd5b505afa1580156113ad573d6000803e3d6000fd5b505050506040513d601f19601f820116820180604052508101906113d19190613885565b6040516335313c2160e11b81523360048201529091506001600160a01b03841690636a62784290602401602060405180830381600087803b15801561141557600080fd5b505af1158015611429573d6000803e3d6000fd5b505050506040513d601f19601f8201168201806040525081019061144d9190613885565b6040516323b872dd60e01b81529092506001600160a01b037f000000000000000000000000000000000000000000000000000000000000000016906323b872dd906114a09033903090869060040161389e565b602060405180830381600087803b1580156114ba57600080fd5b505af11580156114ce573d6000803e3d6000fd5b505050506040513d601f19601f820116820180604052508101906114f291906135f0565b5061156f8383856001600160a01b031663d5f394886040518163ffffffff1660e01b815260040160206040518083038186803b15801561153157600080fd5b505afa158015611545573d6000803e3d6000fd5b505050506040513d601f19601f8201168201806040525081019061156991906135d3565b84612c9d565b336001600160a01b031682846001600160a01b03167f6b7718bbd8461683e1304f0e70287ff54fd29521002870719e04d687ae4318be846040516115b591815260200190565b60405180910390a450919050565b6001600160a01b038084166000908152600960205260409020548491166115e957600080fd5b6040516331a9108f60e11b81526004810184905233906001600160a01b03861690636352211e9060240160206040518083038186803b15801561162b57600080fd5b505afa15801561163f573d6000803e3d6000fd5b505050506040513d601f19601f8201168201806040525081019061166391906135d3565b6001600160a01b03161480156116a157506001600160a01b038481166000908152600f60209081526040808320878452909152902054161515600114155b6116aa57600080fd5b6040516323b872dd60e01b81526001600160a01b038516906323b872dd906116da9033903090889060040161389e565b600060405180830381600087803b1580156116f457600080fd5b505af1158015611708573d6000803e3d6000fd5b50506040805180820182523380825260208083018881526001600160a01b038b81166000818152600d85528781208d82528552879020955186546001600160a01b03191692169190911785559051600190940193909355925187815290945087935090917f463904c4b0359ad674399537c3d4e4e44acc0b0dd259453d17329fd9b4be52c0910160405180910390a450505050565b6000546001600160a01b031633146117d05760405162461bcd60e51b81526004016117c7906138db565b60405180910390fd5b6117da60006130fe565b565b6001600160a01b03808416600090815260096020526040812054909185911661180457600080fd5b6000831161181157600080fd5b6001600160a01b038581166000908152600e602090815260408083208884528252808320805482518084018452338082528186018b8152600180850186558589529690972091516002840290920180546001600160a01b031916928916929092178255955194019390935590516323b872dd60e01b8152919550927f000000000000000000000000000000000000000000000000000000000000000016916323b872dd916118c691903090899060040161389e565b602060405180830381600087803b1580156118e057600080fd5b505af11580156118f4573d6000803e3d6000fd5b505050506040513d601f19601f8201168201806040525081019061191891906135f0565b5060405163095ea7b360e01b81526001600160a01b037f0000000000000000000000000000000000000000000000000000000000000000169063095ea7b390611987907f00000000000000000000000000000000000000000000000000000000000000009088906004016138c2565b602060405180830381600087803b1580156119a157600080fd5b505af11580156119b5573d6000803e3d6000fd5b505050506040513d601f19601f820116820180604052508101906119d991906135f0565b5060405163b6b55f2560e01b8152600481018590527f00000000000000000000000000000000000000000000000000000000000000006001600160a01b03169063b6b55f2590602401600060405180830381600087803b158015611a3c57600080fd5b505af1158015611a50573d6000803e3d6000fd5b505050508285876001600160a01b03167f3498cca8289a0669e68756645378ec9f14f109147d58fc24e0bbbca63969ac2a3388604051610f319291906138c2565b6000546001600160a01b03163314611abb5760405162461bcd60e51b81526004016117c7906138db565b600780546001600160a01b0319166001600160a01b0392909216919091179055565b336001600160a01b0316836001600160a01b031663d5f394886040518163ffffffff1660e01b815260040160206040518083038186803b158015611b2057600080fd5b505afa158015611b34573d6000803e3d6000fd5b505050506040513d601f19601f82011682018060405250810190611b5891906135d3565b6001600160a01b0316148015611b7057506103e88210155b8015611b7e57506127108211155b8015611b8c57506103e88111155b611b9557600080fd5b6001600160a01b038381166000908152600960205260409020541615611c0157600b80546001810182556000919091527f0175b7a638427703f0dbe7bb9bbf987a2551717b34e79f33b5b1008d1fa01db90180546001600160a01b0319166001600160a01b0385161790555b6040805160808101825233815260016020808301828152838501968752606084019586526001600160a01b03978816600090815260099092529390209151825493511515600160a01b026001600160a81b03199094169616959095179190911781559151928201929092559051600290910155565b6001600160a01b038216600090815260106020908152604080832084845290915290205415611ca457600080fd5b6001600160a01b038083166000908152600f6020908152604080832085845290915290205416338114611cd657600080fd5b6040516323b872dd60e01b81526001600160a01b038416906323b872dd90611d069030908590879060040161389e565b600060405180830381600087803b158015611d2057600080fd5b505af1158015611d34573d6000803e3d6000fd5b5050506001600160a01b0384166000818152600f6020908152604080832087845290915280822080546001600160a01b031916815560018101839055600201829055513393508592917f26d4510b556e779d6507640413e013206e44c8f5d018c7c74ed8926f3f024a9c91a4505050565b611dad61314e565b6000611db983836132f1565b90508015611f66576001600160a01b038316600090815260066020908152604080832085845290915281208054839290611df4908490613951565b9091555050604051818152339083906001600160a01b038616907ff371029fbeb9d5ccc35b0e98232fa84414b7f053cebed0eb401b6640fbf9716c9060200160405180910390a46040516331a9108f60e11b8152600481018390526001600160a01b037f000000000000000000000000000000000000000000000000000000000000000081169163a9059cbb91861690636352211e9060240160206040518083038186803b158015611ea557600080fd5b505afa158015611eb9573d6000803e3d6000fd5b505050506040513d601f19601f82011682018060405250810190611edd91906135d3565b836040518363ffffffff1660e01b8152600401611efb9291906138c2565b602060405180830381600087803b158015611f1557600080fd5b505af1158015611f29573d6000803e3d6000fd5b505050506040513d601f19601f82011682018060405250810190611f4d91906135f0565b508060016000828254611f609190613a0e565b90915550505b505050565b6001600160a01b038083166000818152600f602090815260408083208684528252808320815160608101835281549096168652600181015486840152600201548582015292825260108152828220858352815282822080548451818402810184019095528085529293929091849084015b82821015612024576000848152602090819020604080518082019091526002850290910180546001600160a01b03168252600190810154828401529083529092019101611fdc565b5050505090506000816001835161203b9190613a0e565b8151811061204b5761204b613a3b565b60200260200101519050336001600160a01b031681600001516001600160a01b031614801561207e575082604001514310155b61208757600080fd5b6001600160a01b0385166000818152600f60209081526040808320888452825280832080546001600160a01b0319168155600181018490556002018390559282526010815282822087835290529081206120e091613553565b6040516323b872dd60e01b81526001600160a01b038616906323b872dd906121109030903390899060040161389e565b600060405180830381600087803b15801561212a57600080fd5b505af115801561213e573d6000803e3d6000fd5b5050506020820151604051632e1a7d4d60e01b81526001600160a01b037f0000000000000000000000000000000000000000000000000000000000000000169250632e1a7d4d916121959160040190815260200190565b600060405180830381600087803b1580156121af57600080fd5b505af11580156121c3573d6000803e3d6000fd5b505050506121db858585600001518460200151612c9d565b336001600160a01b031684866001600160a01b03167fad03f837a9207e368d73ec028e1f54428184da8cfea258cc116da2225f3ac5eb846020015160405161222591815260200190565b60405180910390a45050505050565b6001600160a01b0380851660009081526009602052604090205485911661225a57600080fd5b6040516331a9108f60e11b81526004810185905233906001600160a01b03871690636352211e9060240160206040518083038186803b15801561229c57600080fd5b505afa1580156122b0573d6000803e3d6000fd5b505050506040513d601f19601f820116820180604052508101906122d491906135d3565b6001600160a01b031614801561231257506001600160a01b038581166000908152600d60209081526040808320888452909152902054161515600114155b61231b57600080fd5b6040516323b872dd60e01b81526001600160a01b038616906323b872dd9061234b9033903090899060040161389e565b600060405180830381600087803b15801561236557600080fd5b505af1158015612379573d6000803e3d6000fd5b5050604080516060810182523380825260208083018981528385018981526001600160a01b038d81166000818152600f86528881208f82528652889020965187546001600160a01b03191692169190911786559151600186015551600290940193909355835189815290810188905290945088935090917f9b80d6af20a468c7a9f15b75aac831f1f047746133d24ee55cd289442114a9909101612225565b604051637ac2ff7b60e01b8152306004820152602481018890526044810185905260ff841660648201526084810183905260a481018290526001600160a01b03891690637ac2ff7b9060c401600060405180830381600087803b15801561247e57600080fd5b505af1158015612492573d6000803e3d6000fd5b505050506124a288888888612234565b5050505050505050565b6001600160a01b038083166000908152600d602090815260408083208584528252918290208251808401909352805490931680835260019093015490820152906124f557600080fd5b6001600160a01b0383166000818152600d6020908152604080832086845290915280822080546001600160a01b031916815560010191909155516323b872dd60e01b81526323b872dd906125519030903390879060040161389e565b600060405180830381600087803b15801561256b57600080fd5b505af115801561257f573d6000803e3d6000fd5b50505060208201516040516323b872dd60e01b81526001600160a01b037f00000000000000000000000000000000000000000000000000000000000000001692506323b872dd916125d6913391309160040161389e565b602060405180830381600087803b1580156125f057600080fd5b505af1158015612604573d6000803e3d6000fd5b505050506040513d601f19601f8201168201806040525081019061262891906135f0565b5061263d838383600001518460200151612c9d565b336001600160a01b031682846001600160a01b03167fa76261e4127b2ebc809716d704216602fdaee4ae5b72745ed9aec0d7bd73b75d846020015160405161268791815260200190565b60405180910390a4505050565b600e602052826000526040600020602052816000526040600020818154811061129f57600080fd5b805160411461270d5760405162461bcd60e51b815260206004820152601860248201527f696e76616c6964207369676e6174757265206c656e677468000000000000000060448201526064016117c7565b6040516bffffffffffffffffffffffff1933606090811b8216602084015287811b8216603484015286901b166048820152605c8101849052607c8101839052600090609c0160408051601f198184030181529082905280516020918201207f19457468657265756d205369676e6564204d6573736167653a0a33320000000091830191909152603c82018190529150605c0160408051601f19818403018152918152815160209283012091840151908401516060850151929350909160001a601b8110156127e3576127e0601b82613969565b90505b8060ff16601b14806127f857508060ff16601c145b6128445760405162461bcd60e51b815260206004820152601960248201527f696e76616c6964207369676e61747572652076657273696f6e0000000000000060448201526064016117c7565b60075460408051600081526020810180835287905260ff84169181019190915260608101859052608081018490526001600160a01b039091169060019060a0016020604051602081039080840390855afa1580156128a6573d6000803e3d6000fd5b505050602060405103516001600160a01b0316146128c357600080fd5b6103e887101580156128d757506127108711155b80156128e557506103e88611155b6128ee57600080fd5b6001600160a01b03898116600090815260096020526040902054161561295a57600b80546001810182556000919091527f0175b7a638427703f0dbe7bb9bbf987a2551717b34e79f33b5b1008d1fa01db90180546001600160a01b0319166001600160a01b038b161790555b5050604080516080810182526001600160a01b03978816815260006020808301828152838501998a52606084019889529a8a16825260099052919091209051815498511515600160a01b026001600160a81b03199099169716969096179690961785555050905160018301555160029091015550565b6000546001600160a01b031633146129fa5760405162461bcd60e51b81526004016117c7906138db565b6001600160a01b038116612a5f5760405162461bcd60e51b815260206004820152602660248201527f4f776e61626c653a206e6577206f776e657220697320746865207a65726f206160448201526564647265737360d01b60648201526084016117c7565b612a68816130fe565b50565b6004546002546000919015612c64576040516370a0823160e01b81523060048201526000907f00000000000000000000000000000000000000000000000000000000000000006001600160a01b0316906370a082319060240160206040518083038186803b158015612adc57600080fd5b505afa158015612af0573d6000803e3d6000fd5b505050506040513d601f19601f82011682018060405250810190612b149190613885565b604051631175a1dd60e01b8152600060048201523060248201527f00000000000000000000000000000000000000000000000000000000000000006001600160a01b031690631175a1dd9060440160206040518083038186803b158015612b7a57600080fd5b505afa158015612b8e573d6000803e3d6000fd5b505050506040513d601f19601f82011682018060405250810190612bb29190613885565b612bbc9190613951565b9050600060015482612bce9190613a0e565b90508015612bfe57600254612be7600160801b836139b0565b612bf1919061398e565b612bfb9084613951565b92505b6001600160a01b038616600081815260056020908152604080832089845282528083205493835260038252808320898452909152902054600160801b9190612c4690866139b0565b612c509190613910565b612c5a919061398e565b9350505050610f7d565b5060009392505050565b6000546001600160a01b03163314612c985760405162461bcd60e51b81526004016117c7906138db565b600855565b600061271060085483612cb091906139b0565b612cba919061398e565b60405163095ea7b360e01b81529091506001600160a01b037f0000000000000000000000000000000000000000000000000000000000000000169063095ea7b390612d2b907f00000000000000000000000000000000000000000000000000000000000000009085906004016138c2565b602060405180830381600087803b158015612d4557600080fd5b505af1158015612d59573d6000803e3d6000fd5b505050506040513d601f19601f82011682018060405250810190612d7d91906135f0565b5060405163b6b55f2560e01b8152600481018290527f00000000000000000000000000000000000000000000000000000000000000006001600160a01b03169063b6b55f2590602401600060405180830381600087803b158015612de057600080fd5b505af1158015612df4573d6000803e3d6000fd5b505050506001600160a01b038581166000908152600960209081526040808320815160808101835281549586168152600160a01b90950460ff16151592850192909252600182015490840152600201546060830181905261271090612e5990866139b0565b612e63919061398e565b90507f00000000000000000000000000000000000000000000000000000000000000006001600160a01b031663a9059cbb836020015115156001151514612eab578351612f23565b60405163cd7e10c160e01b8152600481018990526001600160a01b038a169063cd7e10c19060240160206040518083038186803b158015612eeb57600080fd5b505afa158015612eff573d6000803e3d6000fd5b505050506040513d601f19601f82011682018060405250810190612f2391906135d3565b836040518363ffffffff1660e01b8152600401612f419291906138c2565b602060405180830381600087803b158015612f5b57600080fd5b505af1158015612f6f573d6000803e3d6000fd5b505050506040513d601f19601f82011682018060405250810190612f9391906135f0565b506001600160a01b0387166000908152600a602052604081205460ff16151560011461300757612710836040015186612fcc91906139b0565b612fd6919061398e565b9050612fe388888361331f565b6001600160a01b0388166000908152600a60205260409020805460ff191660011790555b6001600160a01b037f00000000000000000000000000000000000000000000000000000000000000001663a9059cbb878385613043898b613a0e565b61304d9190613a0e565b6130579190613a0e565b6040518363ffffffff1660e01b81526004016130749291906138c2565b602060405180830381600087803b15801561308e57600080fd5b505af11580156130a2573d6000803e3d6000fd5b505050506040513d601f19601f820116820180604052508101906130c691906135f0565b506001600160a01b0388166000908152600c6020526040812080548792906130ef908490613951565b90915550505050505050505050565b600080546001600160a01b038381166001600160a01b0319831681178455604051919092169283917f8be0079c531659141344cd1fd0a4f28419497f9722a3daafe3b4186f6b6457e09190a35050565b600254156117da57604051631058d28160e01b8152600060048201527f00000000000000000000000000000000000000000000000000000000000000006001600160a01b031690631058d28190602401600060405180830381600087803b1580156131b857600080fd5b505af11580156131cc573d6000803e3d6000fd5b50506040516370a0823160e01b8152306004820152600092507f00000000000000000000000000000000000000000000000000000000000000006001600160a01b031691506370a082319060240160206040518083038186803b15801561323257600080fd5b505afa158015613246573d6000803e3d6000fd5b505050506040513d601f19601f8201168201806040525081019061326a9190613885565b905060006001548261327c9190613a0e565b905080156132eb57600254613295600160801b836139b0565b61329f919061398e565b600460008282546132b09190613951565b909155505060405181815233907f7e3443847968b8ae43a305870aa25aa7fc542ea63833182a4b715b3f82cd01619060200160405180910390a25b50600155565b6001600160a01b0382166000908152600660209081526040808320848452909152812054610f7084846134f2565b61332761314e565b60405163095ea7b360e01b81526001600160a01b037f0000000000000000000000000000000000000000000000000000000000000000169063095ea7b390613395907f00000000000000000000000000000000000000000000000000000000000000009085906004016138c2565b602060405180830381600087803b1580156133af57600080fd5b505af11580156133c3573d6000803e3d6000fd5b505050506040513d601f19601f820116820180604052508101906133e791906135f0565b506040516341441d3b60e01b8152600481018290527f00000000000000000000000000000000000000000000000000000000000000006001600160a01b0316906341441d3b90602401600060405180830381600087803b15801561344a57600080fd5b505af115801561345e573d6000803e3d6000fd5b5050505080600260008282546134749190613951565b90915550506001600160a01b0383166000908152600360209081526040808320858452909152812080548392906134ac908490613951565b90915550506004546134bf9082906139b0565b6001600160a01b038416600090815260056020908152604080832086845290915281208054909190611f609084906139cf565b6001600160a01b0382166000818152600560209081526040808320858452825280832054938352600382528083208584529091528120546004549192600160801b92909161353f916139b0565b6135499190613910565b610f7a919061398e565b5080546000825560020290600052602060002090810190612a6891905b808211156135955780546001600160a01b031916815560006001820155600201613570565b5090565b803560ff811681146135aa57600080fd5b919050565b6000602082840312156135c157600080fd5b81356135cc81613a67565b9392505050565b6000602082840312156135e557600080fd5b81516135cc81613a67565b60006020828403121561360257600080fd5b815180151581146135cc57600080fd5b60008060006060848603121561362757600080fd5b833561363281613a67565b95602085013595506040909401359392505050565b600080600080600080600080610100898b03121561366457600080fd5b883561366f81613a67565b97506020890135965060408901359550606089013594506080890135935061369960a08a01613599565b925060c0890135915060e089013590509295985092959890939650565b600080600080600080600060e0888a0312156136d157600080fd5b87356136dc81613a67565b96506020880135955060408801359450606088013593506136ff60808901613599565b925060a0880135915060c0880135905092959891949750929550565b600080600080600060a0868803121561373357600080fd5b853561373e81613a67565b9450602086013561374e81613a67565b93506040860135925060608601359150608086013567ffffffffffffffff8082111561377957600080fd5b818801915088601f83011261378d57600080fd5b81358181111561379f5761379f613a51565b604051601f8201601f19908116603f011681019083821181831017156137c7576137c7613a51565b816040528281528b60208487010111156137e057600080fd5b8260208601602083013760006020848301015280955050505050509295509295909350565b6000806040838503121561381857600080fd5b823561382381613a67565b946020939093013593505050565b6000806000806080858703121561384757600080fd5b843561385281613a67565b966020860135965060408601359560600135945092505050565b60006020828403121561387e57600080fd5b5035919050565b60006020828403121561389757600080fd5b5051919050565b6001600160a01b039384168152919092166020820152604081019190915260600190565b6001600160a01b03929092168252602082015260400190565b6020808252818101527f4f776e61626c653a2063616c6c6572206973206e6f7420746865206f776e6572604082015260600190565b600080821280156001600160ff1b038490038513161561393257613932613a25565b600160ff1b839003841281161561394b5761394b613a25565b50500190565b6000821982111561396457613964613a25565b500190565b600060ff821660ff84168060ff0382111561398657613986613a25565b019392505050565b6000826139ab57634e487b7160e01b600052601260045260246000fd5b500490565b60008160001904831182151516156139ca576139ca613a25565b500290565b60008083128015600160ff1b8501841216156139ed576139ed613a25565b6001600160ff1b0384018313811615613a0857613a08613a25565b50500390565b600082821015613a2057613a20613a25565b500390565b634e487b7160e01b600052601160045260246000fd5b634e487b7160e01b600052603260045260246000fd5b634e487b7160e01b600052604160045260246000fd5b6001600160a01b0381168114612a6857600080fdfea264697066735822122078cbda4d30c416f3b2936585925be26138302fc0d7b70dd9634b062a265815b564736f6c63430008050033",
    "linkReferences": {},
    "deployedLinkReferences": {}
}