{
    "_format": "hh-sol-artifact-1",
    "contractName": "CakeSimpleNFTV1",
    "sourceName": "contracts/CakeSimpleNFTV1.sol",
    "abi": [
        {
            "inputs": [],
            "stateMutability": "nonpayable",
            "type": "constructor"
        },
        {
            "anonymous": false,
            "inputs": [
                {
                    "indexed": true,
                    "internalType": "address",
                    "name": "owner",
                    "type": "address"
                },
                {
                    "indexed": true,
                    "internalType": "address",
                    "name": "approved",
                    "type": "address"
                },
                {
                    "indexed": true,
                    "internalType": "uint256",
                    "name": "tokenId",
                    "type": "uint256"
                }
            ],
            "name": "Approval",
            "type": "event"
        },
        {
            "anonymous": false,
            "inputs": [
                {
                    "indexed": true,
                    "internalType": "address",
                    "name": "owner",
                    "type": "address"
                },
                {
                    "indexed": true,
                    "internalType": "address",
                    "name": "operator",
                    "type": "address"
                },
                {
                    "indexed": false,
                    "internalType": "bool",
                    "name": "approved",
                    "type": "bool"
                }
            ],
            "name": "ApprovalForAll",
            "type": "event"
        },
        {
            "anonymous": false,
            "inputs": [
                {
                    "indexed": true,
                    "internalType": "address",
                    "name": "from",
                    "type": "address"
                },
                {
                    "indexed": true,
                    "internalType": "address",
                    "name": "to",
                    "type": "address"
                },
                {
                    "indexed": true,
                    "internalType": "uint256",
                    "name": "tokenId",
                    "type": "uint256"
                }
            ],
            "name": "Transfer",
            "type": "event"
        },
        {
            "inputs": [],
            "name": "DOMAIN_SEPARATOR",
            "outputs": [
                {
                    "internalType": "bytes32",
                    "name": "",
                    "type": "bytes32"
                }
            ],
            "stateMutability": "view",
            "type": "function"
        },
        {
            "inputs": [],
            "name": "PERMIT_TYPEHASH",
            "outputs": [
                {
                    "internalType": "bytes32",
                    "name": "",
                    "type": "bytes32"
                }
            ],
            "stateMutability": "view",
            "type": "function"
        },
        {
            "inputs": [
                {
                    "internalType": "address",
                    "name": "to",
                    "type": "address"
                },
                {
                    "internalType": "uint256",
                    "name": "tokenId",
                    "type": "uint256"
                }
            ],
            "name": "approve",
            "outputs": [],
            "stateMutability": "nonpayable",
            "type": "function"
        },
        {
            "inputs": [
                {
                    "internalType": "uint256",
                    "name": "",
                    "type": "uint256"
                }
            ],
            "name": "artists",
            "outputs": [
                {
                    "internalType": "address",
                    "name": "",
                    "type": "address"
                }
            ],
            "stateMutability": "view",
            "type": "function"
        },
        {
            "inputs": [
                {
                    "internalType": "address",
                    "name": "owner",
                    "type": "address"
                }
            ],
            "name": "balanceOf",
            "outputs": [
                {
                    "internalType": "uint256",
                    "name": "",
                    "type": "uint256"
                }
            ],
            "stateMutability": "view",
            "type": "function"
        },
        {
            "inputs": [
                {
                    "internalType": "uint256",
                    "name": "id",
                    "type": "uint256"
                }
            ],
            "name": "burn",
            "outputs": [],
            "stateMutability": "nonpayable",
            "type": "function"
        },
        {
            "inputs": [],
            "name": "count",
            "outputs": [
                {
                    "internalType": "uint256",
                    "name": "",
                    "type": "uint256"
                }
            ],
            "stateMutability": "view",
            "type": "function"
        },
        {
            "inputs": [],
            "name": "deployer",
            "outputs": [
                {
                    "internalType": "address",
                    "name": "",
                    "type": "address"
                }
            ],
            "stateMutability": "view",
            "type": "function"
        },
        {
            "inputs": [
                {
                    "internalType": "uint256",
                    "name": "tokenId",
                    "type": "uint256"
                }
            ],
            "name": "getApproved",
            "outputs": [
                {
                    "internalType": "address",
                    "name": "",
                    "type": "address"
                }
            ],
            "stateMutability": "view",
            "type": "function"
        },
        {
            "inputs": [
                {
                    "internalType": "address",
                    "name": "owner",
                    "type": "address"
                },
                {
                    "internalType": "address",
                    "name": "operator",
                    "type": "address"
                }
            ],
            "name": "isApprovedForAll",
            "outputs": [
                {
                    "internalType": "bool",
                    "name": "",
                    "type": "bool"
                }
            ],
            "stateMutability": "view",
            "type": "function"
        },
        {
            "inputs": [],
            "name": "mint",
            "outputs": [
                {
                    "internalType": "uint256",
                    "name": "id",
                    "type": "uint256"
                }
            ],
            "stateMutability": "nonpayable",
            "type": "function"
        },
        {
            "inputs": [],
            "name": "name",
            "outputs": [
                {
                    "internalType": "string",
                    "name": "",
                    "type": "string"
                }
            ],
            "stateMutability": "view",
            "type": "function"
        },
        {
            "inputs": [
                {
                    "internalType": "uint256",
                    "name": "",
                    "type": "uint256"
                }
            ],
            "name": "nonces",
            "outputs": [
                {
                    "internalType": "uint256",
                    "name": "",
                    "type": "uint256"
                }
            ],
            "stateMutability": "view",
            "type": "function"
        },
        {
            "inputs": [
                {
                    "internalType": "uint256",
                    "name": "tokenId",
                    "type": "uint256"
                }
            ],
            "name": "ownerOf",
            "outputs": [
                {
                    "internalType": "address",
                    "name": "",
                    "type": "address"
                }
            ],
            "stateMutability": "view",
            "type": "function"
        },
        {
            "inputs": [
                {
                    "internalType": "address",
                    "name": "spender",
                    "type": "address"
                },
                {
                    "internalType": "uint256",
                    "name": "id",
                    "type": "uint256"
                },
                {
                    "internalType": "uint256",
                    "name": "deadline",
                    "type": "uint256"
                },
                {
                    "internalType": "uint8",
                    "name": "v",
                    "type": "uint8"
                },
                {
                    "internalType": "bytes32",
                    "name": "r",
                    "type": "bytes32"
                },
                {
                    "internalType": "bytes32",
                    "name": "s",
                    "type": "bytes32"
                }
            ],
            "name": "permit",
            "outputs": [],
            "stateMutability": "nonpayable",
            "type": "function"
        },
        {
            "inputs": [
                {
                    "internalType": "address",
                    "name": "from",
                    "type": "address"
                },
                {
                    "internalType": "address",
                    "name": "to",
                    "type": "address"
                },
                {
                    "internalType": "uint256",
                    "name": "tokenId",
                    "type": "uint256"
                }
            ],
            "name": "safeTransferFrom",
            "outputs": [],
            "stateMutability": "nonpayable",
            "type": "function"
        },
        {
            "inputs": [
                {
                    "internalType": "address",
                    "name": "from",
                    "type": "address"
                },
                {
                    "internalType": "address",
                    "name": "to",
                    "type": "address"
                },
                {
                    "internalType": "uint256",
                    "name": "tokenId",
                    "type": "uint256"
                },
                {
                    "internalType": "bytes",
                    "name": "_data",
                    "type": "bytes"
                }
            ],
            "name": "safeTransferFrom",
            "outputs": [],
            "stateMutability": "nonpayable",
            "type": "function"
        },
        {
            "inputs": [
                {
                    "internalType": "address",
                    "name": "operator",
                    "type": "address"
                },
                {
                    "internalType": "bool",
                    "name": "approved",
                    "type": "bool"
                }
            ],
            "name": "setApprovalForAll",
            "outputs": [],
            "stateMutability": "nonpayable",
            "type": "function"
        },
        {
            "inputs": [
                {
                    "internalType": "bytes4",
                    "name": "interfaceId",
                    "type": "bytes4"
                }
            ],
            "name": "supportsInterface",
            "outputs": [
                {
                    "internalType": "bool",
                    "name": "",
                    "type": "bool"
                }
            ],
            "stateMutability": "view",
            "type": "function"
        },
        {
            "inputs": [],
            "name": "symbol",
            "outputs": [
                {
                    "internalType": "string",
                    "name": "",
                    "type": "string"
                }
            ],
            "stateMutability": "view",
            "type": "function"
        },
        {
            "inputs": [
                {
                    "internalType": "uint256",
                    "name": "index",
                    "type": "uint256"
                }
            ],
            "name": "tokenByIndex",
            "outputs": [
                {
                    "internalType": "uint256",
                    "name": "",
                    "type": "uint256"
                }
            ],
            "stateMutability": "view",
            "type": "function"
        },
        {
            "inputs": [
                {
                    "internalType": "address",
                    "name": "owner",
                    "type": "address"
                },
                {
                    "internalType": "uint256",
                    "name": "index",
                    "type": "uint256"
                }
            ],
            "name": "tokenOfOwnerByIndex",
            "outputs": [
                {
                    "internalType": "uint256",
                    "name": "",
                    "type": "uint256"
                }
            ],
            "stateMutability": "view",
            "type": "function"
        },
        {
            "inputs": [
                {
                    "internalType": "uint256",
                    "name": "tokenId",
                    "type": "uint256"
                }
            ],
            "name": "tokenURI",
            "outputs": [
                {
                    "internalType": "string",
                    "name": "",
                    "type": "string"
                }
            ],
            "stateMutability": "view",
            "type": "function"
        },
        {
            "inputs": [],
            "name": "totalSupply",
            "outputs": [
                {
                    "internalType": "uint256",
                    "name": "",
                    "type": "uint256"
                }
            ],
            "stateMutability": "view",
            "type": "function"
        },
        {
            "inputs": [
                {
                    "internalType": "address",
                    "name": "from",
                    "type": "address"
                },
                {
                    "internalType": "address",
                    "name": "to",
                    "type": "address"
                },
                {
                    "internalType": "uint256",
                    "name": "tokenId",
                    "type": "uint256"
                }
            ],
            "name": "transferFrom",
            "outputs": [],
            "stateMutability": "nonpayable",
            "type": "function"
        },
        {
            "inputs": [],
            "name": "version",
            "outputs": [
                {
                    "internalType": "string",
                    "name": "",
                    "type": "string"
                }
            ],
            "stateMutability": "pure",
            "type": "function"
        }
    ],
    "bytecode": "0x60806040526000600b553480156200001657600080fd5b50604080518082018252601281527143616b652053696d706c65204e465420563160701b60208083019182528351808501909452600584526410d4d3919560da1b9084015281519192916200006e9160009162000178565b5080516200008490600190602084019062000178565b5050600a80546001600160a01b0319163317905550604080518082018252601281527143616b652053696d706c65204e465420563160701b6020918201528151808301835260018152603160f81b9082015281517f8b73c3c69bb8fe3d512ecc4cf759cc79239f7b179b0ffacaa9a75d522b39400f818301527f0aac6a05d96237081eff621c5b066322088b836e16a63257598e921a1056fb38818401527fc89efdaa54c0f20c7adf612882df0950f5a951637e0307cdcb4c672f298b8bc660608201524660808201523060a0808301919091528351808303909101815260c09091019092528151910120600c556200025b565b82805462000186906200021e565b90600052602060002090601f016020900481019282620001aa5760008555620001f5565b82601f10620001c557805160ff1916838001178555620001f5565b82800160010185558215620001f5579182015b82811115620001f5578251825591602001919060010190620001d8565b506200020392915062000207565b5090565b5b8082111562000203576000815560010162000208565b600181811c908216806200023357607f821691505b602082108114156200025557634e487b7160e01b600052602260045260246000fd5b50919050565b611d8b806200026b6000396000f3fe608060405234801561001057600080fd5b506004361061018e5760003560e01c806342966c68116100de57806395d89b4111610097578063c87b56dd11610071578063c87b56dd1461036a578063cd7e10c11461037d578063d5f39488146103a6578063e985e9c5146103b957600080fd5b806395d89b411461033c578063a22cb46514610344578063b88d4fde1461035757600080fd5b806342966c68146102c05780634f6ccce7146102d357806354fd4d50146102e65780636352211e1461030357806370a08231146103165780637ac2ff7b1461032957600080fd5b8063141a468c1161014b5780632f745c59116101255780632f745c591461026a57806330adf81f1461027d5780633644e515146102a457806342842e0e146102ad57600080fd5b8063141a468c1461022f57806318160ddd1461024f57806323b872dd1461025757600080fd5b806301ffc9a71461019357806306661abd146101bb57806306fdde03146101d2578063081812fc146101e7578063095ea7b3146102125780631249c58b14610227575b600080fd5b6101a66101a1366004611a3e565b6103f5565b60405190151581526020015b60405180910390f35b6101c4600b5481565b6040519081526020016101b2565b6101da610406565b6040516101b29190611b42565b6101fa6101f5366004611a78565b610498565b6040516001600160a01b0390911681526020016101b2565b6102256102203660046119b4565b610532565b005b6101c4610648565b6101c461023d366004611a78565b600d6020526000908152604090205481565b6008546101c4565b610225610265366004611860565b61068d565b6101c46102783660046119b4565b6106be565b6101c47f49ecf333e5b8c95c40fdafc95c1ad136e8914a8fb55e9dc8bb01eaa83a2df9ad81565b6101c4600c5481565b6102256102bb366004611860565b610754565b6102256102ce366004611a78565b61076f565b6101c46102e1366004611a78565b6107a1565b6040805180820190915260018152603160f81b60208201526101da565b6101fa610311366004611a78565b610834565b6101c4610324366004611812565b6108ab565b6102256103373660046119de565b610932565b6101da610bb9565b610225610352366004611978565b610bc8565b61022561036536600461189c565b610bd7565b6101da610378366004611a78565b610c0f565b6101fa61038b366004611a78565b600e602052600090815260409020546001600160a01b031681565b600a546101fa906001600160a01b031681565b6101a66103c736600461182d565b6001600160a01b03918216600090815260056020908152604080832093909416825291909152205460ff1690565b600061040082610d1c565b92915050565b60606000805461041590611c67565b80601f016020809104026020016040519081016040528092919081815260200182805461044190611c67565b801561048e5780601f106104635761010080835404028352916020019161048e565b820191906000526020600020905b81548152906001019060200180831161047157829003601f168201915b5050505050905090565b6000818152600260205260408120546001600160a01b03166105165760405162461bcd60e51b815260206004820152602c60248201527f4552433732313a20617070726f76656420717565727920666f72206e6f6e657860448201526b34b9ba32b73a103a37b5b2b760a11b60648201526084015b60405180910390fd5b506000908152600460205260409020546001600160a01b031690565b600061053d82610834565b9050806001600160a01b0316836001600160a01b031614156105ab5760405162461bcd60e51b815260206004820152602160248201527f4552433732313a20617070726f76616c20746f2063757272656e74206f776e656044820152603960f91b606482015260840161050d565b336001600160a01b03821614806105c757506105c781336103c7565b6106395760405162461bcd60e51b815260206004820152603860248201527f4552433732313a20617070726f76652063616c6c6572206973206e6f74206f7760448201527f6e6572206e6f7220617070726f76656420666f7220616c6c0000000000000000606482015260840161050d565b6106438383610d41565b505050565b600b805490600190600061065c8385611bf8565b9091555061066c90503382610daf565b6000818152600e6020526040902080546001600160a01b0319163317905590565b6106973382610efd565b6106b35760405162461bcd60e51b815260040161050d90611ba7565b610643838383610ff4565b60006106c9836108ab565b821061072b5760405162461bcd60e51b815260206004820152602b60248201527f455243373231456e756d657261626c653a206f776e657220696e646578206f7560448201526a74206f6620626f756e647360a81b606482015260840161050d565b506001600160a01b03919091166000908152600660209081526040808320938352929052205490565b61064383838360405180602001604052806000815250610bd7565b61077881610834565b6001600160a01b0316336001600160a01b03161461079557600080fd5b61079e8161119f565b50565b60006107ac60085490565b821061080f5760405162461bcd60e51b815260206004820152602c60248201527f455243373231456e756d657261626c653a20676c6f62616c20696e646578206f60448201526b7574206f6620626f756e647360a01b606482015260840161050d565b6008828154811061082257610822611d13565b90600052602060002001549050919050565b6000818152600260205260408120546001600160a01b0316806104005760405162461bcd60e51b815260206004820152602960248201527f4552433732313a206f776e657220717565727920666f72206e6f6e657869737460448201526832b73a103a37b5b2b760b91b606482015260840161050d565b60006001600160a01b0382166109165760405162461bcd60e51b815260206004820152602a60248201527f4552433732313a2062616c616e636520717565727920666f7220746865207a65604482015269726f206164647265737360b01b606482015260840161050d565b506001600160a01b031660009081526003602052604090205490565b8342111561093f57600080fd5b600c546000868152600d60208181526040808420805482517f49ecf333e5b8c95c40fdafc95c1ad136e8914a8fb55e9dc8bb01eaa83a2df9ad818601526001600160a01b038e1681850152606081018d90526080810182905260a08082018d90528451808303909101815260c08201855280519086012061190160f01b60e083015260e28201989098526101028082019890985283518082039098018852610122019092528551958301959095208a85529290915290926001929091610a06908490611bf8565b9091555060009050610a1787610834565b9050806001600160a01b0316886001600160a01b03161415610a3857600080fd5b803b15610b1157604080516020810186905280820185905260f887901b6001600160f81b0319166060820152815160418183030181526061820192839052630b135d3f60e11b9092526001600160a01b03831691631626ba7e91610aa0918691606501611b29565b60206040518083038186803b158015610ab857600080fd5b505afa158015610acc573d6000803e3d6000fd5b505050506040513d601f19601f82011682018060405250810190610af09190611a5b565b6001600160e01b031916631626ba7e60e01b14610b0c57600080fd5b610ba5565b6040805160008082526020820180845285905260ff881692820192909252606081018690526080810185905260019060a0016020604051602081039080840390855afa158015610b65573d6000803e3d6000fd5b5050604051601f1901519150506001600160a01b038116610b8557600080fd5b816001600160a01b0316816001600160a01b031614610ba357600080fd5b505b610baf8888610d41565b5050505050505050565b60606001805461041590611c67565b610bd3338383611246565b5050565b610be13383610efd565b610bfd5760405162461bcd60e51b815260040161050d90611ba7565b610c0984848484611315565b50505050565b6000818152600260205260409020546060906001600160a01b0316610c8e5760405162461bcd60e51b815260206004820152602f60248201527f4552433732314d657461646174613a2055524920717565727920666f72206e6f60448201526e3732bc34b9ba32b73a103a37b5b2b760891b606482015260840161050d565b6000610cca60408051808201909152601f81527f68747470733a2f2f6170692e63616b656e66742e6f72672f6e66742f76312f00602082015290565b90506000815111610cea5760405180602001604052806000815250610d15565b80610cf484611348565b604051602001610d05929190611abd565b6040516020818303038152906040525b9392505050565b60006001600160e01b0319821663780e9d6360e01b1480610400575061040082611446565b600081815260046020526040902080546001600160a01b0319166001600160a01b0384169081179091558190610d7682610834565b6001600160a01b03167f8c5be1e5ebec7d5bd14f71427d1e84f3dd0314c0f7b2291e5b200ac8c7c3b92560405160405180910390a45050565b6001600160a01b038216610e055760405162461bcd60e51b815260206004820181905260248201527f4552433732313a206d696e7420746f20746865207a65726f2061646472657373604482015260640161050d565b6000818152600260205260409020546001600160a01b031615610e6a5760405162461bcd60e51b815260206004820152601c60248201527f4552433732313a20746f6b656e20616c7265616479206d696e74656400000000604482015260640161050d565b610e7660008383611496565b6001600160a01b0382166000908152600360205260408120805460019290610e9f908490611bf8565b909155505060008181526002602052604080822080546001600160a01b0319166001600160a01b03861690811790915590518392907fddf252ad1be2c89b69c2b068fc378daa952ba7f163c4a11628f55a4df523b3ef908290a45050565b6000818152600260205260408120546001600160a01b0316610f765760405162461bcd60e51b815260206004820152602c60248201527f4552433732313a206f70657261746f7220717565727920666f72206e6f6e657860448201526b34b9ba32b73a103a37b5b2b760a11b606482015260840161050d565b6000610f8183610834565b9050806001600160a01b0316846001600160a01b03161480610fbc5750836001600160a01b0316610fb184610498565b6001600160a01b0316145b80610fec57506001600160a01b0380821660009081526005602090815260408083209388168352929052205460ff165b949350505050565b826001600160a01b031661100782610834565b6001600160a01b03161461106f5760405162461bcd60e51b815260206004820152602960248201527f4552433732313a207472616e73666572206f6620746f6b656e2074686174206960448201526839903737ba1037bbb760b91b606482015260840161050d565b6001600160a01b0382166110d15760405162461bcd60e51b8152602060048201526024808201527f4552433732313a207472616e7366657220746f20746865207a65726f206164646044820152637265737360e01b606482015260840161050d565b6110dc838383611496565b6110e7600082610d41565b6001600160a01b0383166000908152600360205260408120805460019290611110908490611c24565b90915550506001600160a01b038216600090815260036020526040812080546001929061113e908490611bf8565b909155505060008181526002602052604080822080546001600160a01b0319166001600160a01b0386811691821790925591518493918716917fddf252ad1be2c89b69c2b068fc378daa952ba7f163c4a11628f55a4df523b3ef91a4505050565b60006111aa82610834565b90506111b881600084611496565b6111c3600083610d41565b6001600160a01b03811660009081526003602052604081208054600192906111ec908490611c24565b909155505060008281526002602052604080822080546001600160a01b0319169055518391906001600160a01b038416907fddf252ad1be2c89b69c2b068fc378daa952ba7f163c4a11628f55a4df523b3ef908390a45050565b816001600160a01b0316836001600160a01b031614156112a85760405162461bcd60e51b815260206004820152601960248201527f4552433732313a20617070726f766520746f2063616c6c657200000000000000604482015260640161050d565b6001600160a01b03838116600081815260056020908152604080832094871680845294825291829020805460ff191686151590811790915591519182527f17307eab39ab6107e8899845ad3d59bd9653f200f220920489ca2b5937696c31910160405180910390a3505050565b611320848484610ff4565b61132c848484846114a1565b610c095760405162461bcd60e51b815260040161050d90611b55565b60608161136c5750506040805180820190915260018152600360fc1b602082015290565b8160005b8115611396578061138081611ca2565b915061138f9050600a83611c10565b9150611370565b60008167ffffffffffffffff8111156113b1576113b1611d29565b6040519080825280601f01601f1916602001820160405280156113db576020820181803683370190505b5090505b8415610fec576113f0600183611c24565b91506113fd600a86611cbd565b611408906030611bf8565b60f81b81838151811061141d5761141d611d13565b60200101906001600160f81b031916908160001a90535061143f600a86611c10565b94506113df565b60006001600160e01b031982166380ac58cd60e01b148061147757506001600160e01b03198216635b5e139f60e01b145b8061040057506301ffc9a760e01b6001600160e01b0319831614610400565b6106438383836115ae565b60006001600160a01b0384163b156115a357604051630a85bd0160e11b81526001600160a01b0385169063150b7a02906114e5903390899088908890600401611aec565b602060405180830381600087803b1580156114ff57600080fd5b505af192505050801561152f575060408051601f3d908101601f1916820190925261152c91810190611a5b565b60015b611589573d80801561155d576040519150601f19603f3d011682016040523d82523d6000602084013e611562565b606091505b5080516115815760405162461bcd60e51b815260040161050d90611b55565b805181602001fd5b6001600160e01b031916630a85bd0160e11b149050610fec565b506001949350505050565b6001600160a01b0383166116095761160481600880546000838152600960205260408120829055600182018355919091527ff3f7a9fe364faab93b216da50a3214154f22a0a2b415b23a84c8169e8b636ee30155565b61162c565b816001600160a01b0316836001600160a01b03161461162c5761162c8382611666565b6001600160a01b0382166116435761064381611703565b826001600160a01b0316826001600160a01b0316146106435761064382826117b2565b60006001611673846108ab565b61167d9190611c24565b6000838152600760205260409020549091508082146116d0576001600160a01b03841660009081526006602090815260408083208584528252808320548484528184208190558352600790915290208190555b5060009182526007602090815260408084208490556001600160a01b039094168352600681528383209183525290812055565b60085460009061171590600190611c24565b6000838152600960205260408120546008805493945090928490811061173d5761173d611d13565b90600052602060002001549050806008838154811061175e5761175e611d13565b600091825260208083209091019290925582815260099091526040808220849055858252812055600880548061179657611796611cfd565b6001900381819060005260206000200160009055905550505050565b60006117bd836108ab565b6001600160a01b039093166000908152600660209081526040808320868452825280832085905593825260079052919091209190915550565b80356001600160a01b038116811461180d57600080fd5b919050565b60006020828403121561182457600080fd5b610d15826117f6565b6000806040838503121561184057600080fd5b611849836117f6565b9150611857602084016117f6565b90509250929050565b60008060006060848603121561187557600080fd5b61187e846117f6565b925061188c602085016117f6565b9150604084013590509250925092565b600080600080608085870312156118b257600080fd5b6118bb856117f6565b93506118c9602086016117f6565b925060408501359150606085013567ffffffffffffffff808211156118ed57600080fd5b818701915087601f83011261190157600080fd5b81358181111561191357611913611d29565b604051601f8201601f19908116603f0116810190838211818310171561193b5761193b611d29565b816040528281528a602084870101111561195457600080fd5b82602086016020830137600060208483010152809550505050505092959194509250565b6000806040838503121561198b57600080fd5b611994836117f6565b9150602083013580151581146119a957600080fd5b809150509250929050565b600080604083850312156119c757600080fd5b6119d0836117f6565b946020939093013593505050565b60008060008060008060c087890312156119f757600080fd5b611a00876117f6565b95506020870135945060408701359350606087013560ff81168114611a2457600080fd5b9598949750929560808101359460a0909101359350915050565b600060208284031215611a5057600080fd5b8135610d1581611d3f565b600060208284031215611a6d57600080fd5b8151610d1581611d3f565b600060208284031215611a8a57600080fd5b5035919050565b60008151808452611aa9816020860160208601611c3b565b601f01601f19169290920160200192915050565b60008351611acf818460208801611c3b565b835190830190611ae3818360208801611c3b565b01949350505050565b6001600160a01b0385811682528416602082015260408101839052608060608201819052600090611b1f90830184611a91565b9695505050505050565b828152604060208201526000610fec6040830184611a91565b602081526000610d156020830184611a91565b60208082526032908201527f4552433732313a207472616e7366657220746f206e6f6e20455243373231526560408201527131b2b4bb32b91034b6b83632b6b2b73a32b960711b606082015260800190565b60208082526031908201527f4552433732313a207472616e736665722063616c6c6572206973206e6f74206f6040820152701ddb995c881b9bdc88185c1c1c9bdd9959607a1b606082015260800190565b60008219821115611c0b57611c0b611cd1565b500190565b600082611c1f57611c1f611ce7565b500490565b600082821015611c3657611c36611cd1565b500390565b60005b83811015611c56578181015183820152602001611c3e565b83811115610c095750506000910152565b600181811c90821680611c7b57607f821691505b60208210811415611c9c57634e487b7160e01b600052602260045260246000fd5b50919050565b6000600019821415611cb657611cb6611cd1565b5060010190565b600082611ccc57611ccc611ce7565b500690565b634e487b7160e01b600052601160045260246000fd5b634e487b7160e01b600052601260045260246000fd5b634e487b7160e01b600052603160045260246000fd5b634e487b7160e01b600052603260045260246000fd5b634e487b7160e01b600052604160045260246000fd5b6001600160e01b03198116811461079e57600080fdfea2646970667358221220659145184bed97d345567e794a0d107e93eaa8e44205689b3a53affcd3ad14a164736f6c63430008050033",
    "linkReferences": {},
    "deployedLinkReferences": {}
}