{
    "_format": "hh-sol-artifact-1",
    "contractName": "CakeSimpleNFTV1",
    "sourceName": "contracts/CakeSimpleNFTV1.sol",
    "abi": [
        {
            "inputs": [],
            "stateMutability": "nonpayable",
            "type": "constructor"
        },
        {
            "anonymous": false,
            "inputs": [
                {
                    "indexed": true,
                    "internalType": "address",
                    "name": "owner",
                    "type": "address"
                },
                {
                    "indexed": true,
                    "internalType": "address",
                    "name": "approved",
                    "type": "address"
                },
                {
                    "indexed": true,
                    "internalType": "uint256",
                    "name": "tokenId",
                    "type": "uint256"
                }
            ],
            "name": "Approval",
            "type": "event"
        },
        {
            "anonymous": false,
            "inputs": [
                {
                    "indexed": true,
                    "internalType": "address",
                    "name": "owner",
                    "type": "address"
                },
                {
                    "indexed": true,
                    "internalType": "address",
                    "name": "operator",
                    "type": "address"
                },
                {
                    "indexed": false,
                    "internalType": "bool",
                    "name": "approved",
                    "type": "bool"
                }
            ],
            "name": "ApprovalForAll",
            "type": "event"
        },
        {
            "anonymous": false,
            "inputs": [
                {
                    "indexed": true,
                    "internalType": "address",
                    "name": "from",
                    "type": "address"
                },
                {
                    "indexed": true,
                    "internalType": "address",
                    "name": "to",
                    "type": "address"
                },
                {
                    "indexed": true,
                    "internalType": "uint256",
                    "name": "tokenId",
                    "type": "uint256"
                }
            ],
            "name": "Transfer",
            "type": "event"
        },
        {
            "inputs": [],
            "name": "DOMAIN_SEPARATOR",
            "outputs": [
                {
                    "internalType": "bytes32",
                    "name": "",
                    "type": "bytes32"
                }
            ],
            "stateMutability": "view",
            "type": "function"
        },
        {
            "inputs": [],
            "name": "PERMIT_TYPEHASH",
            "outputs": [
                {
                    "internalType": "bytes32",
                    "name": "",
                    "type": "bytes32"
                }
            ],
            "stateMutability": "view",
            "type": "function"
        },
        {
            "inputs": [
                {
                    "internalType": "address",
                    "name": "to",
                    "type": "address"
                },
                {
                    "internalType": "uint256",
                    "name": "tokenId",
                    "type": "uint256"
                }
            ],
            "name": "approve",
            "outputs": [],
            "stateMutability": "nonpayable",
            "type": "function"
        },
        {
            "inputs": [
                {
                    "internalType": "address",
                    "name": "owner",
                    "type": "address"
                }
            ],
            "name": "balanceOf",
            "outputs": [
                {
                    "internalType": "uint256",
                    "name": "",
                    "type": "uint256"
                }
            ],
            "stateMutability": "view",
            "type": "function"
        },
        {
            "inputs": [
                {
                    "internalType": "uint256",
                    "name": "id",
                    "type": "uint256"
                }
            ],
            "name": "burn",
            "outputs": [],
            "stateMutability": "nonpayable",
            "type": "function"
        },
        {
            "inputs": [],
            "name": "count",
            "outputs": [
                {
                    "internalType": "uint256",
                    "name": "",
                    "type": "uint256"
                }
            ],
            "stateMutability": "view",
            "type": "function"
        },
        {
            "inputs": [],
            "name": "deployer",
            "outputs": [
                {
                    "internalType": "address",
                    "name": "",
                    "type": "address"
                }
            ],
            "stateMutability": "view",
            "type": "function"
        },
        {
            "inputs": [
                {
                    "internalType": "uint256",
                    "name": "tokenId",
                    "type": "uint256"
                }
            ],
            "name": "getApproved",
            "outputs": [
                {
                    "internalType": "address",
                    "name": "",
                    "type": "address"
                }
            ],
            "stateMutability": "view",
            "type": "function"
        },
        {
            "inputs": [
                {
                    "internalType": "address",
                    "name": "owner",
                    "type": "address"
                },
                {
                    "internalType": "address",
                    "name": "operator",
                    "type": "address"
                }
            ],
            "name": "isApprovedForAll",
            "outputs": [
                {
                    "internalType": "bool",
                    "name": "",
                    "type": "bool"
                }
            ],
            "stateMutability": "view",
            "type": "function"
        },
        {
            "inputs": [],
            "name": "mint",
            "outputs": [
                {
                    "internalType": "uint256",
                    "name": "id",
                    "type": "uint256"
                }
            ],
            "stateMutability": "nonpayable",
            "type": "function"
        },
        {
            "inputs": [],
            "name": "name",
            "outputs": [
                {
                    "internalType": "string",
                    "name": "",
                    "type": "string"
                }
            ],
            "stateMutability": "view",
            "type": "function"
        },
        {
            "inputs": [
                {
                    "internalType": "uint256",
                    "name": "",
                    "type": "uint256"
                }
            ],
            "name": "nonces",
            "outputs": [
                {
                    "internalType": "uint256",
                    "name": "",
                    "type": "uint256"
                }
            ],
            "stateMutability": "view",
            "type": "function"
        },
        {
            "inputs": [
                {
                    "internalType": "uint256",
                    "name": "tokenId",
                    "type": "uint256"
                }
            ],
            "name": "ownerOf",
            "outputs": [
                {
                    "internalType": "address",
                    "name": "",
                    "type": "address"
                }
            ],
            "stateMutability": "view",
            "type": "function"
        },
        {
            "inputs": [
                {
                    "internalType": "address",
                    "name": "spender",
                    "type": "address"
                },
                {
                    "internalType": "uint256",
                    "name": "id",
                    "type": "uint256"
                },
                {
                    "internalType": "uint256",
                    "name": "deadline",
                    "type": "uint256"
                },
                {
                    "internalType": "uint8",
                    "name": "v",
                    "type": "uint8"
                },
                {
                    "internalType": "bytes32",
                    "name": "r",
                    "type": "bytes32"
                },
                {
                    "internalType": "bytes32",
                    "name": "s",
                    "type": "bytes32"
                }
            ],
            "name": "permit",
            "outputs": [],
            "stateMutability": "nonpayable",
            "type": "function"
        },
        {
            "inputs": [
                {
                    "internalType": "address",
                    "name": "from",
                    "type": "address"
                },
                {
                    "internalType": "address",
                    "name": "to",
                    "type": "address"
                },
                {
                    "internalType": "uint256",
                    "name": "tokenId",
                    "type": "uint256"
                }
            ],
            "name": "safeTransferFrom",
            "outputs": [],
            "stateMutability": "nonpayable",
            "type": "function"
        },
        {
            "inputs": [
                {
                    "internalType": "address",
                    "name": "from",
                    "type": "address"
                },
                {
                    "internalType": "address",
                    "name": "to",
                    "type": "address"
                },
                {
                    "internalType": "uint256",
                    "name": "tokenId",
                    "type": "uint256"
                },
                {
                    "internalType": "bytes",
                    "name": "_data",
                    "type": "bytes"
                }
            ],
            "name": "safeTransferFrom",
            "outputs": [],
            "stateMutability": "nonpayable",
            "type": "function"
        },
        {
            "inputs": [
                {
                    "internalType": "address",
                    "name": "operator",
                    "type": "address"
                },
                {
                    "internalType": "bool",
                    "name": "approved",
                    "type": "bool"
                }
            ],
            "name": "setApprovalForAll",
            "outputs": [],
            "stateMutability": "nonpayable",
            "type": "function"
        },
        {
            "inputs": [
                {
                    "internalType": "bytes4",
                    "name": "interfaceId",
                    "type": "bytes4"
                }
            ],
            "name": "supportsInterface",
            "outputs": [
                {
                    "internalType": "bool",
                    "name": "",
                    "type": "bool"
                }
            ],
            "stateMutability": "view",
            "type": "function"
        },
        {
            "inputs": [],
            "name": "symbol",
            "outputs": [
                {
                    "internalType": "string",
                    "name": "",
                    "type": "string"
                }
            ],
            "stateMutability": "view",
            "type": "function"
        },
        {
            "inputs": [
                {
                    "internalType": "uint256",
                    "name": "index",
                    "type": "uint256"
                }
            ],
            "name": "tokenByIndex",
            "outputs": [
                {
                    "internalType": "uint256",
                    "name": "",
                    "type": "uint256"
                }
            ],
            "stateMutability": "view",
            "type": "function"
        },
        {
            "inputs": [
                {
                    "internalType": "address",
                    "name": "owner",
                    "type": "address"
                },
                {
                    "internalType": "uint256",
                    "name": "index",
                    "type": "uint256"
                }
            ],
            "name": "tokenOfOwnerByIndex",
            "outputs": [
                {
                    "internalType": "uint256",
                    "name": "",
                    "type": "uint256"
                }
            ],
            "stateMutability": "view",
            "type": "function"
        },
        {
            "inputs": [
                {
                    "internalType": "uint256",
                    "name": "tokenId",
                    "type": "uint256"
                }
            ],
            "name": "tokenURI",
            "outputs": [
                {
                    "internalType": "string",
                    "name": "",
                    "type": "string"
                }
            ],
            "stateMutability": "view",
            "type": "function"
        },
        {
            "inputs": [],
            "name": "totalSupply",
            "outputs": [
                {
                    "internalType": "uint256",
                    "name": "",
                    "type": "uint256"
                }
            ],
            "stateMutability": "view",
            "type": "function"
        },
        {
            "inputs": [
                {
                    "internalType": "address",
                    "name": "from",
                    "type": "address"
                },
                {
                    "internalType": "address",
                    "name": "to",
                    "type": "address"
                },
                {
                    "internalType": "uint256",
                    "name": "tokenId",
                    "type": "uint256"
                }
            ],
            "name": "transferFrom",
            "outputs": [],
            "stateMutability": "nonpayable",
            "type": "function"
        }
    ],
    "bytecode": "0x60806040526000600b553480156200001657600080fd5b50604080518082018252601281527143616b652053696d706c65204e465420563160701b60208083019182528351808501909452600584526410d4d3919560da1b9084015281519192916200006e9160009162000178565b5080516200008490600190602084019062000178565b5050600a80546001600160a01b0319163317905550604080518082018252601281527143616b652053696d706c65204e465420563160701b6020918201528151808301835260018152603160f81b9082015281517f8b73c3c69bb8fe3d512ecc4cf759cc79239f7b179b0ffacaa9a75d522b39400f818301527f0aac6a05d96237081eff621c5b066322088b836e16a63257598e921a1056fb38818401527fc89efdaa54c0f20c7adf612882df0950f5a951637e0307cdcb4c672f298b8bc660608201524660808201523060a0808301919091528351808303909101815260c09091019092528151910120600c556200025b565b82805462000186906200021e565b90600052602060002090601f016020900481019282620001aa5760008555620001f5565b82601f10620001c557805160ff1916838001178555620001f5565b82800160010185558215620001f5579182015b82811115620001f5578251825591602001919060010190620001d8565b506200020392915062000207565b5090565b5b8082111562000203576000815560010162000208565b600181811c908216806200023357607f821691505b602082108114156200025557634e487b7160e01b600052602260045260246000fd5b50919050565b611cf1806200026b6000396000f3fe608060405234801561001057600080fd5b50600436106101585760003560e01c806342842e0e116100c357806395d89b411161007c57806395d89b41146102e9578063a22cb465146102f1578063b88d4fde14610304578063c87b56dd14610317578063d5f394881461032a578063e985e9c51461033d57600080fd5b806342842e0e1461027757806342966c681461028a5780634f6ccce71461029d5780636352211e146102b057806370a08231146102c35780637ac2ff7b146102d657600080fd5b8063141a468c11610115578063141a468c146101f957806318160ddd1461021957806323b872dd146102215780632f745c591461023457806330adf81f146102475780633644e5151461026e57600080fd5b806301ffc9a71461015d57806306661abd1461018557806306fdde031461019c578063081812fc146101b1578063095ea7b3146101dc5780631249c58b146101f1575b600080fd5b61017061016b3660046119a4565b610379565b60405190151581526020015b60405180910390f35b61018e600b5481565b60405190815260200161017c565b6101a461038a565b60405161017c9190611aa8565b6101c46101bf3660046119de565b61041c565b6040516001600160a01b03909116815260200161017c565b6101ef6101ea36600461191a565b6104b6565b005b61018e6105cc565b61018e6102073660046119de565b600d6020526000908152604090205481565b60085461018e565b6101ef61022f3660046117c6565b6105f3565b61018e61024236600461191a565b610624565b61018e7f49ecf333e5b8c95c40fdafc95c1ad136e8914a8fb55e9dc8bb01eaa83a2df9ad81565b61018e600c5481565b6101ef6102853660046117c6565b6106ba565b6101ef6102983660046119de565b6106d5565b61018e6102ab3660046119de565b610707565b6101c46102be3660046119de565b61079a565b61018e6102d1366004611778565b610811565b6101ef6102e4366004611944565b610898565b6101a4610b1f565b6101ef6102ff3660046118de565b610b2e565b6101ef610312366004611802565b610b3d565b6101a46103253660046119de565b610b75565b600a546101c4906001600160a01b031681565b61017061034b366004611793565b6001600160a01b03918216600090815260056020908152604080832093909416825291909152205460ff1690565b600061038482610c82565b92915050565b60606000805461039990611bcd565b80601f01602080910402602001604051908101604052809291908181526020018280546103c590611bcd565b80156104125780601f106103e757610100808354040283529160200191610412565b820191906000526020600020905b8154815290600101906020018083116103f557829003601f168201915b5050505050905090565b6000818152600260205260408120546001600160a01b031661049a5760405162461bcd60e51b815260206004820152602c60248201527f4552433732313a20617070726f76656420717565727920666f72206e6f6e657860448201526b34b9ba32b73a103a37b5b2b760a11b60648201526084015b60405180910390fd5b506000908152600460205260409020546001600160a01b031690565b60006104c18261079a565b9050806001600160a01b0316836001600160a01b0316141561052f5760405162461bcd60e51b815260206004820152602160248201527f4552433732313a20617070726f76616c20746f2063757272656e74206f776e656044820152603960f91b6064820152608401610491565b336001600160a01b038216148061054b575061054b813361034b565b6105bd5760405162461bcd60e51b815260206004820152603860248201527f4552433732313a20617070726f76652063616c6c6572206973206e6f74206f7760448201527f6e6572206e6f7220617070726f76656420666f7220616c6c00000000000000006064820152608401610491565b6105c78383610ca7565b505050565b600b80549060019060006105e08385611b5e565b909155506105f090503382610d15565b90565b6105fd3382610e63565b6106195760405162461bcd60e51b815260040161049190611b0d565b6105c7838383610f5a565b600061062f83610811565b82106106915760405162461bcd60e51b815260206004820152602b60248201527f455243373231456e756d657261626c653a206f776e657220696e646578206f7560448201526a74206f6620626f756e647360a81b6064820152608401610491565b506001600160a01b03919091166000908152600660209081526040808320938352929052205490565b6105c783838360405180602001604052806000815250610b3d565b6106de8161079a565b6001600160a01b0316336001600160a01b0316146106fb57600080fd5b61070481611105565b50565b600061071260085490565b82106107755760405162461bcd60e51b815260206004820152602c60248201527f455243373231456e756d657261626c653a20676c6f62616c20696e646578206f60448201526b7574206f6620626f756e647360a01b6064820152608401610491565b6008828154811061078857610788611c79565b90600052602060002001549050919050565b6000818152600260205260408120546001600160a01b0316806103845760405162461bcd60e51b815260206004820152602960248201527f4552433732313a206f776e657220717565727920666f72206e6f6e657869737460448201526832b73a103a37b5b2b760b91b6064820152608401610491565b60006001600160a01b03821661087c5760405162461bcd60e51b815260206004820152602a60248201527f4552433732313a2062616c616e636520717565727920666f7220746865207a65604482015269726f206164647265737360b01b6064820152608401610491565b506001600160a01b031660009081526003602052604090205490565b834211156108a557600080fd5b600c546000868152600d60208181526040808420805482517f49ecf333e5b8c95c40fdafc95c1ad136e8914a8fb55e9dc8bb01eaa83a2df9ad818601526001600160a01b038e1681850152606081018d90526080810182905260a08082018d90528451808303909101815260c08201855280519086012061190160f01b60e083015260e28201989098526101028082019890985283518082039098018852610122019092528551958301959095208a8552929091529092600192909161096c908490611b5e565b909155506000905061097d8761079a565b9050806001600160a01b0316886001600160a01b0316141561099e57600080fd5b803b15610a7757604080516020810186905280820185905260f887901b6001600160f81b0319166060820152815160418183030181526061820192839052630b135d3f60e11b9092526001600160a01b03831691631626ba7e91610a06918691606501611a8f565b60206040518083038186803b158015610a1e57600080fd5b505afa158015610a32573d6000803e3d6000fd5b505050506040513d601f19601f82011682018060405250810190610a5691906119c1565b6001600160e01b031916631626ba7e60e01b14610a7257600080fd5b610b0b565b6040805160008082526020820180845285905260ff881692820192909252606081018690526080810185905260019060a0016020604051602081039080840390855afa158015610acb573d6000803e3d6000fd5b5050604051601f1901519150506001600160a01b038116610aeb57600080fd5b816001600160a01b0316816001600160a01b031614610b0957600080fd5b505b610b158888610ca7565b5050505050505050565b60606001805461039990611bcd565b610b393383836111ac565b5050565b610b473383610e63565b610b635760405162461bcd60e51b815260040161049190611b0d565b610b6f8484848461127b565b50505050565b6000818152600260205260409020546060906001600160a01b0316610bf45760405162461bcd60e51b815260206004820152602f60248201527f4552433732314d657461646174613a2055524920717565727920666f72206e6f60448201526e3732bc34b9ba32b73a103a37b5b2b760891b6064820152608401610491565b6000610c3060408051808201909152601f81527f68747470733a2f2f6170692e63616b656e66742e6f72672f6e66742f76312f00602082015290565b90506000815111610c505760405180602001604052806000815250610c7b565b80610c5a846112ae565b604051602001610c6b929190611a23565b6040516020818303038152906040525b9392505050565b60006001600160e01b0319821663780e9d6360e01b14806103845750610384826113ac565b600081815260046020526040902080546001600160a01b0319166001600160a01b0384169081179091558190610cdc8261079a565b6001600160a01b03167f8c5be1e5ebec7d5bd14f71427d1e84f3dd0314c0f7b2291e5b200ac8c7c3b92560405160405180910390a45050565b6001600160a01b038216610d6b5760405162461bcd60e51b815260206004820181905260248201527f4552433732313a206d696e7420746f20746865207a65726f20616464726573736044820152606401610491565b6000818152600260205260409020546001600160a01b031615610dd05760405162461bcd60e51b815260206004820152601c60248201527f4552433732313a20746f6b656e20616c7265616479206d696e746564000000006044820152606401610491565b610ddc600083836113fc565b6001600160a01b0382166000908152600360205260408120805460019290610e05908490611b5e565b909155505060008181526002602052604080822080546001600160a01b0319166001600160a01b03861690811790915590518392907fddf252ad1be2c89b69c2b068fc378daa952ba7f163c4a11628f55a4df523b3ef908290a45050565b6000818152600260205260408120546001600160a01b0316610edc5760405162461bcd60e51b815260206004820152602c60248201527f4552433732313a206f70657261746f7220717565727920666f72206e6f6e657860448201526b34b9ba32b73a103a37b5b2b760a11b6064820152608401610491565b6000610ee78361079a565b9050806001600160a01b0316846001600160a01b03161480610f225750836001600160a01b0316610f178461041c565b6001600160a01b0316145b80610f5257506001600160a01b0380821660009081526005602090815260408083209388168352929052205460ff165b949350505050565b826001600160a01b0316610f6d8261079a565b6001600160a01b031614610fd55760405162461bcd60e51b815260206004820152602960248201527f4552433732313a207472616e73666572206f6620746f6b656e2074686174206960448201526839903737ba1037bbb760b91b6064820152608401610491565b6001600160a01b0382166110375760405162461bcd60e51b8152602060048201526024808201527f4552433732313a207472616e7366657220746f20746865207a65726f206164646044820152637265737360e01b6064820152608401610491565b6110428383836113fc565b61104d600082610ca7565b6001600160a01b0383166000908152600360205260408120805460019290611076908490611b8a565b90915550506001600160a01b03821660009081526003602052604081208054600192906110a4908490611b5e565b909155505060008181526002602052604080822080546001600160a01b0319166001600160a01b0386811691821790925591518493918716917fddf252ad1be2c89b69c2b068fc378daa952ba7f163c4a11628f55a4df523b3ef91a4505050565b60006111108261079a565b905061111e816000846113fc565b611129600083610ca7565b6001600160a01b0381166000908152600360205260408120805460019290611152908490611b8a565b909155505060008281526002602052604080822080546001600160a01b0319169055518391906001600160a01b038416907fddf252ad1be2c89b69c2b068fc378daa952ba7f163c4a11628f55a4df523b3ef908390a45050565b816001600160a01b0316836001600160a01b0316141561120e5760405162461bcd60e51b815260206004820152601960248201527f4552433732313a20617070726f766520746f2063616c6c6572000000000000006044820152606401610491565b6001600160a01b03838116600081815260056020908152604080832094871680845294825291829020805460ff191686151590811790915591519182527f17307eab39ab6107e8899845ad3d59bd9653f200f220920489ca2b5937696c31910160405180910390a3505050565b611286848484610f5a565b61129284848484611407565b610b6f5760405162461bcd60e51b815260040161049190611abb565b6060816112d25750506040805180820190915260018152600360fc1b602082015290565b8160005b81156112fc57806112e681611c08565b91506112f59050600a83611b76565b91506112d6565b60008167ffffffffffffffff81111561131757611317611c8f565b6040519080825280601f01601f191660200182016040528015611341576020820181803683370190505b5090505b8415610f5257611356600183611b8a565b9150611363600a86611c23565b61136e906030611b5e565b60f81b81838151811061138357611383611c79565b60200101906001600160f81b031916908160001a9053506113a5600a86611b76565b9450611345565b60006001600160e01b031982166380ac58cd60e01b14806113dd57506001600160e01b03198216635b5e139f60e01b145b8061038457506301ffc9a760e01b6001600160e01b0319831614610384565b6105c7838383611514565b60006001600160a01b0384163b1561150957604051630a85bd0160e11b81526001600160a01b0385169063150b7a029061144b903390899088908890600401611a52565b602060405180830381600087803b15801561146557600080fd5b505af1925050508015611495575060408051601f3d908101601f19168201909252611492918101906119c1565b60015b6114ef573d8080156114c3576040519150601f19603f3d011682016040523d82523d6000602084013e6114c8565b606091505b5080516114e75760405162461bcd60e51b815260040161049190611abb565b805181602001fd5b6001600160e01b031916630a85bd0160e11b149050610f52565b506001949350505050565b6001600160a01b03831661156f5761156a81600880546000838152600960205260408120829055600182018355919091527ff3f7a9fe364faab93b216da50a3214154f22a0a2b415b23a84c8169e8b636ee30155565b611592565b816001600160a01b0316836001600160a01b0316146115925761159283826115cc565b6001600160a01b0382166115a9576105c781611669565b826001600160a01b0316826001600160a01b0316146105c7576105c78282611718565b600060016115d984610811565b6115e39190611b8a565b600083815260076020526040902054909150808214611636576001600160a01b03841660009081526006602090815260408083208584528252808320548484528184208190558352600790915290208190555b5060009182526007602090815260408084208490556001600160a01b039094168352600681528383209183525290812055565b60085460009061167b90600190611b8a565b600083815260096020526040812054600880549394509092849081106116a3576116a3611c79565b9060005260206000200154905080600883815481106116c4576116c4611c79565b60009182526020808320909101929092558281526009909152604080822084905585825281205560088054806116fc576116fc611c63565b6001900381819060005260206000200160009055905550505050565b600061172383610811565b6001600160a01b039093166000908152600660209081526040808320868452825280832085905593825260079052919091209190915550565b80356001600160a01b038116811461177357600080fd5b919050565b60006020828403121561178a57600080fd5b610c7b8261175c565b600080604083850312156117a657600080fd5b6117af8361175c565b91506117bd6020840161175c565b90509250929050565b6000806000606084860312156117db57600080fd5b6117e48461175c565b92506117f26020850161175c565b9150604084013590509250925092565b6000806000806080858703121561181857600080fd5b6118218561175c565b935061182f6020860161175c565b925060408501359150606085013567ffffffffffffffff8082111561185357600080fd5b818701915087601f83011261186757600080fd5b81358181111561187957611879611c8f565b604051601f8201601f19908116603f011681019083821181831017156118a1576118a1611c8f565b816040528281528a60208487010111156118ba57600080fd5b82602086016020830137600060208483010152809550505050505092959194509250565b600080604083850312156118f157600080fd5b6118fa8361175c565b91506020830135801515811461190f57600080fd5b809150509250929050565b6000806040838503121561192d57600080fd5b6119368361175c565b946020939093013593505050565b60008060008060008060c0878903121561195d57600080fd5b6119668761175c565b95506020870135945060408701359350606087013560ff8116811461198a57600080fd5b9598949750929560808101359460a0909101359350915050565b6000602082840312156119b657600080fd5b8135610c7b81611ca5565b6000602082840312156119d357600080fd5b8151610c7b81611ca5565b6000602082840312156119f057600080fd5b5035919050565b60008151808452611a0f816020860160208601611ba1565b601f01601f19169290920160200192915050565b60008351611a35818460208801611ba1565b835190830190611a49818360208801611ba1565b01949350505050565b6001600160a01b0385811682528416602082015260408101839052608060608201819052600090611a85908301846119f7565b9695505050505050565b828152604060208201526000610f5260408301846119f7565b602081526000610c7b60208301846119f7565b60208082526032908201527f4552433732313a207472616e7366657220746f206e6f6e20455243373231526560408201527131b2b4bb32b91034b6b83632b6b2b73a32b960711b606082015260800190565b60208082526031908201527f4552433732313a207472616e736665722063616c6c6572206973206e6f74206f6040820152701ddb995c881b9bdc88185c1c1c9bdd9959607a1b606082015260800190565b60008219821115611b7157611b71611c37565b500190565b600082611b8557611b85611c4d565b500490565b600082821015611b9c57611b9c611c37565b500390565b60005b83811015611bbc578181015183820152602001611ba4565b83811115610b6f5750506000910152565b600181811c90821680611be157607f821691505b60208210811415611c0257634e487b7160e01b600052602260045260246000fd5b50919050565b6000600019821415611c1c57611c1c611c37565b5060010190565b600082611c3257611c32611c4d565b500690565b634e487b7160e01b600052601160045260246000fd5b634e487b7160e01b600052601260045260246000fd5b634e487b7160e01b600052603160045260246000fd5b634e487b7160e01b600052603260045260246000fd5b634e487b7160e01b600052604160045260246000fd5b6001600160e01b03198116811461070457600080fdfea2646970667358221220d9947546af372535c0619ab6f4dc0db7681a7b8799abcd388196d1510f07c73764736f6c63430008050033",
    "linkReferences": {},
    "deployedLinkReferences": {}
}